:020000040800F2
:10000000D00B0020CD010008131A00087317000858
:10001000111A0008FB020008871F000800000000FA
:10002000000000000000000000000000D51A0008D9
:100030002503000800000000151A0008BD1D000877
:10004000E7010008E7010008E7010008E7010008F0
:10005000E7010008E7010008E7010008E7010008E0
:10006000E7010008E7010008E7010008E7010008D0
:10007000E7010008E7010008E7010008E7010008C0
:10008000E7010008E7010008E7010008E7010008B0
:10009000E7010008E7010008E7010008E7010008A0
:1000A000E7010008E7010008E7010008E701000890
:1000B000E7010008E7010008E7010008E701000880
:1000C000E7010008E7010008E7010008E701000870
:1000D000E7010008E7010008E7010008E701000860
:1000E000E7010008E7010008E7010008E701000850
:1000F000E7010008E7010008E7010008E701000840
:10010000E7010008E7010008E7010008E70100082F
:10011000E7010008E7010008E7010008E70100081F
:10012000E7010008E7010008E7010008E70100080F
:1001300000F002F800F03AF80AA090E8000C8244BF
:100140008344AAF10107DA4501D100F02FF8AFF29C
:10015000090EBAE80F0013F0010F18BFFB1A43F0A5
:1001600001031847E42B0000042C0000103A24BFC0
:1001700078C878C1FAD8520724BF30C830C144BF0C
:1001800004680C607047000000230024002500264E
:10019000103A28BF78C1FBD8520728BF30C148BFEA
:1001A0000B6070471FB51FBD10B510BD00F06BF898
:1001B0001146FFF7F7FF02F041F900F089F803B4A8
:1001C000FFF7F2FF03BC00F091F8000009488047F8
:1001D00009480047FEE7FEE7FEE7FEE7FEE7FEE729
:1001E000FEE7FEE7FEE7FEE704480549054A064B41
:1001F000704700001F1E000831010008D0050020D4
:10020000D00B0020D0070020D0070020B2F120033F
:100210000AD5C2F1200320FA02F001FA03F321FA11
:1002200002F140EA0300704721FA03F04FF00001A9
:1002300070474FF0000200B51346944696462039A9
:1002400022BFA0E80C50A0E80C50B1F12001BFF48F
:10025000F7AF090728BFA0E80C5048BF0CC05DF8F5
:1002600004EB890028BF40F8042B08BF704748BF43
:1002700020F8022B11F0804F18BF00F8012B7047B7
:10028000704770477047754600F02CF8AE46050081
:100290006946534620F00700854618B020B5FFF7A1
:1002A000A3FFBDE820404FF000064FF000074FF0DD
:1002B00000084FF0000B21F00701AC46ACE8C00984
:1002C000ACE8C009ACE8C009ACE8C0098D4670478D
:1002D00010B50446AFF300802046BDE81040FFF79C
:1002E0006EBF0000004870477005002001491820CB
:1002F000ABBEFEE7260002007047FEE730B50446BD
:100300000020651804E000BF14F8011B01F016FE80
:10031000AC42F9D3002101F011FEBDE830400021CC
:1003200001F00CBE704700000EB50D4B0ECB8DE8F2
:100330000E00010A8DF808108DF809004FF6FF72C3
:1003400007210DF1030000F047FAADF80A004FF461
:1003500080130C226946034801F0B2F90EBD00007B
:10036000102600087C0000203EB5104C1CCC8DE807
:100370001C00020A8DF804208DF8050008884FF64D
:10038000FF72000A8DF8060008788DF80700052135
:100390000DF1030000F020FAADF808004FF48013CF
:1003A0000A226946024801F08BF93EBD1C2600086E
:1003B0007C00002072B6FEE770B586B000250E46C0
:1003C0000446049500F088FB0E48844215D2A0191B
:1003D000411EA14211D9001BC00A039001210095C2
:1003E000CDE9011404A9684600F024FA044600F09F
:1003F00015FB24B1012006B070BD00F00FFB0020FA
:10040000F9E70000FFFF070800B587B000F064FBC4
:10041000684600F08DFA00F001FB0348029988431A
:1004200000D0022007B000BDF0FF0F0010B500F0B3
:1004300053FB03493420C860BDE8104000F0EEBA19
:10044000002002402DE9F04116468846054600246A
:1004500000F042FB0E4F13E058F8242000232946F9
:10046000022000F0F9FA10B10320BDE8F08158F83D
:1004700024002968814201D00220F6E7641C2D1D6A
:10048000B44201D2BD42E7D900F0C8FA0020ECE73F
:10049000FBFF070810B58EB0044607A800F048FA25
:1004A000ACB10020019001200090A5208DF8100033
:1004B0009DF82D008DF811000A48099C044300F0B6
:1004C0000BFB00F0B7FA00F009FA10B107E00120C9
:1004D000E8E76846029400F03DFA002800D00420C6
:1004E0000EB010BDF0FF0F0006490020C86106489D
:1004F000016941F004010161016941F040010161BC
:100500007047000008010020002002402DE9F0475C
:10051000DFF89C80D8F820104CF250390143CFB25C
:10052000C1F30726C1F307450C0E484600F02AF92F
:1005300000283BD11F49C86100F0D0F9002835D10F
:10054000D8F8102042F01002C8F81020FF2F07D072
:100550001948018839430180484600F013F9F8B979
:10056000FF2E08D01448801C018831430180484682
:1005700000F008F9A0B9FF2D08D00F48001D018830
:1005800029430180484600F0FDF848B9FF2C07D008
:100590000948801D018821430180484600F0F2F897
:1005A000D8F8102022F01002C8F81020BDE8F0871B
:1005B000002002400801002008F8FF1F2DE9F04745
:1005C000DFF89C80D8F820104CF250398143CFB22C
:1005D000C1F30726C1F307450C0E484600F0D2F8D8
:1005E00000283BD11F49C86100F078F9002835D1B7
:1005F000D8F8102042F01002C8F81020FF2F07D0C2
:100600001948018839400180484600F0BBF8F8B924
:10061000FF2E08D01448801C0188314001804846D4
:1006200000F0B0F8A0B9FF2D08D00F48001D0188D8
:1006300029400180484600F0A5F848B9FF2C07D0B2
:100640000948801D018821400180484600F09AF841
:10065000D8F8102022F01002C8F81020BDE8F0876A
:10066000002002400801002008F8FF1F0449A520CF
:10067000C96901F00201022900D100207047000081
:100680000020024070B506464CF25035284600F076
:1006900079F8002820D11149C861114C206940F037
:1006A00020002061206940F040002061284600F0D1
:1006B00069F8216921F02001216100280CD120690D
:1006C00040F01000206107480680284600F05AF8E4
:1006D000216921F01001216170BD00000801002096
:1006E0000020024000F8FF1F064A0021D1610649A0
:1006F0000A6942F002020A614861086940F040005C
:10070000086170470801002000200240044B0022CD
:10071000DA61044A136943F00103136101807047F1
:10072000080100200020024014480022C168CB06C6
:10073000134904D5CA6942F00202CA611022C36893
:100740005B0705D5CB6943F00103CB6142F004029E
:10075000C369DB0707D0CB6943F00403CB61C169F0
:1007600021F00101C161A2F58071013901D0C2609F
:100770007047C16921F00101C1617047002002404A
:100780000801002070B5054600F054FB0646114CE8
:1007900009E0681C07D025B100F04CFB801BA84283
:1007A00001D9032070BDE068C007F2D1E06880067F
:1007B00001D52020E060E068C00605D4E069C007EC
:1007C00002D1E068400703D5FFF7AEFF012070BDFE
:1007D000002070BD0020024070B504461046002382
:1007E0004AF2010510E000BF14F8012B504000222E
:1007F000C60702D085EA500000E04008521C92B2C1
:10080000082AF5D35B1C9BB28B42EDD370BD000070
:1008100070B5044600F00EFB0546601C02D004488B
:100820000078044400F006FB401BA042FAD370BDE0
:10083000080000202DE9F047054626480F4601260E
:10084000017E01290FD00121814601762868DFF859
:1008500088804CF25034022808D0A2462046FFF788
:1008600091FFA8B131E00220BDE8F0872046FFF7F4
:1008700089FF08BB0120FFF737FE2046FFF782FF04
:10088000D8F81010064621F00401C8F810101CE03A
:100890004FF0FF303860AC6811E02046FFF724FFCE
:1008A0005046FFF76FFFD8F81010060021F0020144
:1008B000C8F8101001D03C6007E004F50064D5E9E9
:1008C000020100EBC120A042E7D8002189F81810EE
:1008D0003046C9E7080100200020024070B5FFF74C
:1008E000C5FEC5B24CF250363046FFF74BFF00282C
:1008F00018D10D49C8610D4C206940F020002061DD
:10090000206940F0400020613046FFF73BFF21693D
:1009100021F020012161002804D12846BDE8704063
:10092000FFF7B0BE70BD00000801002000200240AB
:1009300070B50446064D07202060286AA060FFF7C6
:1009400095FE2074E869C0F38200607470BD0000F9
:10095000002002402DE9F0472D4D04460120297E5C
:1009600001290ED00121297621784FF00007C9070F
:100970000DD060680128A06806D0FFF7C7FDE8BB6E
:1009800005E00220BDE8F087FFF718FEF7E72178C1
:10099000890703D5207CFFF775FE78BB21781D4EB3
:1009A00049074CF2503916D594F811804846FFF7A4
:1009B000E9FE78B9EF61306940F010003061164906
:1009C00048F0880008804846FFF7DCFE316921F0D6
:1009D0001001316190B92178090716D5D4F8148037
:1009E000247E4846FFF7CEFE40B9EF61306940F003
:1009F00010003061A8F80040484600E005E0FFF72D
:100A0000C1FE316921F0100131612F76BAE7000093
:100A1000080100200020024002F8FF1F034801697E
:100A200041F0800101610020704700000020024079
:100A300000F090BA05480169890505D40449816030
:100A40000449816000207047012070470020024067
:100A500023016745AB89EFCD2DE9F05F07461C48C0
:100A600088460024017E15461E46012909D0012131
:100A7000814601764CF2503A5046FFF783FE18B19A
:100A800022E00220BDE8F09F012F02D0022F00D00B
:100A90000427D346DFF83CA0220128463146FFF761
:100AA000B5FB81B208EB4400FFF730FE5846FFF774
:100AB00069FEDAF8102022F00102CAF8102018B9F5
:100AC000641CE4B2BC42E7D3002289F81820D9E7BD
:100AD0000801002000200240064900200A69120691
:100AE00007D5054A4A60054A4A600969090600D5E2
:100AF000012070470020024023016745AB89EFCDFC
:100B00002DE9F04300233E4F0F2574E001229A4067
:100B10000A406ED023F00304E619D6F808809C073B
:100B20004FEA147C05FA0CF909EA0804DFF8D480CE
:100B3000404502D14FF0000824E0DFF8CC8040456A
:100B400002D14FF001081DE0DFF8C080404502D11E
:100B50004FF0020816E0DFF8B880404502D14FF0B0
:100B600003080FE0DFF8AC80404502D14FF00408E5
:100B700008E0DFF8A480404502D14FF0050801E00D
:100B80004FF0060808FA0CF8A04515D1D6F808C0B1
:100B90002CEA090CC6F808C0204E3468944334602F
:100BA000341D266896432660241D266896432660D9
:100BB000241D266896432660FF2A01D8064601E0D8
:100BC00000F104064FEA830401D9A4F12004D6F809
:100BD00000C005FA04F82CEA080C4FF0040808FAE3
:100BE00004F84CEA080CC6F800C0C46824EA020401
:100BF000C46003F1010331FA03F287D1BDE8F08349
:100C00000000014000080140000C014000100140BC
:100C10000014014000180140001C01400004014084
:100C20002DE9F84FDFF8C891002409F1040A0AF110
:100C3000040B23460F270BF1040ED1E00125A5403C
:100C400006EA0502AA4276D1DFF8A8C14E68A6EBF3
:100C50000C0866452BD00DDC032E34D005DC36B3F2
:100C6000012E19D0022E2FD11BE0112E16D0122EDC
:100C70002AD119E0B8F5881F19D006DCB8F5803FF5
:100C800015D0B8F5801F1FD111E0B8F5001F0ED0A8
:100C9000B8F5041F18D10AE0CB6815E0CB681B1D1E
:100CA00012E0CB6808330FE0CB680C330CE08B68A4
:100CB0002BB1012B4FF0080303D0456104E004235E
:100CC00002E0056100E00023FF2A01D8064601E0AA
:100CD00000F104064FEA840501D9A5F12005D6F8F4
:100CE000008007FA05FC28EA0C0803FA05F548EA33
:100CF0000508C6F800804D68ED0070D53E4DAE6920
:100D000046F00106AE61AD6924F0030605F0010569
:100D100000953A4D06EB050CDCF80850A607360F97
:100D200007FA06F825EA0805DFF8D480404503D124
:100D30004FF0000825E052E0DFF8C880404502D1BE
:100D40004FF001081DE0DFF8C080404502D14FF0B0
:100D5000020816E0DFF8B480404502D14FF00308E6
:100D60000FE0DFF8AC80404502D14FF0040808E006
:100D7000DFF8A080404502D14FF0050801E04FF0B8
:100D8000060808FA06F848EA0508CCF808804D6815
:100D9000D9F80060ED034D4601D5164300E09643B7
:100DA0002E604D68DAF80060AD03554601D5164354
:100DB00000E096432E604D68DBF80060ED025D4672
:100DC00001D5164300E096432E604D68DEF80060C2
:100DD000AD02754601D5164300E096432E60641CB3
:100DE0000A681646E2407FF429AFBDE8F88F00009C
:100DF00000040140000011100010024000000140FA
:100E000000080140000C01400010014000140140A6
:100E100000180140001C0140C26821EA02030A4098
:100E200043EA0241016170470AB101617047090458
:100E3000FBE70000014880687047000008000020C0
:100E400002488168027811448160704708000020E0
:100E5000074810B5016841F010010160032000F05F
:100E600067F80F2000F006F800F024F8002010BD0D
:100E70000020024070B50D4D04464FF47A71287879
:100E8000B1FBF0F00A490968B1FBF0F000F0F0FAAC
:100E900048B9102C07D200222146501E00F028F835
:100EA00000206C6070BD012070BD000008000020B3
:100EB000140000200C4808B5816941F001018161EE
:100EC000816901F001010091C16941F08051C16166
:100ED000C06900F0805000900448416821F0E06152
:100EE00041F00071416008BD001002400000014067
:100EF000F0B40E4B1B680C46C3F30223C3F1070585
:100F0000042D00D90425191D072901D2002300E072
:100F1000DB1E012606FA05F1491E214099409E403C
:100F2000761E16403143F0BC01F066BA0CED00E0CD
:100F3000064900F0070208684FF6FF03184040EA30
:100F40000220034A10430860704700000CED00E0E7
:100F50000000FA05BFF34F8F05480168054A01F408
:100F6000E06111430160BFF34F8F00BFFDE7000058
:100F70000CED00E00400FA052DE9F0470F460500EE
:100F800061D0434E306800F00700B84209D23068A3
:100F900020F0070038433060306800F00700B842A6
:100FA00051D128683B4C810712D5400703D56068B2
:100FB00040F4E06060602878000703D5606840F482
:100FC000605060606068A96820F0F00008436060CD
:100FD0002878C00728D06868012810D02168022826
:100FE00010D0890700292EDA616821F0030101433E
:100FF0006160FFF71FFF804641F288390DE02168EC
:101000008903EFE78901EDE7FFF714FFA0EB080183
:10101000494502D90320BDE8F0876068696800F09F
:101020000C00B0EB810FEFD1306800F00700B84240
:101030000BD9306820F0070038433060306800F08A
:101040000700B84201D00120E5E72878400705D520
:101050006068E96820F4E060084360602878000771
:1010600006D56068296920F4605040EAC1006060DC
:1010700000F038F86168084AC1F30311515CC840B8
:101080000649086006480068FFF7F4FE0020C2E742
:101090000020024000100240F82500081400002043
:1010A0000C0000200448054900684968044AC1F35F
:1010B0000221515CC840704714000020001002401B
:1010C000082600080448054900684968044AC1F335
:1010D000C221515CC840704714000020001002403B
:1010E0000826000812A185B00FC98DE80F0014A0D2
:1010F000144A006804905168134801F00C03042B53
:1011000010D0082B0ED1C1F38343C9031DF803008F
:101110000AD5516804AAC1F34041515C0A4A5043C0
:10112000B0FBF1F005B0704708494843FAE700000A
:1011300002030405060708090A0B0C0D0E0F101018
:10114000010200000010024000127A0000093D0078
:101150002DE9F84F040070D02078C04DC00749D069
:101160006868C0F38100012807D06868C0F3810077
:10117000022809D16868C00306D52868800339D5DC
:1011800060680028E7D035E06068B0F5803F0BD09C
:1011900010B1B0F5A02F11D0286820F4803028605D
:1011A000286820F4802002E0286840F4803028601D
:1011B000606890B1FFF73EFE06460AE0286840F4FA
:1011C00080202860F0E700BFFFF734FE801B642812
:1011D00073D828688003F7D50CE0FFF72BFE06468E
:1011E00005E000BFFFF726FE801B6428F0D82868C2
:1011F0008003F7D420789A4E80074FF001094FF012
:10120000000839D5686810F00C0F07D06868C0F383
:101210008100022809D16868C00306D428688007C5
:1012200014D52069012808D110E02069B0B1C6F8B2
:101230000090FFF7FFFD074605E00AE1FFF7FAFD22
:10124000C01B0228C4D828688007F7D528686169C0
:1012500020F0F80040EAC10028600DE0C6F80080E8
:10126000FFF7E8FD074604E0FFF7E4FDC01B022896
:1012700023D828688007F7D4207800072CD5794830
:10128000A169D9B1C0F80090FFF7D4FD074604E08A
:10129000FFF7D0FDC01B02280FD8686A8007F7D57A
:1012A00071484FF4FA510068B0FBF1F0009000BFB4
:1012B0000098411E0091FAD20EE080E0C0F8008054
:1012C000FFF7B8FD074604E0FFF7B4FDC01B022896
:1012D00075D8686A8007F7D42078400760D5E86938
:1012E0000027C00008D4E86940F08050E861E86950
:1012F000012700F0805000905C480168C90513D4B4
:101300000168834641F480710160FFF793FD8246D6
:1013100006E000BFFFF78EFDA0EB0A0064284ED860
:10132000DBF80000C005F5D5E06801280AD008B157
:10133000052813D0286A20F001002862286A20F0CE
:10134000040002E0286A40F001002862E06841F2EF
:10135000883B98B1FFF76EFD82460BE0286A40F0AB
:1013600004002862EEE700BFFFF764FDA0EB0A016E
:1013700059455AD8286A8007F6D50CE0FFF75AFD80
:10138000824605E0FFF756FDA0EB0A0159454CD80F
:10139000286A8007F6D41FB1E86920F08050E86120
:1013A000E06988B36968C1F38101022944D0022849
:1013B000C6F8608004D0FFF73DFD044638E034E015
:1013C000FFF738FD074604E0FFF734FDC01B022895
:1013D0002BD828688001F7D4206AB0F5803F05D16A
:1013E0006868A16820F4003008436860D4E9080107
:1013F0000843696821F4741108436860C6F8609076
:10140000FFF718FD044606E025E000BFFFF712FDD8
:10141000001B022809D828688001F7D51BE000BF0F
:10142000FFF708FD001B022802D90320BDE8F88F52
:1014300028688001F4D40EE00128F7D06868226A99
:1014400000F48031914204D1616A00F47010884246
:1014500001D00120EAE70020E8E700000010024088
:10146000000042428004424214000020007000400C
:1014700010B5401EB0F1807F01D3012010BD4FF0A8
:10148000E02460610F21601700F0B6FF0020A0612A
:1014900007202061002010BD70B5040004D094F82E
:1014A0003D00002510B106E0012070BD84F83C50DD
:1014B000204600F047F8242084F83D002068C168E9
:1014C00021F40051C160204600F0AAFC20680169A7
:1014D00021F4904101612068416921F02A014161B4
:1014E0002068C16841F40051C1602564202084F85F
:1014F0003D0084F83E00002070BD00000C4A0168E9
:101500000C48914207D1816921F4804181614FF4F7
:10151000C061094809E0094A914208D1C16921F432
:101520008021C1614FF440610548FFF7E9BA704777
:10153000003801400010024000080140004800400F
:10154000000C014070B586B0002400940194029410
:10155000039403682648254E022103220515B34251
:101560001ED1836943F480438361836903F480431C
:101570000493836943F00403836180691D4E00F086
:10158000040004900802CDE9000103926946304648
:10159000FFF746FBCDE9005469463046029420E04F
:1015A000154EB3421FD1C36943F48023C361C3699D
:1015B00003F480230493836943F008038361806903
:1015C000CDE9005100F00800CDE903200B4D69463C
:1015D0002846FFF725FBE814CDE9000469462846B4
:1015E0000294FFF71DFB06B070BD000000380140FB
:1015F000001002400008014000480040000C01407B
:101600002DE9F84F044690F83E009A4616460D46DE
:10161000202853D1FDB1F6B194F83C0001284DD0FB
:10162000012084F83C0000272764222084F83E0033
:101630002763FFF7FFFBA6858146E685A0684FF488
:101640008058404501D1206940B12E465FF0000529
:1016500084F83C7027E00120BDE8F88F0026F7E70A
:101660004B46002220212046CDF800A000F034FC9B
:1016700008B10320F0E726B1A06840451BD038B17F
:1016800008E020684068C0F3080025F8020B07E076
:10169000206980B12068406800F07F0006F8010BE7
:1016A000E08D401EE085E08D0028D9D1202084F80F
:1016B0003E000020D0E720684068EFE70220CBE73B
:1016C0002DE9F843044690F83D001F4616460D46A6
:1016D00020284CD1C5B1BEB194F83C00012846D0B9
:1016E000012084F83C004FF00008C4F8408021201D
:1016F00084F83D00FFF79EFBA6848146E684A0683F
:10170000B0F5805F03D004E00120BDE8F8832069D4
:1017100028B12E465FF0000584F83C800EE00026DC
:10172000FAE78021204600F0D7FBA0B9AEB116F849
:10173000010B21684860E08C401EE084E08C4B4641
:101740004FF0000200970028EBD14FF040012046F7
:1017500000F0C2FB30B10320D7E735F8020BC0F32D
:101760000800E6E7202084F83D000020CDE70220B5
:10177000CBE7FEE7F0B500220D4B154614460A27CD
:10178000B1FBF3F630368654B1FBF3F603FB1611CA
:10179000B3FBF7F3521C861816F8016C302E00D1FB
:1017A00025B16D1C641C0A2CEAD3F0BD0022F9E7B8
:1017B00000CA9A3BF0B585B00020009001900290DD
:1017C00003902648816941F010018161816901F02F
:1017D00010010491816941F040018161816901F04A
:1017E00040010491816941F008018161816901F042
:1017F00008010491816941F004018161816901F06E
:1018000004010491816941F0200181618069144ED5
:1018100000F020004FF4A0440490012221463046FD
:10182000FFF702FB0F4F012204213846FFF7FCFAB5
:10183000009401240225694630460194CDE9024511
:10184000FFF7EEF90420CDE9000469463846CDE9FA
:101850000245FFF7E5F905B0F0BD000000100240B9
:1018600000180140001401400C4810B50A490160FD
:101870004FF4E1314160002181600C22C160C0E978
:1018800004128161C161FFF707FE002803D0BDE8A3
:101890001040FEF78FBD10BD003801407C000020D5
:1018A0000C4810B50A4901604FF4E1314160002154
:1018B00081600C22C160C0E904128161C161FFF73F
:1018C000EBFD002803D0BDE81040FEF773BD10BD4E
:1018D00000480040C000002008B50020444C8DF8AE
:1018E00000000546206800F0FDF9FEF78DFD261F7B
:1018F000DFF80081404F47F2305930600421404604
:10190000FFF78AFA606800F0EDF9306808B1A06866
:1019100000E0E06800F0E6F9386840684B460122D4
:1019200069463548FFF76CFE032801D0032D06D326
:10193000206B00F0D7F9002533208DF800009DF8CA
:101940000000312809D032280BD033280DD034289C
:101950002FD06D1CEDB2206A37E0002500F0BCF8F6
:10196000CCE7002500F068F9C8E7244845F6A52231
:101970000168B2EB114F01D1214900E0214901601A
:10198000214D4FF400612846FEF716FD01221B4948
:101990002846FEF757FDE06A00F0A4F91648FFF765
:1019A000ADFD1A48FFF7AAFD012080F3138800F06F
:1019B00033FD3068002558B10120FEF76BFD58B9A2
:1019C000606900F08FF9E0690CE000F08BF995E7B1
:1019D0000020FEF75FFD08B1206CF6E7606900F0BB
:1019E00081F9A06900F07EF9FFF722F886E7000090
:1019F0001C00002000140140C00000200400002052
:101A0000FFFF5AA5FFFFA55A00F007087C00002041
:101A1000FEE7FEE7704700002DE9F84300240F467B
:101A20000646904613460C60012269462848FFF797
:101A3000E7FD050020D19DF80000182820D006DC25
:101A400001280BD002280BD0042804D104E041283F
:101A500027D0612825D0012530700DE0802401E0D9
:101A60004FF480643070221D4346B11C1848FFF7C4
:101A7000C7FD050017D0002428463C60BDE8F88368
:101A80004346012269461248FFF7BAFD18B99DF88E
:101A90000000182803D001259DF80000DCE702248F
:101AA000DAE70225D8E7F178B07881F0FF018842C3
:101AB0000AD130190179407900EB01282146301D07
:101AC000FEF71CFC4045D7D000240125D4E70000D8
:101AD000C00000207047000030B585B000200090A5
:101AE0000190029004901020FEF71EFC324D686AAF
:101AF00000F0F8F804A800F047FA040041F264008E
:101B000010D06521ADF80C1003A9FEF72DFC052CB3
:101B10004DD0042C4BD0022C4BD0286D00F0E2F8B5
:101B200005B030BD6621ADF80C1003A9FEF71CFC12
:101B3000C820FEF76DFE686B00F0D4F81FA000F01F
:101B4000D1F8294800F0CEF868460499FFF712FE54
:101B500026A000F0C7F8684600F0C4F826A000F000
:101B6000C1F828A000F0BEF82F484FF6FF722F4CA6
:101B70000168114301604FF400612046FEF71CFC30
:101B8000012229492046FEF75DFCE86A00F0AAF828
:101B90004FF4FA70FEF73CFE2548FFF7AFFC2548EE
:101BA000FFF7ACFC012080F3138800F035FCA86C33
:101BB000B4E7E86BB2E700001C0000200A0D2D2DF1
:101BC0002D2D2D2D2D2D2D2D2D2D2D2D2D2D2D2D45
:101BD0002D2D2D2D2D2D2D2D2D2D2D2D2D2D0D0A78
:101BE000204E616D653A2000280100200D0A205327
:101BF000697A653A200000002042797465730D0A05
:101C0000000000002D2D2D2D2D2D2D2D2D2D2D2DB8
:101C10002D2D2D2D2D2D2D2D2D2D2D2D2D2D2D2DF4
:101C20002D2D2D2D0D0A00000400002000F00708C6
:101C3000C00000207C0000207CB500208DF8000052
:101C40001120FEF771FB154CA06A00F04BF8144B05
:101C5000012269461348FFF7D3FC9DF80000432892
:101C60001AD119484FF474320FA1006800F05CFAE1
:101C70008DF8000041F2640520B1606D00F032F88B
:101C8000672003E0A06B00F02DF86820ADF8040099
:101C900001A92846FEF768FB7CBD00001C0000205F
:101CA000C0D40100C000002055706C6F6164656491
:101CB0005F53746174696F6E436F6E74726F6C6C96
:101CC00065722E62696E00000000002001B542F2CC
:101CD0001073012269460248FFF7F2FC08BD0000BC
:101CE000C0000020002201E0521C92B2815C002959
:101CF000FAD1014642F210730148FFF7E1BC00003F
:101D0000C0000020F0B5054600242A78204623466E
:101D1000302A2ED16A78782A01D0582A29D1022473
:101D20001CE000BFA2F14106052E07D9A2F1610710
:101D3000052F03D91136092E04D913E0A2F130077B
:101D4000092F01D8303A04E0052E01D8373A00E0D7
:101D5000573A641C02EB03130B2C04D22A5D002AB1
:101D6000E0D103E000202A5D002A01D101200B60B0
:101D7000F0BD2A5D62B16B2A01D04B2A02D10CB1B1
:101D80009B0205E06D2A01D04D2A04D11CB11B0530
:101D900001200B600AE0A2F13006092E0CD803EBFB
:101DA00083036FF02F0606EB43031344641C0B2CD4
:101DB000DED20128DDD1F0BD0020F0BDFFF740B834
:101DC00030B58FB028216846FEF733FA14210AA8EF
:101DD000FEF72FFA01210804CDE900100024029437
:101DE00002250491CDE907504FF4E01009906846B0
:101DF000FFF7AEF908B172B6FEE70F20CDE90A058C
:101E00004FF48060CDE90C4002210AA80E94FFF740
:101E1000B3F8002801D072B6FEE70FB030BD7047AE
:101E200070B5044600680169E26821F4405111432D
:101E300001612169A0680843616908432168CA6893
:101E400041F20C639A430243CA6020684169A26967
:101E500021F44071114341611E492068884202D13A
:101E6000FFF730F901E0FFF71DF900EBC00101EBCE
:101E70000012606864218000B2FBF0F3B3FBF1F361
:101E80006FF018067343B2FBF0F5B2FBF0F605EB0A
:101E90008305322303EB0515B5FBF1F5B6FBF1F62F
:101EA00005F0F00505EB0615B2FBF0F6B2FBF0F01D
:101EB000B0FBF1F06FF01802504306EB800003EB2B
:101EC0000010B0FBF1F0216800F00F00284488609A
:101ED00070BD0000003801402DE9F04198461746DA
:101EE0000E460446069D1DE0681C1BD02DB1FEF772
:101EF000A1FFA0EB0800A84214D92068C16821F412
:101F0000D071C1602068416921F001014161202048
:101F100084F83D0084F83E00002084F83C00032053
:101F2000BDE8F0812068006836EA000004D0002097
:101F3000B842D9D00020F3E70120F9E741F48071DD
:101F400041F2210240004900CB0500D5401CC303EB
:101F500000D55040CB03F5D580B2704708B50028B6
:101F600010D000290ED0642209685043B0FBF1F074
:101F7000C0B2ADF80000642804D8694641F264009C
:101F8000FEF7F2F908BDFEE72DE9F14F0027DFF873
:101F900088A190B03E46B9463C46DAF800B0B2E0BF
:101FA0004FF000084546AAE04FF47A7201A95B4859
:101FB000FFF732FD78B102287ED0B9F1000F00D0D2
:101FC000761C0A2E7AD91820FFF780FE1820FFF71A
:101FD0007DFE012493E00198002668B1022805D017
:101FE0004E498B7843450CD0152086E05FF0060003
:101FF000FFF76CFE022482E00620FFF767FE012552
:102000007DE0B8F1000F1AD082085846091DFEF78E
:1020100019FA002865D01820FFF758FE1820FFF79E
:1020200055FE042408F10100019900F0FF0808FBA7
:1020300001F04FF001090DA9FFF790FF5FE008796B
:10204000D8B30020364B091D02E01A54401C491C2D
:102050000A780AB14028F8D34FF0000C03F800C00A
:10206000604606AB01E01A54401C11F8012F202AEB
:1020700001D01028F7D303F800C00DA91846FFF7C8
:1020800041FE10986FF474310068C84211D91820CD
:102090008DF838004FF48014234601220EA9214800
:1020A000FFF70EFB234601220EA91E48FFF708FB8F
:1020B00005244FF4743102E019E00CE01CE0DAF87A
:1020C0000000FEF779F910980D9901600620FFF7DE
:1020D000FDFD432008E00620FFF7F8FD01252F460F
:1020E0000DE0019906208B44FFF7F0FD9AE71820D8
:1020F000FFF7ECFD18207BE74320FFF7E7FD55EAEB
:1021000004003FF451AF57EA04003FF449AF11B067
:102110002046BDE8F08F000000000020680100208C
:1021200028010020C00000202DE9F74F86B04FF0B5
:10213000000A0120AE4D0190012208986A7085F8CE
:1021400002A0FF23D04656465746EB70544604E0A3
:1021500005EB040C641C8CF804300B5D0BB1402CB7
:10216000F6D32A1900211171014602A8FFF702FBDC
:1021700002A8641D02E02955641C7F1CC15D002972
:10218000F9D14FF48019DFF868B202E00020285539
:10219000641C842CFAD31FE05C464D464B468322D8
:1021A000611C9448FFF78CFA8021201DFEF7A6F8E9
:1021B0000446000AFFF78AFDE0B2FFF787FD2B46D1
:1021C000012269468B48FFF71BFA60B10AF1010A48
:1021D000BAF10A0F00D3012658EA0600DCD00698AF
:1021E0000290089C7CE09DF80000062815D0182875
:1021F000EED12B46012269467E48FFF701FA0028FE
:10220000E6D19DF800001828E2D10220FEF700FB7D
:102210007848006840680226DAE74FF00108D7E7FF
:10222000DDE90103724AC5B24FF480672046BC4223
:1022300001D3394600E08021884200D30846B1F539
:10224000806F07D0012757709570ED43D570042536
:10225000071D06E00227F6E713F801CB02F805C0D8
:102260006D1CBD42F8D3884207D81A23001D091DF2
:1022700001E01354401C8842FBD34FF0000A8DF854
:1022800000A0574629E000BF4FF48065AC4200D261
:102290008025EA1C4B46D8460BF101015548FFF753
:1022A0000FFA294608F10400FEF728F88046000AD4
:1022B000FFF70CFD08F0FF00FFF708FD4B46012279
:1022C00069464C48FFF79CF918B99DF800000628AC
:1022D00011D07F1C0A2F00D301265AEA0600D3D062
:1022E0000CB1002E9CD0002425468DF800402746D6
:1022F000DFF8008123E002984FF0010A2844AC4245
:1023000002900CD90198641BF42806D0401C01905F
:10231000684308A9FFF722FEDCE70526DAE7002478
:10232000D8E70420FFF7D2FC4B460122694631482A
:10233000FFF766F940B17F1C0A2F00D3012654EA4B
:102340000600EED0E6B14EE09DF80000062815D05C
:102350001828F1D14B46012269462648FFF750F96B
:102360000028E9D19DF800001828E5D10220FEF7E9
:102370004FFAD8F8000040680226DDE70124DBE7C9
:1023800001208BF801008BF80250FF208BF803002E
:102390005C4604202554401CC0B28428FAD34D4624
:1023A0004B468322611C1348FFF78AF98021201DC8
:1023B000FDF7A4FF0446000AFFF788FCE0B2FFF730
:1023C00085FC2B46012269460A48FFF719F950B9E6
:1023D0009DF80000182806D10220FEF719FAD8F857
:1023E00000004068022609B03046BDE8F08F0000CA
:1023F00068010020C00000200907090E002804DB46
:1024000000F1E02080F80014704700F00F0000F1A8
:10241000E02080F8141D7047BFF34F8F0548016816
:10242000054A01F4E06111430160BFF34F8F00BF23
:10243000FDE700000CED00E00400FA05FEF708FDE2
:10244000FFF7BEFCFFF7B6F9FFF72AFAFFF70CFA21
:10245000FDF7ECFF384E3168384D45F6A520384B76
:10246000384A6960B0EB114F06D04AF25A50B0EBCF
:10247000114F01D11C4600E0144689B241F23428C4
:102480002C60414533D08CB320682F490840B0F10F
:10249000005F32D02D48FFF725FC04212C48FEF7C1
:1024A000BBFC2CA0FFF71EFC4FF4FA70FEF7B0F94E
:1024B0006868010C090401EB080068604FF40061D2
:1024C0003046FDF779FF1D490122091D3046FDF711
:1024D000B9FFBFF34F8F2B4801682B4A01F4E0612D
:1024E00011430160BFF34F8F00BFFDE7FFE727A057
:1024F000FFF7F8FBFFF7F0F9D3E76068294F386082
:1025000034EA000003D02848FFF7ECFBC9E7944207
:1025100001D126A002E09C4202D12DA0FFF7E2FBF0
:10252000344938680860216881F30888012181F303
:1025300013888047B5E7000000F00708000000207E
:1025400000200408005000080000FE2F2826000884
:10255000001401400D0A4E6F74653A2054686520DE
:1025600073797374656D2073746172747320746F02
:1025700020726573746172742E2E2E2E2E2E0D0A0B
:10258000000000000CED00E00400FA050D0A4941CE
:1025900050205374617274202E2E2E2E2E2E2E0D4E
:1025A0000A00000078000020782600080D0A41701B
:1025B000703120737461727473206578656375740B
:1025C000696F6E202E2E2E2E2E2E0D0A000000007A
:1025D0000D0A4170703220737461727473206578D3
:1025E00065637574696F6E202E2E2E2E2E2E0D0AA9
:1025F0000000000074000020000000000000000047
:102600000102030406070809000000000102030498
:102610005AA5098200845A01000000005AA50782C9
:1026200000000000000000000D0A4A756D70206176
:10263000646472657373206572726F723A20706C95
:102640006561736520636865636B207468652069E4
:102650006E7465727275707420766563746F722023
:10266000616E642070726F6772616D206164647264
:1026700065737320210D0A000D0A4572726F723A5C
:1026800020546865206170706C69636174696F6E55
:10269000206164647265737320646F6573206E6F6C
:1026A00074206D6174636820746865206A756D704C
:1026B0002061646472657373210D0A00406E6F744B
:1026C000652030353A496E76616C6964204E756DCF
:1026D0006265722021203D3D3E20546865206E7564
:1026E0006D6265722073686F756C64206265206529
:1026F000697468657220312C20322C2033206F726F
:1027000020342E200D0A0D0A000000004065727270
:102710006F722030323A466C617368207772697448
:10272000652070726F74656374696F6E206661698D
:102730006C65642021200D0A000000004065727263
:102740006F722030313A466C617368207772697419
:102750006520756E2D70726F74656374696F6E207D
:102760006661696C65642021200D0A004065727203
:102770006F722030333A54686520696D6167652057
:1027800073697A6520697320686967686572207467
:1027900068616E2074686520616C6C6F7765642079
:1027A0007370616365206D656D6F72792021200DF6
:1027B0000A000000406E6F74652030333A5772692A
:1027C00074652050726F74656374696F6E20656EF6
:1027D00061626C65642E200D0A000000406E6F740B
:1027E000652030323A57726974652050726F746593
:1027F0006374696F6E2064697361626C65642E2016
:102800000D0A0000232034204044697361626C6526
:10281000207468652077726974652070726F7465C2
:102820006374696F6E2E202020202020202020201D
:10283000202020202020230D0A000000233D3D3DC4
:102840003D3D3D3D3D3D3D3D3D3D3D3D3D3D3D3DB8
:10285000204D61696E204D656E75203D3D3D3D3DCD
:102860003D3D3D3D3D3D3D3D3D3D3D3D3D3D230DE2
:102870000A2320312040446F776E6C6F61642069B9
:102880006D61676520746F2074686520696E74657A
:10289000726E616C20466C6173682E2020202020AF
:1028A000202020230D0A232032204055706C6F61B8
:1028B0006420696D6167652066726F6D207468655C
:1028C00020696E7465726E616C20466C6173682E4F
:1028D0002020202020202020230D0A2320332040E8
:1028E0004578656375746520746865206C6F6164F4
:1028F0006564206170706C69636174696F6E2E200D
:1029000020202020202020202020202020230D0AED
:10291000000000002320342040456E61626C652079
:102920007468652077726974652070726F7465636E
:1029300074696F6E2E20202020202020202020204F
:10294000202020202020230D0A233D3D3D3D3D3DFC
:102950003D3D3D3D3D3D3D3D3D3D3D3D3D3D3D3DA7
:102960003D3D3D3D3D3D3D3D3D3D3D3D3D3D3D3D97
:102970003D3D3D3D3D3D3D3D3D3D3D230D0A00007E
:10298000406E6F74652030313A53746172742070F8
:10299000726F6772616D20657865637574696F6EBB
:1029A0002E2E2E2E2E2E0D0A00000000406E6F746B
:1029B000652030343A53797374656D2077696C6C97
:1029C000206E6F7720726573746172742E2E2E2EB6
:1029D0002E2E0D0A000000000D0A202020205F5F2F
:1029E0005F5F202020202020202020202020202069
:1029F0005F5F20205F5F20202020202020202020DB
:102A0000202020202020202020205F5F0D0A202071
:102A1000202F205F5F20295F5F5F5F20205F5F5F67
:102A20005F20202F202F5F2F202F2020205F5F5F2F
:102A30005F20205F5F5F5F205F5F5F5F5F2F202F02
:102A40005F5F20205F5F5F5F5F0D0A20202F205FA8
:102A50005F20202F205F5F20242F205F5F20242F06
:102A6000205F5F2F202F2020202F205F5F20242F2A
:102A7000205F5F20602F205F5F20202F205F2024B9
:102A80002F205F5F5F2F0D0A202F202F5F2F202F19
:102A9000202F5F2F202F202F5F2F202F202F5F2F01
:102AA000202F5F5F5F2F202F5F2F202F202F5F2F82
:102AB000202F202F5F2F202F20205F5F2F202F0D12
:102AC0000A2F5F5F5F5F5F2F405F5F5F5F2F405F39
:102AD0005F5F5F2F405F5F2F5F5F5F5F5F2F405FD4
:102AE0005F5F5F2F405F5F2C5F2F405F5F2C5F2F2A
:102AF000405F5F5F2F5F2F0D0A0D0A4275696C649E
:102B00003A202020202020204D61792031352032AC
:102B10003032322031353A33333A32310D0A56658C
:102B20007273696F6E3A2020202020312E312E30B2
:102B30000D0A436F707972696768743A2020202803
:102B40006329203230323220426F6F744C6F6164DF
:102B50006572204C48434059756E6E616E205A680C
:102B6000616F667520546563686E6F6C6F6779205E
:102B7000436F2E2C204C74640D0A00004065727265
:102B80006F722030343A56657269666963617469A0
:102B90006F6E206661696C65642021200A0D00005B
:102BA00040537563636573732030313A50726F67B9
:102BB00072616D6D696E6720436F6D706C657465D1
:102BC000642021200A0D0000406572726F7220306F
:102BD000363A4572726F72204F6363757272656424
:102BE000207768696C65205472616E736D697474C6
:102BF000696E672046696C652021200A0D0000007F
:102C0000406572726F722030353A4661696C656456
:102C100020746F207265636569766520746865202D
:102C200066696C652021200A0D0000004053756321
:102C3000636573732030323A46696C652075706C39
:102C40006F61646564207375636365737366756C27
:102C50006C792021200A0D00406E6F74652030369B
:102C60003A57616974696E6720666F72207468658F
:102C70002066696C6520746F2062652073656E74D0
:102C8000202E2E2E20287072657373202761272036
:102C9000746F2061626F7274292E200A0D0000008B
:102CA000406E6F74652030373A506C657365205301
:102CB000656C656374205265636569766520466955
:102CC0006C652E200A0D0000405761726E696E67B8
:102CD0002030313A41626F727465642062792075E8
:102CE0007365722E200A0D00406E6F7465203038B7
:102CF0003A53746172742072657374617274696E90
:102D000067207468652073797374656D202E2E2E8C
:102D10002E2E2E2E0A0D0000406E6F746520303965
:102D20003A5465726D696E616C20726573706F6E76
:102D300073652074696D656F7574202E2E2E2E2E8E
:102D40002E2E0A0D00000000682D00080000002053
:102D50007C0000006C010008E42D00087C000020CD
:102D6000540B000088010008000000000000000073
:102D70000100000010000000000000000024F4002A
:102D800000000000D82900083C280008042800089A
:102D90001429000880290008DC270008B42700084F
:102DA000AC290008BC260008582C0008A02C0008FC
:102DB000E82C0008182D0008A02B00082C2C000877
:102DC000C82C00083C2700080C2700086C270008C6
:102DD0007C2B0008002C0008C82B00080000000015
:042DE00000000000EF
:0400000508000131BD
:00000001FF
