:020000040800F2
:10000000D86A0020DD010008EF3C0008293600080E
:10001000ED3C0008A50C0008D548000800000000D1
:100020000000000000000000000000004501000882
:10003000EB0F00080000000089010008C54200081D
:10004000F7010008F7010008F7010008F7010008B0
:10005000F7010008F7010008F7010008F7010008A0
:10006000F7010008F7010008F70100086D0F00080C
:10007000790F0008850F0008910F00089D0F0008F8
:10008000A90F0008B50F0008F7010008F7010008E4
:10009000F7010008F7010008F7010008F701000860
:1000A000F70100086D430008F7010008F701000898
:1000B000F7010008F7010008F7010008F701000840
:1000C000F7010008F7010008F7010008F701000830
:1000D000F701000891470008ED4700084D48000867
:1000E000F7010008F7010008F7010008F701000810
:1000F000F7010008F7010008F7010008F701000800
:10010000F7010008F7010008F7010008F7010008EF
:10011000F7010008F7010008F7010008F7010008DF
:10012000F7010008F7010008F7010008F7010008CF
:10013000DFF80CD000F0B6FC00480047315300084F
:10014000D86A0020224B19680868B0E8F00F80F3E5
:100150000988BFF36F8F4FF0000080F311884EF0D5
:100160000D0E70470000000006480068006880F32C
:10017000088862B661B6BFF34F8FBFF36F8F00DFA1
:1001800000BF00BF08ED00E0EFF30980BFF36F8F01
:100190000F4B1A6820E9F00F106008B54FF05000BF
:1001A00080F31188BFF34F8FBFF36F8F08F048FAC9
:1001B0004FF0000080F31188BDE808401968086816
:1001C000B0E8F00F80F30988BFF36F8F704700BF6E
:1001D0005C030020EFF3058070470000064880476D
:1001E00006480047FEE7FEE7FEE7FEE7FEE7FEE71C
:1001F000FEE7FEE7FEE7FEE76B430008310100087B
:10020000202A04DB203A21FA02F00021704721FA6B
:1002100002F3D040C2F120029140084319467047D2
:1002200040EA01039B0703D009E008C9121F08C078
:10023000042AFAD203E011F8013B00F8013B521EF8
:10024000F9D27047D2B201E000F8012B491EFBD26F
:1002500070470022F6E710B513460A4604461946D1
:10026000FFF7F0FF204610BD421C10F8011B0029CB
:10027000FBD1801A704710B5002200E0521C835C4D
:100280008C5CA34201D1002BF8D1D8B2E1B2401A64
:1002900010BD30B505460020034600E05B1C9342CC
:1002A00005D2EC5CC85C201A01D1002CF6D130BD1F
:1002B000F0B480EA0102D40F4200B2EB410F02D247
:1002C0000246084611464A0042D0C30DDDB2C1F3D2
:1002D000C752AD1A202D35DAC1F3160141F40002E0
:1002E00004B15242C5F1200602FA06F12A41104437
:1002F000B3EBD05F23D0C4B1012DA0EBC35009DC18
:10030000F0BC4FF0004202EAC352DBB200F500003D
:1003100000F0F4B9400000F1807000EBC350A0F190
:10032000807040EAD170490009E0490841EAC07193
:10033000A0EBC35000F50000400800EBC350F0BC38
:1003400000F0D3B96142012202EB4101001BF6E744
:10035000F0BC704781F00041AAE780F00040A7E7B9
:1003600080EA010210B502F00043400022D04A00AA
:100370001FD0010E01EB1261C0F35600C2F356020A
:1003800040F4000042F40002A0FB022000047F3988
:10039000140400D0401C50EA124001D44000491E11
:1003A000C2B20C0604EBD010401C4008802A02D0D8
:1003B00003E0002010BD20F00100002900DA002039
:1003C000184310BD30B480EA010202F0004530F05D
:1003D000004221F0004013D090B1C30DD40DC2F300
:1003E0001601C0F31600E41A41F4000140F40002C3
:1003F0007D34914201D3641C00E04900002C02DAF4
:1004000030BC002070474FF400000023914201D31C
:10041000891A034340084FEA4101F7D151B1914293
:1004200002D14FF0004105E002D24FF0010101E09E
:100430006FF0010103EBC450284430BC00F055B903
:10044000420005D0C0F3C7525242914201DC002065
:10045000704700EBC15070472DE9F04D81EA03046D
:1004600004F0004B21F0004514464FF0000A23F041
:10047000004150EA050220D054EA01021DD0C5F324
:100480000A570246C5F31303C1F31300C1F30A561A
:1004900040F4801543F48013A7EB0608101BD646E2
:1004A00008F2FD3873EB050002D308F1010801E002
:1004B00092185B41B8F1000F03DA00200146BDE855
:1004C000F08D00204FF48011064684460EE0171B85
:1004D00073EB050705D3121B63EB050306434CEAD8
:1004E000010C49084FEA300092185B4150EA0107BD
:1004F000EDD152EA030012D082EA040083EA05013A
:10050000084305D0101BAB4106D20122002306E0B0
:1005100000224FF0004302E06FF0010253101AEB8B
:1005200006004CEB085110EB0A0041EB0B01BDE853
:10053000F04D00F011B970B521F0004303430CD029
:10054000C1F30A550024D5EB040564EB0403D61768
:10055000AD1AB34102DB0020014670BD201841EB0B
:10056000025170BDC10F80EAE0700844CA079623AB
:10057000002100F0C3B896230022114600F0BEB857
:100580000EB540F2334102910021CDE900110A4637
:100590000B4600F0F0F803B000BD20F00040C10DA4
:1005A000C0F3160040F400007F2901DA00207047F4
:1005B000962903DCC1F19601C840704796398840FE
:1005C000704770B5C1F30A5201F000450024C1F331
:1005D000130140F2FF3341F480119A4201DA002006
:1005E00070BD40F233439A42A2F2334203DC5242DE
:1005F000FFF706FE00E090402C43F1D0404270BD72
:10060000C1F30A5210B5C1F3130140F2FF3341F4B4
:1006100080119A4201DA002010BD40F233439A4221
:10062000A2F2334203DC5242FFF7EAFD10BD9040D4
:1006300010BD0000002801DBC0F10040002901DBF3
:10064000C1F1004181427047002801DBC0F1004048
:10065000002901DBC1F100418842704730B50B46EB
:10066000014600202022012409E021FA02F59D42E2
:1006700005D303FA02F5491B04FA02F52844151EB6
:10068000A2F10102F1DC30BD2DE9F05F054600204A
:1006900092469B4688460646814640241BE02846F3
:1006A000414647462246FFF7ABFD53465A46C01A1D
:1006B000914110D311461846224600F005FA2D1A32
:1006C00067EB01084F4622460120002100F0FCF9AB
:1006D00017EB00094E41201EA4F10104DFDC48465F
:1006E00031462A464346BDE8F09F0029A8BF70471F
:1006F000401C490008BF20F00100704710B4B0FA58
:1007000080FC00FA0CF050EA010404BF10BC7047F2
:1007100049B1CCF1200421FA04F411FA0CF118BF0C
:10072000012121430843A3EB0C01CB1D4FEA0061DB
:100730004FEA102042BF002010BC704700EBC350AE
:1007400010440029A4BF10BC7047401C490008BFDA
:1007500020F0010010BC704710B5141E73F10004A6
:1007600008DA401C41F1000192185B411A4301D1A3
:1007700020F0010010BD2DE9F04D92469B4611B1CD
:10078000B1FA81F202E0B0FA80F22032904600F035
:100790009BF904460F4640EA0A0041EA0B01534622
:1007A0005A46084313D0114653EA010019D0C8F144
:1007B00040025046FFF724FD05460E465046594676
:1007C000424600F081F9084305D0012004E02046AC
:1007D0003946BDE8F08D0020054346EAE0762C431B
:1007E00037430A986305E40AA0EB08000022FD0ADB
:1007F00044EA47540A3002D500200146E9E70105E2
:1008000010196941DDE9084500196941BDE8F04D5D
:10081000A2E72DE9FE4F804681EA0300C00F0C4697
:10082000009021F0004123F00045B8EB0200A941FF
:1008300005D24046214690461C460B46024623F010
:100840000040104347D0270DC7F30A00C3F30A51F5
:100850000290401A019040286BDAC3F3130040F471
:10086000801B0098924620B10023D2EB030A63EB71
:100870000B0B01985946C0F14002504600F024F994
:1008800006460D4650465946019A00F02CF910EBE9
:1008900008006141002487EA115284EAE7731A4391
:1008A00040D0009A62B3019A012A4FEA075215DC40
:1008B000001B61EB02014FF0004202EA0752CDE952
:1008C0000042001C41F5801132462B46FFF753FFD2
:1008D00003B0BDE8F08F40462146F9E7001B61EB0D
:1008E0000201001C41F5801300185B412018A2F59D
:1008F000001747EB030140EAD570B6196D4111E0CE
:100900006D084FEA360645EAC0754FEA0752001BEC
:1009100061EB0201001C41F5801149084FEA3000EB
:100920000019514132462B4603B0BDE8F04FFFF7A6
:1009300013BF0098012240000023D0EB020263EBBA
:10094000E073009821464FEAE074B8EB000061EBD9
:100950000401E9E783F000435BE781F0004158E7D9
:100960002DE9FE4F81EA030404F0004421F0004128
:1009700000944FF0000B23F0004350EA01045ED0D6
:1009800052EA03045BD0C3F30A54C1F30A552C4462
:10099000A4F2F3340194A0FB0254C1F3130141F417
:1009A0008011C3F3130343F4801301FB024400FBE3
:1009B000034E840A970A44EA815447EA8357A4FB0A
:1009C000076802958D0A05FB07854FEA932C04FB07
:1009D0000C542705029D4FEA065847EA1637B5EB37
:1009E00008056EEB070C870E920E47EA811742EA64
:1009F0008312A7FB0201B6EB0B0164EB00042B0D85
:100A000043EA0C335E1844EB1C50DA465146E7FBD0
:100A10000201C5F313044FEA0B3343EA14534FEAC0
:100A20000432019C43EA0603A4F10C040294009CE6
:100A3000CDE900B4FFF79FFE03B0BDE8F08F0020C2
:100A40000146F9E7C1F30A52C1F3130140F2FF3343
:100A500041F480119A4202DA00200146704740F2C8
:100A600033439A42A2F2334202DC5242FFF7C8BB40
:100A700000F02AB830B5041E71F1000404DB4FF019
:100A80000044404264EB0101141E73F1000405DBD5
:100A90001C464FF00043524263EB0403994208BFE7
:100AA000904230BD064C074D06E0E06840F001037F
:100AB00094E8070098471034AC42F6D3FFF73CFBAC
:100AC0008C9B0008AC9B0008202A04DB203A00FA2B
:100AD00002F1002070479140C2F1200320FA03F395
:100AE000194390407047202A06DBCB17203A41FA81
:100AF00002F043EAE07306E041FA02F3D040C2F1AB
:100B00002002914008431946704770B58C1810F8C0
:100B1000015B15F0070301D110F8013B2A1106D142
:100B200010F8012B03E010F8016B01F8016B5B1E5C
:100B3000F9D12B0705D40023521E0DD401F8013B37
:100B4000FAE710F8013BCB1A921C03E013F8015BA3
:100B500001F8015B521EF9D5A142D8D3002070BD27
:100B600070B5044600688168C943C90717D1816818
:100B700021F00101816001F059FB05460AE000BF48
:100B800001F054FB401B022804D920688068C04350
:100B9000C00706D020688068C043C007F0D000209E
:100BA00070BDA06A40F01000A062E06A40F0010051
:100BB000E062012070BD10B50146406A826A12F001
:100BC000500F05D0006A026BBDE810400846104780
:100BD000816A41F40071816201688968C1F3424110
:100BE00007290CD1017B51B9816A21F4807181629E
:100BF000816AC90403D4816A41F00101816200F075
:100C0000E5FC10BD10B5406A816A41F04001816287
:100C1000C16A41F00401C16200F0DAFC10BD10B5F8
:100C2000406A00F0D4FC10BDF8B5002604460096DA
:100C300000688168C943C9072DD0816841F001016E
:100C40008160164816490068B0FBF1F000E0401ED4
:100C500000900028FBD101F0E9FA054616E000BF3C
:100C600001F0E4FA401B022810D920688068C043D4
:100C7000C0070BD0A06A40F01000A062E06A40F00C
:100C80000100E06284F824600120F8BD20688068DB
:100C9000C043C007E4D10020F8BD00005803002085
:100CA00040420F00FEE7000086B000207C4CDFF8D9
:100CB000F4918346CDF81000C4F800B0C4F804B035
:100CC000D9F800000822234680690021D0F850524C
:100CD000A847002850D007F085FA04F110062546F1
:100CE000B0466F4621E004220021284600F0C2FAF7
:100CF000D6E9000A5146FFF72DFB05904FF08141E0
:100D00002868FFF727FB6FF00301FFF799FB0599B0
:100D1000FFF726FB5146FFF7CBFA2860B0F5000F2E
:100D200000DA002001C501C708364545DBD307F0CE
:100D300079FA5D4D00230A226946286A07F0EAFD28
:100D4000D9F8000004AA00218069D0F83C32984705
:100D5000002811D0216E2068FFF76CFC04D9616E69
:100D6000E068FFF767FC08D84D491439C1F800B0B6
:100D7000C1F804B0C1F808B082E0049888B3484EC6
:100D80005F46143EC6F80CB0216C2068FFF75CFC8F
:100D900005D80120C6E90070B060687070E0616C31
:100DA0002068FFF747FC03D86F707760F76003E0B7
:100DB000687888BB0120B060A16C6068FFF744FCD4
:100DC00010D8394901203C3188718A88521C92B26E
:100DD0008A800A2A02D38F808F71B060C6E900072B
:100DE0004EE007E030483C3087800120B760C6E91C
:100DF000007045E0D4E90010FFF7ACFAE16CFFF7B2
:100E000023FC0AD8216D2068FFF714FC05D2244981
:100E100001201439486004E032E021481438C0F859
:100E200004B0616D6068FFF70FFC07D21C48012118
:100E300014388160C0F804B001610AE0A16E6068F6
:100E4000FFF7F8FB05D816491439C1F808B0C1F806
:100E500010B0A16D2068FFF7F7FB04D810490120FE
:100E60001439C86008E0E16D2068FFF7E3FB03D8A0
:100E70000B481438C0F80CB009491439C1F800B057
:100E8000D9F80000064B05228069143B0021D0F8F8
:100E90003852A8474FF47A7005F0F8F80CE70000D4
:100EA000E4030020EC020020CC0000202DE9F041FA
:100EB0000D0004464CD03C2005F082FE206008B9AD
:100EC00007F0C4F9288C05F07BFE070001D107F07C
:100ED000BDF9288D05F074FE060001D107F0B6F9C2
:100EE000298C3846FFF7B5F9298D3046FFF7B1F95F
:100EF00021682878087021681648486021681648DB
:100F0000886021681548C860216815480861216813
:100F1000144848612168144888612068C7612168C5
:100F2000002048842268298C118421684E6222683E
:100F3000298D1185216848852168286B08632168FF
:100F4000A88E88862168E86AC8622168A86B8863D1
:100F5000BDE8F081D11100081512000895110008B4
:100F6000F510000839110008ED0F0008014800F0E5
:100F7000F9BD00002C0C0020014800F0F3BD00007A
:100F8000FC0E0020014800F0EDBD0000B80E00206E
:100F9000014800F0E7BD0000EC0D0020014800F022
:100FA000E1BD0000A80D0020014800F0DBBD0000FD
:100FB000300E0020014800F0D5BD0000740E002066
:100FC00030B590F840500124AC40C56B6C600468AB
:100FD00063604368102B036803D099600068C260A7
:100FE00030BD9A600068C16030BD704738B50446B6
:100FF000006B1546012915D05FF0040101EB0511C6
:101000000422405800900021684600F033F9206B1C
:10101000042300EB0510A56800886A4681B22046CB
:10102000A84738BD0821E9E7F8B50D46416A0446EE
:1010300008268879022803D2B1F8070040BA06E0F2
:10104000D1F80700897A00BA20F0FF000843FFF7C3
:1010500089FA2549FFF7B6F900902A78D4E90B718F
:1010600006EB02128958FFF7EFFA2BD829780422F1
:10107000206B02EB011141580098FFF7DBFA21D8F1
:1010800037B12878A18E884202D2009947F8201003
:1010900007F0A8F860221549154800F0ABF907F0F1
:1010A000C1F804220021684600F0E4F82978206B9A
:1010B000A56800EB0110042300886A4681B220462F
:1010C000A847F8BD2978206B06EB0111415800981C
:1010D000FFF7B0FA01D2012100E00221A3692A78CA
:1010E00020469847F8BD000000002041F40300208E
:1010F00000F807081EB40DA31CCB8DE81C000A0ADB
:101100008DF808208DF8091000214184C169009AEA
:101110000A60019A4A60BDF808200A81418C0A31B0
:101120004184416803B010BC084700005AA50982F9
:1011300000845A010000000038B50446406A0025CA
:1011400001785A2920D14178A5291DD180888DF8B0
:10115000005041BAA28E13E0236B03EB00131B680F
:101160008B420AD1C2B20C20216B00EB02100A584C
:1011700052B169462046904706E0401C8DF80000B9
:101180009DF800008242E7D8618D606AFFF761F840
:10119000658538BD3CB40CA4090AD4E90034CDE916
:1011A00000348DF804108DF8052000214184C169B8
:1011B000009A0A60BDF804208A80418C891D418410
:1011C000416802B030BC08475AA506830000000001
:1011D00038B50446408C4FF6FF72C01E81B2E069FC
:1011E000C01C00F059F9ADF80000618CE0690844BA
:1011F000BDF800100180608C801C82B26284E169BD
:10120000A06B02F0CFF9A06B00680168C9434906E2
:10121000FBD438BD7CB51D46134614A20446D2E962
:101220000002CDE90002681D8DF80200080A8DF861
:1012300004008DF8051000206084E06900992A46BA
:101240000160BDF804108180608C801D80B26084D4
:10125000E16908441946FEF7E3FF608C2844608486
:10126000616802B02046BDE8704008475AA5008278
:1012700000000000F0B5540800230A44521ED5B205
:1012800009E0CE18EF1A825D10F807C000F806C01A
:101290005B1CC255DBB2A342F3D3F0BD72B6FEE7CE
:1012A00010B500F0A9FE03493420C860BDE8104025
:1012B00000F058BE0020024006490020C8610648E0
:1012C000016941F004010161016941F040010161DE
:1012D00070470000A010002000200240064A0021B4
:1012E000D16106490A6942F002020A61486108694F
:1012F00040F0400008617047A0100020002002402C
:10130000044B0022DA61044A136943F001031361BC
:1013100001807047A01000200020024010B5A0F10D
:101320000063B3F5002F03D812B109B1002305E023
:10133000002010BD30F8014BCC545B1C9342F9D314
:10134000012010BD14480022C168CB06134904D502
:10135000CA6942F00202CA611022C3685B0705D560
:10136000CB6943F00103CB6142F00402C369DB07A0
:1013700007D0CB6943F00403CB61C16921F00101BF
:10138000C161A2F58071013901D0C2607047C169A5
:1013900021F00101C161704700200240A01000202F
:1013A00070B5054600F042FF0646114C09E0681C86
:1013B00007D025B100F03AFF801BA84201D90320D5
:1013C00070BDE068C007F2D1E068800601D520203A
:1013D000E060E068C00605D4E069C00702D1E068BB
:1013E000400703D5FFF7AEFF012070BD002070BDA0
:1013F000002002402DE9F04186B005460024A0F10E
:101400000060174688460094B0F5002F11D887B1C8
:10141000B8F1000F0DD000F0EFFD01200194CDE9EF
:10142000035011493420C860694601A800F046FD08
:1014300014E0002006B0BDE8F08100BF38F81420A9
:1014400005EB440116460023012000F095FD35F818
:101450001400B04201D00120ECE7641CBC42EDD383
:1014600000F080FD0098E5E7002002400021084AD6
:10147000082801D90020704702EB8000054A02E0ED
:1014800050F8203B19449042FAD3C8087047000036
:10149000FC0A0020FC0B002070B504461046002317
:1014A0004AF2010510E000BF14F8012B5040002261
:1014B000C60702D085EA500000E04008521C92B2F4
:1014C000082AF5D35B1C9BB28B42EDD370BD0000A4
:1014D000F8B50024009490F824202546012A12D063
:1014E000012280F824204A681F23072A0DD20668AB
:1014F000776B521E02EB820293409F430B6893402E
:101500001F43776319E00220F8BD06680D2A0AD24E
:10151000376BD21F02EB820293409F430B689340CC
:101520001F43376309E0F76A0D3A02EB82029340EA
:101530009F430B6893401F43F7620A6807230668BE
:101540000A2A0AD3F7680A3A02EB420293409F4301
:101550008B6893401F43F76008E0376902EB420253
:1015600093409F438B6893401F4337610A68102A5A
:1015700001D0112A20D1124B02689A4217D19368E8
:101580001B0219D4936843F400039360096810297F
:1015900012D10C490C4A0968B1FBF2F101EB81014F
:1015A000490000E0491E00910029FBD104E0816A56
:1015B00041F020018162012480F824502046F8BDCA
:1015C000002401405803002040420F00704770473C
:1015D000704700002DE9F04104004FF000057FD076
:1015E000A06A002628B9E66284F82460204600F04C
:1015F00081F82046FFF7B4FAA16AC90600D420B1E9
:10160000A06A40F01000A0626AE0A16A21F488514B
:1016100041F00201A162334923688B42E16904D1A0
:10162000B1F5402F01D14FF40021277B4FF4807C8E
:1016300041EA470261680A43A168614508D001296F
:1016400006D0002194F814E0BEF1010F02D00AE0A8
:101650006146F7E7C7B1A76A47F02007A762E76AC4
:1016600047F00107E7625F6827F469470F435F604F
:10167000236899681C4F394011439960A1686145FE
:101680000BD0012909D00CE0DFF860E0A7690EEB70
:1016900047370F4347F40061E5E7218A0D05A5F5BB
:1016A00080152168CB6A23F470032B43CB62216839
:1016B00089680F4B1940914208D1E662A16A21F076
:1016C000020141F00101A162BDE8F081A06A20F0B1
:1016D000020040F01000A062E06A40F00100E06209
:1016E0000120F1E7003C0140FDF7E1FF00E0FFFFD2
:1016F000FE0E1FFFF0B585B0002605460096019648
:10170000029603960068214988423DD120498869A4
:1017100040F400708861886900F400700490886962
:1017200040F010008861886900F01000049088691A
:1017300040F00400886188690F24032700F004004A
:10174000CDE9004704906946124800F069FCCDE9F4
:1017500000476946104800F063FC114C0F48C4E98B
:1017600000068020C4E90260800020618000606182
:101770002020A0613803E061204600F017FB08B18B
:10178000FFF78CFD2C62656205B0F0BD00240140BE
:101790000010024000100140000801400800024013
:1017A0002C0C00202DE9F047894604463B4900688F
:1017B0003B4F0E1D9046884201D0B84207D1306899
:1017C00010F4702F03D001252846BDE8F08794F867
:1017D000240001280CD0012084F824002046FFF7C3
:1017E00023FA05004FF0000004D084F82400EBE752
:1017F0000220EAE7A16A40F60162914341F4807158
:10180000A1622168B94218D1326812F4702F14D045
:10181000A16A41F48011A1623168490505D5A16A28
:1018200021F4005141F48051A162A16AC9040AD592
:10183000E16A21F00601E16206E0A26A22F4801268
:10184000A2624968E9E7E06284F82400216A154849
:101850008862216A1448C862216A144808632168B2
:101860006FF0020008602068816841F48071816037
:10187000216843464A464C31206A00F0D5FA206878
:101880008168C1F342410729816803D041F4801186
:10189000816099E741F4A001FAE7000000240140CB
:1018A00000280140B70B00081F0C0008050C0008B9
:1018B00070B54379012B1CD00126467102230371B8
:1018C00005682B6802F0100440F6FE72A2409343B4
:1018D000D1E900210A43A2401A432A6001680A683C
:1018E000C023A3409A430A60067100214171084653
:1018F00070BD022070BD70B5040003D020790025B2
:1019000010B105E0012070BD6571204600F008F8B7
:1019100002202071256101202071002070BD00008F
:1019200000B585B0002100910191029103910068FA
:101930000E49884218D10E48C16941F00051C16179
:10194000C16901F000510491816941F00401816194
:101950008069694600F00400049030200090032064
:101960000190044800F05CFB05B000BD007400402D
:10197000001002400008014018B504680094006897
:10198000104421B1143000900360002018BD0830CD
:10199000F9E770B54279012A1ED001224271022373
:1019A00003710468266801F0100302FA03F52E4360
:1019B00026600029016811D00C6804F470153C24DD
:1019C0009C40A54203D14B6843F002034B60027177
:1019D00000214171084670BD022070BD0B68C3F341
:1019E00083030F2BF3D14B6843F00103EEE710B5EF
:1019F00090F821100022022905D00421816380F88B
:101A00002020012010BD01680B6823F00E030B603D
:101A100001680B6823F001030B6090F84030C46B41
:101A2000012101FA03F3636080F8211080F820207F
:101A3000104610BD2DE9F05F90F821100024022916
:101A400003D004218163012485E001680A6822F043
:101A50000E020A6001680A6822F001020A603F4E25
:101A60003E4FB215DFF8F4C0DFF8F090DFF8ECA0DD
:101A7000DFF8E8B0DFF8E4E00168783F1301150211
:101A8000ACF1640CA9F15009AAF13C0AABF1280BA6
:101A9000AEF1140E4FF48018B14227D9B9420ED0DE
:101AA000614512D049451DD0514518D0594518D02F
:101AB000714501D1424615E0294EB14201D10122C2
:101AC00010E0274E1436B14201D110220AE0244E14
:101AD0002836B14206D0224A3C32914201D11A4600
:101AE00000E02A461E49091F0A602BE0B94213D0C4
:101AF000614517D0494522D051451DD059451DD0CB
:101B0000714501D142461AE0B14202D14FF08072D4
:101B100015E0134EB14201D1012210E0104E1436EF
:101B2000B14201D110220AE00D4E2836B14206D052
:101B30000B4A3C32914201D11A4600E02A4607493D
:101B400080394A60012180F82110002180F820109E
:101B5000416B01B188472046BDE8F09F80000240FC
:101B6000080402402DE9F05FC16B0A6801680B6848
:101B7000046C4FF0040808FA04F8844D844E854F35
:101B8000DFF814C2DFF81492DFF814A2DFF814B201
:101B9000DFF814E218EA020F65D05FEA437862D5F5
:101BA0000A68920603D40A6822F004020A60DFF889
:101BB000F0814FF48062016808F1140813011402E7
:101BC000414524D9A9420DD0B1420FD0B9421AD013
:101BD000614515D0494515D0514501D1120312E098
:101BE000594501D104220EE0714501D140220AE09D
:101BF0006D4D1435A94206D06B4A2832914201D16D
:101C00001A4600E022466749091F0A6029E0A942F6
:101C100013D0B14215D0B94220D061451BD04945FF
:101C20001BD0514502D14FF4800217E0414502D14B
:101C30004FF0806212E0594501D104220EE0714557
:101C400001D140220AE0584D1435A94206D0564A27
:101C50002832914201D11A4600E022464B49083908
:101C60004A60C16A71E04FF0020808FA04F818EA05
:101C7000020F70D05FEA83786DD50A68920606D4A9
:101C80000A6822F00A020A60012180F82110DFF8B8
:101C900010814FF40072016808F114081301140256
:101CA000414524D9A9420DD0B1420FD0B9421AD032
:101CB000614515D0494515D0514501D1120312E0B7
:101CC000594501D102220EE0714501D120220AE0DE
:101CD000354D1435A94206D0334A2832914201D1FC
:101CE0001A4600E022462F49091F0A6029E0A9424E
:101CF00013D0B14215D0B94220D061451BD049451F
:101D00001BD0514502D14FF4001217E0414502D1DA
:101D10004FF0007212E0594501D102220EE07145E8
:101D200001D120220AE0204D1435A94206D01E4AD6
:101D30002832914201D11A4600E02246134908395F
:101D40004A60002180F82010816A00291CD0BDE87B
:101D5000F05F0847FFE70825A540154214D01A0791
:101D600012D50A6822F00E020A6090F84020C36B78
:101D7000012101FA02F25A60816380F821100021EA
:101D800080F82010016BE0E7BDE8F09F08000240FA
:101D90001C00024030000240440002405800024053
:101DA0006C000240080402401C04024030B560B1DF
:101DB0001A4B026814219A4209D2194B1344B3FBFF
:101DC000F1F18900016417490AE0012030BD134B8D
:101DD0005B421344B3FBF1F1890001640F490839F8
:101DE000C163022180F82110136843F6F0718B4320
:101DF000F0E901142143D0E902452C432143046951
:101E0000214344692143846921431943116000211E
:101E10004163012242770177084630BD0804024041
:101E2000F8FFFDBF0000024070B5044690F82000A6
:101E3000002501280CD0012084F8200094F82160AE
:101E40000020012E06D084F820000225284670BD0F
:101E5000022070BD022684F82160A0632068066815
:101E600026F0010606602046FFF7AAF8E06A00287F
:101E70002068016802D041F00E0106E021F0040163
:101E800001602068016841F00A0101602068016872
:101E900041F001010160D9E770B5044600F0C6F9D0
:101EA0000546601C02D004480078044400F0BEF9E6
:101EB000401BA042FAD370BD4C0300202DE9F0472F
:101EC000054626480F460126017E01290FD0012133
:101ED000814601762868DFF888804CF25034022869
:101EE00008D0A2462046FFF75BFAA8B131E00220F5
:101EF000BDE8F0872046FFF753FA08BB0120FFF743
:101F0000DBF92046FFF74CFAD8F81010064621F00E
:101F10000401C8F810101CE04FF0FF303860AC68C6
:101F200011E02046FFF7DAF95046FFF739FAD8F802
:101F30001010060021F00201C8F8101001D03C601A
:101F400007E004F50064D5E9020100EBC120A042DE
:101F5000E7D8002189F818103046C9E7A010002002
:101F6000002002400348016941F080010161002026
:101F700070470000002002402DE9F05F07461C4832
:101F800088460024017E15461E46012909D00121FC
:101F9000814601764CF2503A5046FFF701FA18B1EB
:101FA00022E00220BDE8F09F012F02D0022F00D0D6
:101FB0000427D346DFF83CA0220128463146FEF72D
:101FC0001FF981B208EB4400FFF79AF95846FFF772
:101FD000E7F9DAF8102022F00102CAF8102018B947
:101FE000641CE4B2BC42E7D3002289F81820D9E788
:101FF000A010002000200240064900200A691206B5
:1020000007D5054A4A60054A4A600969090600D5AC
:10201000012070470020024023016745AB89EFCDC6
:102020002DE9F84FDFF8C891002409F1040A0AF1FC
:10203000040B23460F270BF1040ED1E00125A54028
:1020400006EA0502AA4276D1DFF8A8C14E68A6EBDF
:102050000C0866452BD00DDC032E34D005DC36B3DE
:10206000012E19D0022E2FD11BE0112E16D0122EC8
:102070002AD119E0B8F5881F19D006DCB8F5803FE1
:1020800015D0B8F5801F1FD111E0B8F5001F0ED094
:10209000B8F5041F18D10AE0CB6815E0CB681B1D0A
:1020A00012E0CB6808330FE0CB680C330CE08B6890
:1020B0002BB1012B4FF0080303D0456104E004234A
:1020C00002E0056100E00023FF2A01D8064601E096
:1020D00000F104064FEA840501D9A5F12005D6F8E0
:1020E000008007FA05FC28EA0C0803FA05F548EA1F
:1020F0000508C6F800804D68ED0070D53E4DAE690C
:1021000046F00106AE61AD6924F0030605F0010555
:1021100000953A4D06EB050CDCF80850A607360F83
:1021200007FA06F825EA0805DFF8D480404503D110
:102130004FF0000825E052E0DFF8C880404502D1AA
:102140004FF001081DE0DFF8C080404502D14FF09C
:10215000020816E0DFF8B480404502D14FF00308D2
:102160000FE0DFF8AC80404502D14FF0040808E0F2
:10217000DFF8A080404502D14FF0050801E04FF0A4
:10218000060808FA06F848EA0508CCF808804D6801
:10219000D9F80060ED034D4601D5164300E09643A3
:1021A0002E604D68DAF80060AD03554601D5164340
:1021B00000E096432E604D68DBF80060ED025D465E
:1021C00001D5164300E096432E604D68DEF80060AE
:1021D000AD02754601D5164300E096432E60641C9F
:1021E0000A681646E2407FF429AFBDE8F88F000088
:1021F00000040140000011100010024000000140E6
:1022000000080140000C0140001001400014014092
:1022100000180140001C01408068084000D00120E7
:1022200070470AB1016170470904FBE70148806803
:10223000704700004C030020024881680278114476
:10224000816070474C030020074810B5016841F0D9
:1022500010010160032000F095F8002000F006F85E
:1022600000F03EF8002010BD0020024000B50146FD
:1022700087B00022192000F065F8192000F054F80A
:102280001348816941F400618161806905A900F406
:1022900000600690684600F093F900F0C1F90D491E
:1022A0000D4AB0FBF1F10D48491E0260416040F259
:1022B000E7320021C0E90321816000F0CEFC10B1BB
:1022C000012007B000BD054800F0F6FCF9E700006A
:1022D0000010024040420F00002C0140400F00203F
:1022E0000F4808B5816941F001018161816901F000
:1022F00001010091C16941F08051C161C0690022B2
:1023000000F0805000900F21901E00F01BF805484F
:10231000416821F0E06141F00071416008BD0000BA
:102320000010024000000140002809DB00F01F02FD
:10233000012191404009800000F1E020C0F8001127
:1023400070470000F0B40E4B1B680C46C3F3022329
:10235000C3F10705042D00D90425191D072901D251
:10236000002300E0DB1E012606FA05F1491E21408C
:1023700099409E40761E16403143F0BC02F04EBBA1
:102380000CED00E0064900F0070208684FF6FF0375
:10239000184040EA0220034A1043086070470000DA
:1023A0000CED00E00000FA052DE9F8430546007841
:1023B000354CC00754D0E0690026C00008D4E0695D
:1023C00040F08050E061E069012600F0805000900C
:1023D0002E480168C90512D40168804641F4807115
:1023E0000160FFF723FF074605E000BFFFF71EFF70
:1023F000C01B642823D8D8F80000C005F6D5206A91
:1024000010F4407021D0A98801F4407181421CD0A1
:10241000206A1F49012220F440700A6000220A60ED
:102420002062C00711D0FFF701FF074641F288384C
:1024300008E000BFFFF7FAFEC11B414502D90320A7
:10244000BDE8F883206A8007F4D5206A696820F423
:102450004070084320621EB1E06920F08050E061C6
:102460002878800705D56068A96820F440400843B3
:1024700060602878C00605D56068696920F480002E
:10248000084360600020DBE700100240007000405D
:10249000400442422DE9F0470F46050061D0434E0B
:1024A000306800F00700B84209D2306820F0070019
:1024B00038433060306800F00700B84251D12868D6
:1024C0003B4C810712D5400703D5606840F4E060BB
:1024D00060602878000703D5606840F46050606051
:1024E0006068A96820F0F000084360602878C007A1
:1024F00028D06868012810D02168022810D08907E8
:1025000000292EDA616821F0030101436160FFF7C1
:102510008DFE804641F288390DE021688903EFE79E
:102520008901EDE7FFF782FEA0EB0801494502D9DA
:102530000320BDE8F0876068696800F00C00B0EB2C
:10254000810FEFD1306800F00700B8420BD9306836
:1025500020F0070038433060306800F00700B842D0
:1025600001D00120E5E72878400705D56068E968D3
:1025700020F4E060084360602878000706D56068B2
:10258000296920F4605040EAC100606000F058F80A
:102590006168084AC1F30311515CC84006490860EC
:1025A00006480068FFF762FE0020C2E700200240F4
:1025B00000100240809800085803002050030020BB
:1025C0000F2202600C4A536803F003034360536810
:1025D00003F0F0038360536803F4E063C360526860
:1025E0004FF4E06303EAD20202610448006800F09D
:1025F0000700086070470000001002400020024001
:102600000448054900684968044AC1F30221515C45
:10261000C8407047580300200010024090980008FE
:102620000448054900684968044AC1F3C221515C65
:10263000C8407047580300200010024090980008DE
:1026400012A185B00FC98DE80F0014A0144A0068CC
:1026500004905168134801F00C03042B10D0082B90
:102660000ED1C1F38343C9031DF803000AD5516895
:1026700004AAC1F34041515C0A4A5043B0FBF1F057
:1026800005B0704708494843FAE700000203040513
:10269000060708090A0B0C0D0E0F101001020000AE
:1026A0000010024000127A0000093D002DE9F84FA9
:1026B000040070D02078C04DC00749D06868C0F3CE
:1026C0008100012807D06868C0F38100022809D181
:1026D0006868C00306D52868800339D5606800287B
:1026E000E7D035E06068B0F5803F0BD010B1B0F5B1
:1026F000A02F11D0286820F480302860286820F4AA
:10270000802002E0286840F480302860606890B142
:10271000FFF78CFD06460AE0286840F48020286018
:10272000F0E700BFFFF782FD801B642873D828689C
:102730008003F7D50CE0FFF779FD064605E000BF02
:10274000FFF774FD801B6428F0D828688003F7D455
:1027500020789A4E80074FF001094FF0000839D5D4
:10276000686810F00C0F07D06868C0F38100022879
:1027700009D16868C00306D42868800714D5206989
:10278000012808D110E02069B0B1C6F80090FFF729
:102790004DFD074605E00AE1FFF748FDC01B022892
:1027A000C4D828688007F7D52868616920F0F80048
:1027B00040EAC10028600DE0C6F80080FFF736FD52
:1027C000074604E0FFF732FDC01B022823D8286823
:1027D0008007F7D4207800072CD57948A169D9B1B2
:1027E000C0F80090FFF722FD074604E0FFF71EFD4A
:1027F000C01B02280FD8686A8007F7D571484FF4CC
:10280000FA510068B0FBF1F0009000BF0098411E43
:102810000091FAD20EE080E0C0F80080FFF706FDDC
:10282000074604E0FFF702FDC01B022875D8686A5E
:102830008007F7D42078400760D5E8690027C000FA
:1028400008D4E86940F08050E861E869012700F0A9
:10285000805000905C480168C90513D40168834624
:1028600041F480710160FFF7E1FC824606E000BFA1
:10287000FFF7DCFCA0EB0A0064284ED8DBF8000070
:10288000C005F5D5E06801280AD008B1052813D0A5
:10289000286A20F001002862286A20F0040002E083
:1028A000286A40F001002862E06841F2883B98B154
:1028B000FFF7BCFC82460BE0286A40F00400286267
:1028C000EEE700BFFFF7B2FCA0EB0A0159455AD86A
:1028D000286A8007F6D50CE0FFF7A8FC824605E0E1
:1028E000FFF7A4FCA0EB0A0159454CD8286A8007E1
:1028F000F6D41FB1E86920F08050E861E06988B340
:102900006968C1F38101022944D00228C6F86080B9
:1029100004D0FFF78BFC044638E034E0FFF786FC78
:10292000074604E0FFF782FCC01B02282BD828686A
:102930008001F7D4206AB0F5803F05D16868A168AE
:1029400020F4003008436860D4E90801084369684E
:1029500021F4741108436860C6F86090FFF766FCC4
:10296000044606E025E000BFFFF760FC001B0228DC
:1029700009D828688001F7D51BE000BFFFF756FC97
:10298000001B022802D90320BDE8F88F28688001C7
:10299000F4D40EE00128F7D06868226A00F4803190
:1029A000914204D1616A00F47010884201D0012084
:1029B000EAE70020E8E70000001002400000424281
:1029C00080044242580300200070004070B50400AB
:1029D00009D0606A002540B125616561A56294F85F
:1029E000510040B10CE0012070BD6068B0F5827FFD
:1029F000F4D0E561F2E784F85050204600F040F84A
:102A0000022084F851002068016821F04001016033
:102A1000A088218900F4827001F404410843A1894F
:102A200001F400610843217C01F002010843217D8B
:102A300001F001010843218B01F400710843217F5B
:102A400001F03801084394F8201001F08001084398
:102A5000218D01F40051084321680860A069042118
:102A600001EA1040216848602068C16921F40061D2
:102A7000C1616565012084F85100002070BD00002F
:102A800000B585B000210091019102910391006889
:102A90001349884221D11348816941F480518161F1
:102AA000816901F480510491816941F008018161DB
:102AB0008069694600F008000490282000900220F8
:102AC0000190032003900848FFF7AAFA07484168DD
:102AD00041F0E06141F00101416005B000BD00003E
:102AE0000030014000100240000C01400000014095
:102AF0002DE9F84F044690F8500000271D46164671
:102B0000894601280DD04FF0010B84F850B0FFF733
:102B10008DFB804694F85100BA46012804D0022764
:102B200093E00220BDE8F88FB9F1000F73D0002EBA
:102B300071D0032084F85100C4F854A0C4F8309038
:102B4000A686E686C4F838A0A4F83CA0A4F83EA067
:102B5000C4F844A0C4F840A0A068B0F5004F09D163
:102B60002068016821F0400101602068016841F49B
:102B70008041016020680168490603D4016841F082
:102B800040010160E068B0F5006F606803D030B3C9
:102B9000012E24D041E008B1012E1CD1206B216808
:102BA0000088C86006E020688168890709D5216B24
:102BB0000988C160206B801C2063E08E401EE08687
:102BC00009E0FFF733FBA0EB0800A84202D3681C22
:102BD00001D031E07DB3E08E0028E4D120E0206B0D
:102BE00021680078087306E020688168890709D5A4
:102BF000216B09780173206B401C2063E08E401E1E
:102C0000E0860AE0FFF712FBA0EB0800A84203D31E
:102C1000681C02D010E017E06DB1E08E0028E3D10F
:102C200042462946204601F0BFFA08B120206065DF
:102C3000A06818B106E0FFE7032706E02068C16836
:102C400080680090606D00B1012784F851B084F86D
:102C500050A0384666E77047704710B5040003D0AF
:102C600094F83D0010B107E0012010BD002084F869
:102C70003C00204600F01EF8022084F83D00211D93
:102C8000206801F079FB012084F8460084F83E00BA
:102C900084F83F0084F8400084F8410084F8420042
:102CA00084F8430084F8440084F8450084F83D002B
:102CB000002010BD7047000090F83D10012901D0A0
:102CC00001207047022180F83D100168CA6842F077
:102CD0000102CA6000680E4988420ED00D49884240
:102CE0000BD0B0F1804F08D00B49884205D00B497A
:102CF000884202D00A49884204D1816801F0070164
:102D0000062903D0016841F00101016000207047ED
:102D1000002C014000340140000400400008004045
:102D2000000C0040704770B50446006801694FF020
:102D30000005C943890715D4C168C943890711D45F
:102D4000E91E016101202077206880698007204604
:102D500002D0FFF7E7FF04E000F098F8204600F00B
:102D600096F8257720680169C943490717D4C168D7
:102D7000C943490713D46FF0040101610220207791
:102D80002068806910F4407F204602D0FFF7CAFF18
:102D900004E000F07BF8204600F079F82577206801
:102DA0000169C943090716D4C168C943090712D488
:102DB0006FF008010161042020772068C069800756
:102DC000204602D0FFF7AEFF04E000F05FF8204697
:102DD00000F05DF8257720680169C943C90617D45A
:102DE000C168C943C90613D46FF0100101610820FE
:102DF00020772068C06910F4407F204602D0FFF79A
:102E000091FF04E000F042F8204600F040F82577FA
:102E100020680169C943C90708D1C168C943C90706
:102E200004D1891E0161204600F032F82068016952
:102E3000C943090609D4C168C943090605D46FF01E
:102E4000800101612046FFF706FF20680169C94340
:102E5000490609D4C168C943490605D46FF0400149
:102E60000161204600F01EF820680169C943890607
:102E70000BD4C168C943890607D46FF020010161F2
:102E80002046BDE87040FFF7E7BE70BD7047704751
:102E900000680349884201D1FFF7CEB970470000AE
:102EA000002C01407047704710B504460068416926
:102EB00094F83D20C1F3C011212A0BD151B14169D1
:102EC00021F080014161606B08B1FEF790FD204662
:102ED00001F033FB2068416994F83E20C1F3801172
:102EE000222A0BD151B1416921F040014161A06B0F
:102EF00008B1FEF77CFD204601F007FB002010BD65
:102F000070470000F8B5026804461068D16853693C
:102F100010F00F0F4FF0000553D003F0010601F43D
:102F2000907737435FD0C20705D0CA0503D5226C1E
:102F300042F001022264420705D5DA0703D0226C71
:102F400042F002022264820705D5DA0703D0226C20
:102F500042F004022264020707D501F02002324346
:102F600003D0226C42F008022264226C002A34D082
:102F7000800604D5880602D5204601F0E7FA2068CD
:102F80004069216CC0F38010090700D430B320469B
:102F900001F0BBFA2068416949061BD5416921F05F
:102FA00040014161A06BA8B158494163A06BFEF795
:102FB00041FD002811D0A06B416B01B0BDE8F0408D
:102FC000084783060FD58B060DD52046BDE8F8408F
:102FD00001F0BCBA2046FFF793FFF8BD2046FFF78B
:102FE0008FFF2564F8BD266B2023012E52D1C60623
:102FF00050D5CE064ED510685068009050694006F6
:103000002AD5A16B086840680004000CEAD0A68DA0
:103010008642E7D9E0858869202818D0D06820F456
:103020008070D0602068416921F001014161206811
:10303000416921F04001416184F83E3025632068F8
:10304000C16821F01001C160A06BFEF7D0FCA08D1B
:10305000E18D401A81B219E0A08DE18D401A81B254
:10306000E08D0028BED00029BCD0D06820F490703C
:10307000D0602068426922F00102426184F83E304B
:1030800025632068C26822F01002C2602046FFF764
:103090000AFFF8BD05062BD50D0629D594F83D008D
:1030A0002128F6D1A068B0F5805F01D12069B0B1C8
:1030B000206A411C2162216800784860E08C401E33
:1030C0000004000CE084E4D12068C16821F0800194
:1030D000C1602068C16841F04001C160F8BD206A4C
:1030E0000088C0F308005060206A801C2062E5E779
:1030F0004006F3D54806F1D5D168204621F04001BD
:10310000D16084F83D3000F08DFAF8BD0544000828
:1031100070B5040004D094F83D00002510B106E01D
:10312000012070BD84F83C50204600F023F8242094
:1031300084F83D002068C16821F40051C160204638
:1031400001F060FA2068016921F490410161206872
:10315000416921F02A0141612068C16841F40051B0
:10316000C1602564202084F83D0084F83E000020E2
:1031700070BD00002DE9F04786B00025009501954F
:10318000029503950446DFF84CC203689248022179
:103190000322102680274FF48068634555D1836948
:1031A00043F480438361836903F480430493836918
:1031B00043F0040383618069DFF8209200F004008B
:1031C00004900802CDE90001039269464846FEF7E3
:1031D00027FFCDE90085694648460295FEF720FFA6
:1031E000DFF800827E4940464FF4005AC0E90015DE
:1031F000C0E90257C8F81050C8F81450C8E9065A78
:10320000B946FEF7D3FD08B1FEF748F8754F74488C
:10321000C4F8388044371438C8F824403860C7E907
:103220000165C7E903957D61C7E9065A3846FEF78F
:10323000BDFD08B1FEF732F86763002205212520A5
:103240007C62FFF77FF8252063E0DFF89CC16345CF
:1032500064D1C36943F40033C361C36903F4003329
:103260000493836943F0200383618069DFF87C81E4
:1032700000F0200004902020CDE90001039269466F
:103280004046FEF7CDFE4020CDE9000569464046A8
:103290000295FEF7C5FE5648416841F0E06141F0F5
:1032A00008014160DFF83C814D4908F1880840463B
:1032B0001431C0E90015C0E90257C8F81050C8F829
:1032C0001450C8F81850B946C8F81C50FEF76EFDE7
:1032D00008B1FDF7E3FF434F4148C4F83880CC37CD
:1032E0002830C8F824403860C7E90165C7E903956C
:1032F0007D61BD613846FD61FEF758FD08B1FDF7FF
:10330000CDFF67630022052126207C62FFF71AF8B3
:103310002620FFF709F806B0BDE8F087DFF8D4C033
:103320006345F8D1C36943F48023C361C36903F4DF
:1033300080230493836943F0080383618069CDE9A6
:10334000008100F00800CDE90320DFF8AC80694679
:103350004046FEF765FE4FF40060CDE90005694682
:1033600040460295FEF75CFEDFF890801C4940461F
:103370002839C0E90015C0E90257C8F81050C8F84C
:1033800014504FF4805AC8E9065AB946FEF70EFDAC
:1033900008B1FDF783FF194F1148C4F8388044374E
:1033A0003C38C8F824403860C7E90165C7E903958F
:1033B0007D61C7E9065A3846FEF7F8FC08B1FDF70B
:1033C0006DFF67630022052127207C62FEF7BAFFAC
:1033D00027209EE70038014000100240000801400D
:1033E00058000240A80D0020004400400014014095
:1033F0000000014000480040000C0140B80E0020D1
:103400002DE9F84F044690F83E009A4616460D46C0
:10341000202853D1FDB1F6B194F83C0001284DD0DD
:10342000012084F83C0000272764222084F83E0015
:103430002763FEF7FBFEA6858146E685A0684FF46C
:103440008058404501D1206940B12E465FF000050B
:1034500084F83C7027E00120BDE8F88F0026F7E7EC
:103460004B46002220212046CDF800A001F05EF955
:1034700008B10320F0E726B1A06840451BD038B161
:1034800008E020684068C0F3080025F8020B07E058
:10349000206980B12068406800F07F0006F8010BC9
:1034A000E08D401EE085E08D0028D9D1202084F8F1
:1034B0003E000020D0E720684068EFE70220CBE71D
:1034C00090F83E30202B0ED159B152B190F83C30DB
:1034D000012B08D0012380F83C300023036301F066
:1034E000EDB8012070470220704770477047000018
:1034F0002DE9F843044690F83D001F4616460D4658
:1035000020284CD1C5B1BEB194F83C00012846D06A
:10351000012084F83C004FF00008C4F840802120CE
:1035200084F83D00FEF782FEA6848146E684A0680A
:10353000B0F5805F03D004E00120BDE8F883206986
:1035400028B12E465FF0000584F83C800EE000268E
:10355000FAE78021204601F0E9F8A0B9AEB116F8EB
:10356000010B21684860E08C401EE084E08C4B46F3
:103570004FF0000200970028EBD14FF040012046A9
:1035800001F0D4F830B10320D7E735F8020BC0F3CF
:103590000800E6E7202084F83D000020CDE7022067
:1035A000CBE7000070B5044690F83D00202830D1EC
:1035B00069B362B394F83C0001282AD0012084F852
:1035C0003C002162A284E28400252564212084F845
:1035D0003D00636B10489862636B1048D862636B60
:1035E0000F481863606B134645632668606B321D95
:1035F000FEF71AFC21686FF04000086084F83C5028
:103600002068416941F080014161002070BD0120C6
:1036100070BD022070BD0000D344000801450008C1
:103620001544000870477047FEE700F097FC00F073
:1036300025FC642002F02AFDF7E70000FEB5002417
:1036400036480094019434490294016089158160E0
:10365000012505730475082606614FF46021446056
:10366000C161FDF7B7FF08B1FDF718FECDE90045D0
:103670000324694629480294FDF72AFF08B1FDF7A3
:103680000DFE00950225694624480195FDF720FFAF
:1036900008B1FDF703FECDE9005469461F48FDF768
:1036A00017FF08B1FDF7FAFD0420CDE90040694697
:1036B0001A48FDF70DFF08B1FDF7F0FD0A20009054
:1036C0000520019069461548FDF702FF08B1FDF796
:1036D000E5FD0B2000900620019069460F48FDF79C
:1036E000F7FE08B1FDF7DAFD0C20009007200190ED
:1036F00069460A48FDF7ECFE08B1FDF7CFFD0D2045
:10370000CDE9000669460548FDF7E2FE002801D034
:10371000FDF7C4FDFEBD000000240140FC0B0020AD
:103720001CB50024104900940E4801940860084616
:10373000FEF7E1F808B1FDF7B1FD009400226946FB
:1037400009480194FEF7B4F808B1FDF7A7FD10226F
:1037500069460548FEF7ACF8002801D0FDF79EFD4C
:103760001CBD000000740040700C0020214808B50A
:10377000416941F0010141614069002200F001000E
:10378000009005210B20FEF7DDFD0B20FEF7CCFDA0
:10379000002205210C20FEF7D5FD0C20FEF7C4FD0C
:1037A000002205210D20FEF7CDFD0D20FEF7BCFD0A
:1037B000002205210E20FEF7C5FD0E20FEF7B4FD08
:1037C000002205210F20FEF7BDFD0F20FEF7ACFD06
:1037D000002205211020FEF7B5FD1020FEF7A4FD04
:1037E000002205211120FEF7ADFDBDE808401120A3
:1037F000FEF79ABD0010024000B58FB000208DF892
:1038000000008020ADF82000ADF8280007480C909B
:103810001C20ADF8340006480B9006480E90034873
:103820006946001FFDF742FB0FB000BD1C010020E0
:10383000F4030020DC0C002070B5C2B000253595E3
:1038400035A8369502F041FC484C0121E0623795DD
:1038500037A8389502F045FC20633995012139A835
:103860003A9502F03EFC60633B9501213BA83C95F4
:1038700002F037FC3E4DA0630022D5E90001CDE9FE
:103880003D0101213DA802F0CFFC6062D5E90201B3
:10389000384ECDE93F0101213FA8326802F0C4FC57
:1038A0001035A06295E80F0031AD85E80F000021CA
:1038B00031A802F0F7FB2E4920621C222031684615
:1038C000FCF7AEFC2C49684602F084FC2849606095
:1038D0001C223C3107A8FCF7A3FC002107A802F03A
:1038E00079FC2349A0601C2258310EA8FCF798FCF3
:1038F00000210EA802F06EFC1D49E0601C2274310C
:1039000015A8FCF78DFC15A8316802F063FC184976
:1039100020611C2290311CA8FCF782FC00211CA80D
:1039200002F058FC124960611C22AC3123A8FCF75C
:1039300077FC002123A802F04DFC0D49A0611C2258
:10394000C8312AA8FCF76CFC00212AA802F042FC2E
:10395000E0614FF49661606A02F086FC4FF47A7180
:10396000A06A02F081FC42B070BD0000CC000020D3
:103970008C960008EC020020A80F00202DE9F04FE3
:1039800085B000254C480095019502950395816905
:1039900041F010018161816901F010010491816998
:1039A00041F004018161816901F0040104918169A0
:1039B00041F040018161816901F040010491816918
:1039C00041F008018161816901F008010491816978
:1039D00041F0200181618069DFF8E09000F0200073
:1039E0004FF4A0440490012221464846FEF719FCFA
:1039F000DFF8CCA04FF47047002239465046FEF75E
:103A000010FC002240F204712E48FEF70AFCDFF899
:103A1000B8B04FF40048012241465846FEF701FC79
:103A2000009401240226CDE90246694648460194E5
:103A3000FEF7F6FA4FF42040CDE9000569460294FE
:103A40004846FEF7EDFACDE9007402946946504607
:103A50000394FEF7E5FA4FF4E060CDE90004029428
:103A6000694618480394FEF7DBFA4FF47840CDE935
:103A70000005694602941348FEF7D2FA4FF4E0704D
:103A8000CDE90005694602941048FEF7C9FA032003
:103A9000CDE90240CDE9008469465846FEF7C0FAF8
:103AA0000420CDE90004CDE9024669460548FEF749
:103AB000B7FA05B0BDE8F08F0010024000180140D1
:103AC000000C0140001401400008014000100140BA
:103AD00070B5022060F307040A4B4FF4E1321D4633
:103AE0002146094801F0B4FC214603202B4660F32F
:103AF0000701BDE8704004484FF41652001D01F064
:103B0000A7BC00001D630008EC020020104810B59F
:103B10000E4901604FF48271416000214FF4006250
:103B2000C0E9021292100161C0E905120822C0E941
:103B30000721416281620A21C162FEF747FF002826
:103B400003D0BDE81040FDF7A9BB10BD0030014017
:103B5000840C002005498166054941660549C16616
:103B6000054901678022054903F0B6BCF548000805
:103B7000D9480008B1800008C98000081C10002046
:103B800010B50E4C0C480C2120604FF4E130606001
:103B90000020A060E060C4E90401A061E06120466B
:103BA000FFF7B6FA08B1FDF779FB2068C16841F06C
:103BB0001001C16010BD000000380140DC0C002085
:103BC00010B50E4C0C480C2120604FF4165060606C
:103BD0000020A060E060C4E90401A061E06120462B
:103BE000FFF796FA08B1FDF759FB2068C16841F06C
:103BF0001001C16010BD000000440040200D0020F5
:103C000010B50E4C0C480C2120604FF4E130606080
:103C10000020A060E060C4E90401A061E0612046EA
:103C2000FFF776FA08B1FDF739FB2068C16841F06B
:103C30001001C16010BD000000480040640D00206C
:103C400073B54178022901D21D4C00E01D4C002CB7
:103C50002ED0BDF80420C2F30B0349B1012907D0CF
:103C6000022901D0032923D1022922D9002121E0F0
:103C7000ADF80430007810B14FF4304001E04FF45B
:103C800040501843104EADF804004FF40045002298
:103C900029463046FEF7C5FA4FF6FF73022201A906
:103CA0002046FEF725FF012229463046FEF7B9FAE5
:103CB0007CBD102100222046FDF75EFE7CBD000089
:103CC000840C0020700C002000080140054830B42E
:103CD000017881F00102027030BC04210248FEF735
:103CE000A0BA0000CC00002000140140FEE7FEE76F
:103CF00000F046FE00F00EFE642002F0C7F9F7E780
:103D00002DE9F04146780F4F05460C4657F836002E
:103D1000FCF726FB07EBC6014968FCF7C9FAFCF77C
:103D20003CFC81B214F0FF4F05D00748844203DB0E
:103D30004FF6FF7100E000212846BDE8F041FFF793
:103D40007FBF00004C0000200000A0412DE9F84F8B
:103D50000446406A0F468179022903D2B0F8070071
:103D600041BA06E0D0F80710807A09BA21F0FF01C5
:103D700001438DB2216B3A78884601EB02109146DF
:103D8000008886B22846FCF7F6FB082303EB0912ED
:103D9000824658F80210FCF757FC57D83A780423AB
:103DA000216B03EB021250468958FCF743FC4DD8B7
:103DB0004FF480518F1C264A8E4201D1158039E084
:103DC00041F20103981C9E4201D1558032E000234C
:103DD000BE4222D1F12D2DD1118840F2E67040F281
:103DE0002255814208D15688AE4205D1938022697E
:103DF0000821204690471DE0814205D05388AB4200
:103E000002D04FF4407006E0814202D04FF480703F
:103E100001E04FF4007090800CE086420AD1F02D52
:103E200008D19380538013800093A56804236A46C9
:103E30002046A847A56801B02046AC46BDE8F04F33
:103E4000034A0223121D41F228016047BDE8F88FA2
:103E500010010020074D084C4FF0FF363146686BCB
:103E600002F086F90028F9D120686421C26A9047DF
:103E7000F4E70000CC000020F00200202DE9F04122
:103E8000202002F09DFE050001D104F0DFF94FF47F
:103E9000187002F095FE060001D104F0D7F9202138
:103EA0002846FCF7D6F92949002000BF00EB400264
:103EB00002EB0012401C0B6880B246F82230082842
:103EC000F4D30024DFF88880224F01E0042C02D2D2
:103ED000C4F1070000E0201F80B2FDF7C7FAFCF72D
:103EE0004AFB4146FCF73CFA3946FCF7E1F945F854
:103EF0002400B84200DC002004EB440101EB041173
:103F000006EB810245F824000146104604F09DF8B6
:103F100045F8240005EB840004220021FDF7AAF9EE
:103F2000641CA4B2082CD1D30B4810222B46006885
:103F300000218069D0F85842A047284604F086F94D
:103F40003046BDE8F04104F081B9000000000020D7
:103F5000EF39B03B5C1DC03EEC02002070B5002480
:103F6000124E134D01E0052C01D2304600E01148FD
:103F7000052C03D24FF40061A14002E0621F4021F2
:103F8000914089B2FEF748F968B1002228682146BD
:103F90008069D0F844329847002803D0641CA4B24A
:103FA000082CE0D370BD0122F0E7000000140140AE
:103FB000EC020020001001402DE9F04188B0002003
:103FC000ADF80400ADF808008DF80000202002F0E4
:103FD000F7FD06007ED02021FCF73BF9424D00247E
:103FE0006A46286821468069D0F83C3298479DF897
:103FF000000004F10807BDF80410B8400843ADF80C
:10400000040028686A4621468069D0F82C32984717
:104010009DF80000BDF80810B8400843641CA4B225
:10402000ADF80800082CDBD3DFF8C080022344463B
:10403000D8F8000001AA41F204018768B8470A20B5
:1040400002F024F82068022302AA846841F20501E4
:10405000A0470A2002F01AF825484FF0FF3203A9C2
:10406000006A04F0B3FD03AC07AF05E004220021B1
:104070002046FDF7FFF8241DBC42F7D3D8F8000016
:1040800044461023876803AA41F20601B8470A2074
:1040900001F0FCFF28681022334680690021D0F827
:1040A0005072B847206820233246876841F20E01DB
:1040B000B8470A2001F0EAFF2868082233468069E1
:1040C0000021D0F86052A8472068102332464FF4F0
:1040D000815100E001E08468A047304604F0B6F862
:1040E00008B0BDE8F0810000EC02002018010020BB
:1040F000CC0000202DE9F04106460C465F2002F07E
:104100005FFD050016D05F222146FCF789F82C469A
:1041100005F15C0705E0042200212046FDF7AAF81E
:10412000241DBC42F7D3B46860232A4641F2300113
:104130003046A0472846BDE8F04104F087B80000AB
:1041400010B5406A8179022903D2B0F8070041BA5C
:1041500006E0D0F80710807A09BA21F0FF01014388
:1041600089B20D48F12915D1103060220B4904465F
:10417000FCF756F804F036F8602208490848FDF7C5
:1041800039F904F04FF8074821468068BDE810402F
:10419000FFF7B0BF10BD0000E40300206C0000205A
:1041A00000F807081001002038B50B4600920446BD
:1041B0000022802100F008F8002804D0606D40F053
:1041C00020006065032038BD2DE9F8431E46914666
:1041D00088460446089DFEF729F8401B351AFEF76D
:1041E00025F8074625480068C0F3CB30684338E01F
:1041F000701C37D0FEF71AF8C01BA84203D215B1C5
:10420000009860B32CE02068416821F0E001416033
:104210006068B0F5827F0BD1A068B0F5004F02D086
:10422000B0F5806F04D12068016821F04001016081
:10423000A06AB0F5005F09D12068016821F400513F
:1042400001602068016841F400510160012084F898
:104250005100002084F850000320BDE8F8830025B9
:10426000401E00902068816838EA010004D00021D7
:104270004945BDD10020F0E70121F9E758030020AE
:104280000B4C0C4D4FF0FF364FF496673146206BC8
:1042900001F06EFF0028F9D1606A02F013F8286877
:1042A000416988473946606A01F0DEFFEEE70000A9
:1042B000CC000020180100200446204603F0B4FD85
:1042C000FBE7000010B5502080F31188BFF34F8F3B
:1042D000BFF36F8F04F00AFF18B104494FF080500C
:1042E0000860002080F3118810BD000004ED00E09C
:1042F00030B595B028216846FBF7ABFF14210AA81A
:10430000FBF7A7FF18210FA8FBF7A3FF0121080463
:10431000CDE900100025029502240491CDE9074063
:104320004FF4E01009906846FEF7C0F908B172B684
:10433000FEE70AA90F2081E831004FF48060CDE943
:104340000D0502210AA8FEF7A5F808B172B6FEE72E
:104350004FF4004011900F940FA8FEF725F80028A5
:1043600001D072B6FEE715B030BD70470148FEF7C8
:10437000DABC0000400F0020F0B502681C4B1D4D58
:104380001D4E1E4F1E4C4FF0804C984209D0A0424B
:1043900007D0604505D0A84203D0B04201D0B84252
:1043A00004D122F0700E4A6842EA0E02984209D007
:1043B000A04207D0604505D0A84203D0B04201D04A
:1043C000B84203D122F44075CA682A434D6922F0ED
:1043D00080022A4302608A68C2620A688262984246
:1043E00001D0A04201D10969016301214161F0BD01
:1043F000002C01400004004000080040000C004078
:104400000034014010B5406A0021C185C184FEF727
:1044100077FD10BD70B5446A2068406994F83D107E
:10442000C0F3C0100025212904D118B1E58420462D
:1044300000F083F82068406994F83E10C0F38010C3
:10444000222904D118B1E585204600F05EF8206CE1
:1044500040F0100020642046FEF752FD70BD10B5FC
:104460000146406A0968096889061BD40021C18594
:104470000168CA6822F48072CA6001684A6922F041
:1044800001024A6101684A6922F040024A61202122
:1044900080F83E10016B012904D10168CA6822F03E
:1044A0001002CA60016B012902D0FFF71EF810BD8F
:1044B000818DFEF7F8FC10BD10B5406A016B012933
:1044C00002D0FFF713F810BD818D4908FEF7EBFC11
:1044D00010BD10B50146406A0968096889060CD408
:1044E0000021C18401684A6922F080024A610068A3
:1044F000C16841F04001C16010BDFFF793F810BDE5
:1045000010B5406AFFF78FF810BD0168CA6822F441
:104510009072CA6001684A6922F001024A61016B27
:10452000012904D10168CA6822F01002CA60202162
:1045300080F83E100021016370470168CA6822F0CC
:10454000C002CA60202180F83D10704708B590F87D
:104550003E10222901D0022008BD82684FF480530A
:104560009A4201D1016921B1816A9A421BD04AB1B4
:104570000AE00268816A5268C2F308020A80816A0E
:10458000891C08E0026972B10268526802F07F0279
:104590000A70816A491C8162C18D491E0904090C97
:1045A000C18503D019E002685268F1E70168CA6862
:1045B00022F02002CA600168CA6822F48072CA60D0
:1045C00001684A6922F001024A61202180F83E1008
:1045D000016B012903D0FEF788FF002008BD0021F0
:1045E00001630168CA6822F01002CA6001680A68A3
:1045F000D20602D50A6849680091818DFEF753FC06
:10460000EBE7000070B5044600680169E26821F438
:104610004051114301612169A06808436169084361
:104620002168CA6841F20C639A430243CA60206859
:104630004169A26921F44071114341611E4920681A
:10464000884202D1FDF7ECFF01E0FDF7D9FF00EB56
:10465000C00101EB0012606864218000B2FBF0F33E
:10466000B3FBF1F36FF018067343B2FBF0F5B2FB46
:10467000F0F605EB8305322303EB0515B5FBF1F5E9
:10468000B6FBF1F605F0F00505EB0615B2FBF0F60A
:10469000B2FBF0F0B0FBF1F06FF01802504306EB04
:1046A000800003EB0010B0FBF1F0216800F00F0078
:1046B0002844886070BD00000038014038B5816230
:1046C00082850025134604460564222084F83E00B6
:1046D000A26B13489062A26B1248D062A26B124880
:1046E0001063A06B0A4645632168A06B091DFDF7A6
:1046F0009BFB206801684168009184F83C50C168C8
:1047000041F48071C1602068416941F0010141615B
:104710002068416941F040014161002038BD00003E
:104720005F440008B9440008154400082DE9F04131
:10473000984617460E460446069D1DE0681C1BD091
:104740002DB1FDF773FDA0EB0800A84214D9206835
:10475000C16821F4D071C1602068416921F0010174
:104760004161202084F83D0084F83E00002084F858
:104770003C000320BDE8F0812068006836EA0000B4
:1047800004D00020B842D9D00020F3E70120F9E797
:1047900038B5124800680168C943C90618D40168D1
:1047A00040680F4C0090206868B10C48FEF77CFB15
:1047B0000C4920680968028D4968511A4185416A8F
:1047C0000648FEF77DFE0848006808B101F0A8FC25
:1047D000BDE838400148FEF795BB0000DC0C002026
:1047E00018010020A80D0020FC00002038B5134857
:1047F00000680168C943C9061BD401684068104CB1
:104800000090206880B10D48FEF74EFB0D4800680F
:104810004068C0F1FD0120684269C2F80011416999
:10482000FD220648FEF74CFE0748006808B101F07B
:1048300077FCBDE838400148FEF764BB200D00203E
:10484000F0020020300E00200001002038B513488F
:1048500000680168C943C9061BD401684068104C50
:104860000090206880B10D48FEF71EFB0D480068DF
:104870004068C0F1FD0120684269C2F80011416939
:10488000FD220648FEF71CFE0748006808B101F04B
:1048900047FCBDE838400148FEF734BB640D0020FA
:1048A000EC020020B80E002004010020074D084C47
:1048B0004FF0FF363146A86B01F05AFC0028F9D1C1
:1048C00020686421C26A9047F4E70000CC00002011
:1048D000EC020020FEE7000010B50C460A46014637
:1048E00001230348FEF78CFD00B10024204610BDD3
:1048F000200D002010B50C460A4601464FF6FF7306
:104900000348FEF7F5FD00B10024204610BD00006D
:10491000200D00207CB51849D1E90001CDE9000146
:10492000102002F04DF9050001D103F08FFC0020AA
:1049300028606860A860E860104808222B4600687C
:1049400000218069D0F86042A04700244FEA0D069C
:1049500005EB840004220021FCF78CFC55F82410A0
:1049600006EB4400FFF7CCF9641CA4B2042CEFD38F
:10497000284603F06BFC7CBD84960008EC02002006
:104980002DE9F84300208DF8000006460446DFF8C4
:104990005490154D01E0042C01D2484600E0134824
:1049A000042C804603D24FF48050A04003E0211F26
:1049B0004FF48070884087B2286831196A46806950
:1049C000D0F82C329847002809D09DF800203946AD
:1049D0004046FDF726FC641CA4B2072CDBD3BDE8DF
:1049E000F8830000000C0140EC020020001401409C
:1049F0007CB5044600201D46164600290BD0491EF2
:104A0000CDE90041044B6A462946304600F0E8F8FB
:104A1000009A002111707CBD0F5300080907090E90
:104A2000002804DB00F1E02080F80014704700F05B
:104A30000F0000F1E02080F8141D704702E008C864
:104A4000121F08C1002AFAD170477047002001E008
:104A500001C1121F002AFBD1704700002DE9FF5F42
:104A600082B00021DDE90430020DDDF840B00343DF
:104A700018D044F61050A2F2FF3242431514119898
:104A800001281FD0A5EB0B00401C5FEA000A4FF085
:104A900000064E4FDFF83891B046504615D5CAF1A2
:104AA000000413E0119801244AA3012801D16FEA00
:104AB0000B010298119AC0E90031C0E9024206B028
:104AC000BDE8F09FCBF10000DFE704460021404A3B
:104AD000491842EB0450CDE9001012E0E00707D07E
:104AE00032463B4640464946FBF73AFF80468946F8
:104AF00032463B4610461946FBF732FF06460F4644
:104B00006410002CEAD1DDE90401DDE90023BAF1EB
:104B1000000F06DAFBF724FF42464B46FBF720FF67
:104B200005E0FBF799FC42464B46FBF795FC044633
:104B30000E460022284BFBF79DFF03D84FF0FF30B5
:104B4000014607E00022254B20463146FBF761FE77
:104B5000FBF778FF102409E0002C0ADB0A2200236F
:104B6000FBF792FD039B30321A55641E50EA010296
:104B7000F2D1641C039AC4F111031444119A012A5E
:104B800003D0012208430DD10AE0084304D00020DD
:104B90004FF0110B119072E7A3EB0B056D1E0DE0AA
:104BA0005B4504DD4FF0000205F1010504E003DA86
:104BB0004FF00002A5F10105002AECD002981199EE
:104BC000C0E90231C0E9004579E700000000144067
:104BD0000000F03F300000000000F0430000E03F24
:104BE0002DE9FF4F95B09B468946064600250FE20A
:104BF000252877D100242746F84A0121059400E0B2
:104C0000044316F8013F203B01FA03F01042F7D1AC
:104C100030782A2811D06FF02F033078A0F13002BD
:104C2000092A16D8059A44F0020402EB820203EB2B
:104C300042021044761C0590EFE759F8042B0592C8
:104C4000002A03DA504244F40054059044F0020470
:104C5000761C30782E2816D116F8010F44F0040483
:104C60002A280DD06FF02F023078A0F13003092BE5
:104C700009D807EB870302EB4303C718761CF3E759
:104C800059F8047B761C30786C280FD006DC4C2851
:104C900017D068280DD06A2814D104E0742810D0E9
:104CA0007A280FD10DE044F400140AE044F4801493
:104CB00001E044F440147278824202D104F5801479
:104CC000761C761C307866280BD013DC582877D0F9
:104CD00009DC002875D04528F6D04628F4D04728AE
:104CE0001AD19DE118E0632835D0642879D0652871
:104CF00012D195E1702873D008DC6728F1D06928BB
:104D00006FD06E280DD06F2806D1B5E073282CD057
:104D1000752875D0782874D05A46179990476D1C1D
:104D200075E1C4F30250022809D003280DD0D9F848
:104D3000001004280DD00D6009F1040967E1D9F8CD
:104D40000010EA17C1E90052F6E7D9F800100D800B
:104D5000F2E70D70F0E719F8041B8DF80010002041
:104D60008DF80100EA46012003E059F804AB4FF04A
:104D7000FF3061074FF0000102D40DE008F101019E
:104D80008846B9420FDA8045F8DB1AF80810002986
:104D9000F4D108E008F1010188468142FADB1AF8F3
:104DA00008100029F6D105985B46A0EB08072146BC
:104DB0003846179A00F094FA284400EB080507E0FB
:104DC0004DE029E10DE01AF8010B5A46179990477A
:104DD000B8F10108F7D25B4621463846179A13E12D
:104DE00042E00A220092C4F302524FF0000A022A63
:104DF00008D059F804CB032A4FEAEC710AD00DE031
:104E000029E02AE009F1070121F00702F2E802C1D6
:104E1000914609E00FFA8CFC4FEAEC71042A03D1A9
:104E20004FFA8CFC4FEAEC71002907DA0A460021A0
:104E3000DCF1000C61EB02012D2202E0220504D519
:104E40002B228DF80420012203E0E20701D020226A
:104E5000F7E7904659E00A2102E010220DE0102108
:104E60004FF0000A00910BE010224FF0000A44F0CE
:104E700004040827009203E008224FF0000A009281
:104E8000C4F30252022A05D059F804CB0021032AA8
:104E900008D009E009F1070121F00702F2E802C198
:104EA000914605E01FFA8CFC042A01D10CF0FF0C9E
:104EB0004FF00008220728D5702806D0009B83F009
:104EC000100353EA0A0305D00EE040228DF80420B7
:104ED000012208E05CEA010206D030228DF80420AD
:104EE0008DF8050002229046009B83F0080353EAE8
:104EF0000A030AD15CEA010201D1620705D530221A
:104F00008DF804204FF001087F1E582804D034A0EB
:104F100003900EA802900DE036A0F9E753466046D4
:104F2000009AFBF7B1FB84460398825C0298401E0E
:104F3000029002705CEA0100F0D1029806A9081AFA
:104F400000F1200A600702D524F4803400E0012734
:104F5000574502DDA7EB0A0000E0002000EB0A0144
:104F6000009005984144401A0590E00306D45B4642
:104F70002146179A059800F0B3F90544002706E08A
:104F800001A85A46C05D179990476D1C7F1C474584
:104F9000F6DBE0030CD55B462146179A059800F036
:104FA0009FF9054404E030205A46179990476D1C3C
:104FB0000099481E00900029F5DC08E0029802994B
:104FC0005A460078491C0291179990476D1CBAF116
:104FD0000001AAF1010AF1DC65E1000009280100E5
:104FE000303132333435363738396162636465665F
:104FF0000000000030313233343536373839414221
:10500000434445460000000000F058F90544761C72
:10501000307800287FF4ECAD19B02846BDE8F08F59
:10502000620700D4062709F1070222F0070CFCE80A
:105030000223E14603F000485FEA080C02D00FF2B9
:10504000702C0DE05FEA045C02D50FF2682C07E0DB
:105050005FEAC47C02D00FF2602C01E0AFF2700C6A
:105060004FF0FF3823F00043CDF850C065280CD036
:1050700006DC452809D046281DD047283DD13DE013
:10508000662818D067287ED138E00021112F01DB77
:10509000112000E0781CCDE9000106A90EA8FFF759
:1050A000DDFCDDE90F010E9A03910021009207F16A
:1050B000010A04914DE04FF000400097CDE9011046
:1050C00006A90EA8FFF7CAFCDDE90F0203920E9BAA
:1050D00011990022DDF80CA00093049211B9791CFB
:1050E00000EB010AB7EB0A0004D4C0F1FF3007F16E
:1050F000010A0490AAEB0700019044E0012F00DAB6
:1051000001270021112F01DD112000E03846CDE9F3
:10511000000106A90EA8FFF7A1FCDDE90F010E9A18
:105120000391002104910092BA4621070CD40399FF
:10513000514500DA8A46BAF1010F05DD009AAAF15D
:105140000101515C302908D0B84202DA10F1040F95
:1051500006DA0121CDE9011015E0AAF10101E9E724
:10516000002805DC049901440491AAEB000102E047
:10517000411C514500DD8A460499401A401C0190AB
:105180004FF000400290200704D40198504501DB05
:10519000CDF8048000208DF84F0002980DF14F07E4
:1051A000B0F1004F25D02B200E9002984FF002084E
:1051B00000280CDA404202902D200E9007E00A21D0
:1051C0000298FBF74BFA3031029007F8011DB8F155
:1051D0000001A8F10108F2DC02980028EFD1791E45
:1051E0000E980870307800F0200040F0450007F875
:1051F000020D12A8C01B00F107081498007800B136
:10520000012000EB0A01019801EBE071059841448F
:10521000401A401E0590E00306D45B462146179ACB
:10522000059800F05DF805441498007818B15A46C6
:10523000179990476D1CE00324D55B462146179AC9
:10524000059800F04DF805441CE00498002807DBA1
:10525000DDE90301884203DD0098405C179901E015
:10526000179930205A469047049805F10105401CD3
:1052700004900198401E019004D12E205A4617999F
:1052800090476D1CBAF10001AAF1010ADDDC05E0CE
:1052900017F8010B5A46179990476D1CB8F1000199
:1052A000A8F10108F4DC5B462146179A0598ABE6A5
:1052B0002D0000002B000000200000002DE9F0412F
:1052C000044600251E461746880404D405E03946E6
:1052D0002020B0476D1C641EF9D52846BDE8F0813A
:1052E0002DE9F041044600251E469046C80301D52D
:1052F000302700E02027880404D505E041463846E1
:10530000B0476D1C641EF9D52846BDE8F0814A6897
:10531000002A06D00A68531C0B6010704868401EB3
:1053200048607047EFF30580002800D001207047E7
:10533000334CFCF789FFFEF7DBFFFEF71FFBFEF7A0
:1053400015FAFEF71DFCFEF75BFCFEF777F9FEF79A
:10535000E7F9FEF7DBFBFEF733FC402229492A4838
:10536000FCF720FA2948FEF7F5FBFEF7B1FBFEF744
:1053700043FAFBF795FF04F11001254C60220D461E
:105380002046FBF7CBFF1E482249C06E884209D059
:10539000602221492846FAF743FF60221E49204631
:1053A000FCF728F81D48006820B14169FD221C481F
:1053B000FEF786F81B48006820B14169FD221A48B3
:1053C000FEF77EF8194C216821B10A8D496A184808
:1053D000FEF776F84FF4FA60FCF75EFD2946206888
:1053E000FEF788FE00211348FCF7D3FA102111487C
:1053F000FCF7CFFAFEF720FA00F04FFEFEE70000C0
:10540000E4030020FC0A0020FC0B0020A80F002071
:1054100000F807083487A55A6C000020EC02002031
:10542000640D0020F0020020200D00201801002053
:10543000DC0C0020700C002001460020842900D0E4
:10544000C81C70470021C0F80011FD21FAF701BF08
:105450002DE9F04104460E4615461F465C2001F03A
:10546000AFFB2060002859D0C76121682C48086232
:1054700021682C484862206806702846FBF780F8AF
:105480000D4606462B46324600202749FAF7E4FF30
:10549000FBF797F8216832462B46C8600020234965
:1054A000FAF7DAFFFBF78DF82168886021680020A1
:1054B0000874216888622168086321681C48C862F2
:1054C00021681C48486321681B48886321681B4881
:1054D000C86321681A48086421681A48486421682A
:1054E0001948886421681948C86421681848086503
:1054F0002168184848652168174888652068183071
:1055000000F05AF838B12068143000F027F810B1D4
:105510000120BDE8F081206802F098FE0020F8E745
:10552000BD57000855580008389C6C4176B0804142
:1055300049630008F95C000857580008FD59000845
:10554000B15A0008635B0008A55C0008D15C000844
:105550000D59000887590008155C000810B504466D
:105560004FF4827001F02CFB20601CB1FFF76AFF42
:10557000012010BD204602F069FE002010BD2DE97B
:10558000F041002604460F460E60D4E981013546FD
:1055900088420DD20C2001F013FB48B10560456034
:1055A00085603860D4F80402401C0126C4F8040267
:1055B0003046BDE8F08100002DE9F84F8346002514
:1055C0004FF41B7001F0FCFA040075D03D48C4F89C
:1055D0000C023D48C4F814023C48C4F81C023C4884
:1055E000C4F824023B48C4F810023B48C4F818022F
:1055F0003A48C4F820023A48C4F828023948C4F8A6
:105600002C023948C4F830023848C4F8340238480B
:10561000C4F838023748C4F83C023748C4F840029E
:105620003648C4F844023648C4F848023548C4F83D
:105630004C023548C4F850023448C4F85402344887
:10564000C4F858023348C4F85C023348C4F8600216
:105650003248C4F864023248C4F868020020C4F832
:1056600004024FF480702146C4F808020846FFF790
:1056700086FF050020D0DFF8ACA0D4F8008000271A
:10568000002604EBC71969462046FFF778FF05009E
:1056900012D05AF8270081190098016009EB8601A1
:1056A000761C48600098C8F808008046202EEAD38F
:1056B0007F1C042FE4D301252846CBF80040BDE829
:1056C000F88F0000035D0008435D0008675E000876
:1056D000835E0008CB5E00082D5F00082D60000887
:1056E000616000086D5D0008895D0008595F000871
:1056F000655F0008E75D0008055E0008BD5F000803
:10570000D15F0008455E0008555E00080B60000888
:105710001B600008C55D0008D55D00089B5F0008A0
:10572000AB5F0008DC020020F0B504460020154EF7
:10573000034600BF56F823508D420BD805F12007D1
:105740008F4207D904EBC3104D1B00EB8500406866
:10575000106001205B1C042BECD3002807D12368C8
:105760000BE01C688C4203D14FF001001360F0BDC8
:1057700003D94FF000011160F0BD9B68002BF0D100
:10578000F0BD0000DC02002030B502680B689068B4
:1057900001E00246806838B104681D68AC42F8D365
:1057A000AC4207D1002030BD9360096800208860BA
:1057B000012030BD986008689060F9E770B54569D0
:1057C0000446D5F80061032E02D20221626A2BE062
:1057D000B01E81B24FF6FF722846FBF75DFEA91995
:1057E00031F8021C884202D00321626A1BE028784B
:1057F0002178884202D00421626A14E06878052882
:105800001DD008DC012812D0022812D0032812D0A3
:10581000042806D111E0062813D00F2813D0102831
:1058200013D0626A05212046BDE870401047A16B85
:105830000CE0E16B0AE0216C08E0616C06E0A16C11
:1058400004E0E16C02E0216D00E0616D2046BDE8FE
:105850007040084770472DE9F0478046D8E9057445
:10586000788890FA90F9B88845BAAE00304601F0D1
:10587000A7F982463146FAF7ECFCD4F83062534679
:105880002A4649462046B04768074FEAD50000D06F
:10589000401CC4B2601D01F093F90646611DFAF781
:1058A000D8FC3878307078787070B470002112E0CD
:1058B000002072180AE01AF82330D77803F00103A9
:1058C00083401F43401CD770082803D200EBC1035C
:1058D000AB42F0D3491CA142EAD34FF6FF72E11C60
:1058E0003046FBF7D9FD3119C870000A0871D8F8A5
:1058F00034304046621D31469847504602F0A6FCBF
:105900003046BDE8F04702F0A1BC00002DE9F047A9
:1059100006460024D6E905508146688890FA90F83A
:10592000A88847BA0FE000BF05EBD40004F00701D8
:10593000C079D9F83432C84000F0010208EB040104
:1059400048469847641CBC42EED3082001F038F961
:10595000044600202060606028682060A888A0803D
:105960004FF6FF7206212046FBF796FDA071000A54
:10597000E071736B08222146304698472046BDE807
:10598000F04702F063BC2DE9F04706460024D6E953
:1059900005508146688890FA90F8A88847BA0DE0CB
:1059A000604207EB40002844D9F86432B0F80700A1
:1059B00008EB040142BA48469847641CBC42EFD346
:1059C000082001F0FDF8044600202060606028688F
:1059D0002060A888A0804FF6FF7206212046FBF7C2
:1059E0005BFDA071000AE071736B0822214630460E
:1059F00098472046BDE8F04702F028BC2DE9F04763
:105A00008046D8E90574788890FA90F9B88845BA44
:105A1000AE00304601F0D4F882463146FAF719FC60
:105A2000D4F8406253462A4649462046B0476807A4
:105A30004FEAD50000D0401CC4B2601D01F0C0F890
:105A40000646611DFAF705FC38783070787870707A
:105A5000B470002112E0002072180AE01AF8233016
:105A6000D77803F0010383401F43401CD7700828F8
:105A700003D200EBC103AB42F0D3491CA142EAD3ED
:105A80004FF6FF72E11C3046FBF706FD3119C87076
:105A9000000A0871D8F834304046621D31469847F4
:105AA000504602F0D3FB3046BDE8F04702F0CEBBD3
:105AB0002DE9F05F0646D6E90575788890FA90FBE7
:105AC000B88844BA60008246D04601F079F8814631
:105AD0004146FAF7BEFBD5F860C24B46224659460E
