:020000040800F2
:10500000086C0020DD5100087B910008C18A00086F
:1050100079910008795E0008E5A100080000000011
:1050200000000000000000000000000045510008E2
:10503000CB6300080000000089510008019B0008B4
:10504000F7510008F7510008F7510008F751000820
:10505000F7510008F7510008F7510008F751000810
:10506000F7510008F7510008F75100084D63000898
:105070005963000865630008716300087D630008D8
:105080008963000895630008F7510008F75100088C
:10509000F7510008F7510008F7510008F7510008D0
:1050A000F7510008B99B0008F7510008F7510008B4
:1050B000F7510008F7510008F7510008F7510008B0
:1050C000F7510008F7510008F7510008F7510008A0
:1050D000F7510008DD9F000839A0000899A00008DA
:1050E000F7510008F7510008F7510008F751000880
:1050F000F7510008F7510008F7510008F751000870
:10510000F7510008F7510008F7510008F75100085F
:10511000F7510008F7510008F7510008F75100084F
:10512000F7510008F7510008F7510008F75100083F
:10513000DFF80CD000F0DAFC00480047F1AC0008C2
:10514000086C0020224B19680868B0E8F00F80F363
:105150000988BFF36F8F4FF0000080F311884EF085
:105160000D0E70470000000006480068006880F3DC
:10517000088862B661B6BFF34F8FBFF36F8F00DF51
:1051800000BF00BF08ED00E0EFF30980BFF36F8FB1
:105190000F4B1A6820E9F00F106008B54FF050006F
:1051A00080F31188BFF34F8FBFF36F8F09F094F82E
:1051B0004FF0000080F31188BDE8084019680868C6
:1051C000B0E8F00F80F30988BFF36F8F704700BF1E
:1051D000D8030020EFF305807047000006488047A1
:1051E00006480047FEE7FEE7FEE7FEE7FEE7FEE7CC
:1051F000FEE7FEE7FEE7FEE7A99B00083151000845
:10520000202A04DB203A21FA02F00021704721FA1B
:1052100002F3D040C2F12002914008431946704782
:1052200040EA01039B0703D009E008C9121F08C028
:10523000042AFAD203E011F8013B00F8013B521EA8
:10524000F9D27047D2B201E000F8012B491EFBD21F
:1052500070470022F6E710B513460A460446194681
:10526000FFF7F0FF204610BD30B505462A460B4635
:1052700012F8010B13F8014B08B1A042F8D01CB191
:10528000002802D06D1CF1E7284630BD421C10F802
:10529000011B0029FBD1801A704710B5002200E0E5
:1052A000521C835C8C5CA34201D1002BF8D1D8B294
:1052B000E1B2401A10BD30B505460020034600E0BB
:1052C0005B1C934205D2EC5CC85C201A01D1002C17
:1052D000F6D130BDF0B480EA0102D40F4200B2EB47
:1052E000410F02D20246084611464A0042D0C30D81
:1052F000DDB2C1F3C752AD1A202D35DAC1F3160164
:1053000041F4000204B15242C5F1200602FA06F14E
:105310002A411044B3EBD05F23D0C4B1012DA0EBE0
:10532000C35009DCF0BC4FF0004202EAC352DBB2CA
:1053300000F5000000F006BA400000F1807000EBBC
:10534000C350A0F1807040EAD170490009E04908DB
:1053500041EAC071A0EBC35000F50000400800EB2B
:10536000C350F0BC00F0E5B96142012202EB4101FB
:10537000001BF6E7F0BC704781F00041AAE780F01F
:105380000040A7E780EA010210B502F000434000A8
:1053900022D04A001FD0010E01EB1261C0F356006B
:1053A000C2F3560240F4000042F40002A0FB0220C7
:1053B00000047F39140400D0401C50EA124001D48C
:1053C0004000491EC2B20C0604EBD010401C40083D
:1053D000802A02D003E0002010BD20F00100002947
:1053E00000DA0020184310BD30B480EA010202F058
:1053F000004530F0004221F0004013D090B1C30DC1
:10540000D40DC2F31601C0F31600E41A41F40001F2
:1054100040F400027D34914201D3641C00E0490055
:10542000002C02DA30BC002070474FF4000000234B
:10543000914201D3891A034340084FEA4101F7D151
:1054400051B1914202D14FF0004105E002D24FF03C
:10545000010101E06FF0010103EBC450284430BCAE
:1054600000F067B9420005D0C0F3C75252429142E2
:1054700001DC0020704700EBC15070472DE9F04D72
:1054800081EA030404F0004B21F0004514464FF07C
:10549000000A23F0004150EA050220D054EA01023C
:1054A0001DD0C5F30A570246C5F31303C1F3130019
:1054B000C1F30A5640F4801543F48013A7EB0608A5
:1054C000101BD64608F2FD3873EB050002D308F135
:1054D000010801E092185B41B8F1000F03DA0020E7
:1054E0000146BDE8F08D00204FF480110646844649
:1054F0000EE0171B73EB050705D3121B63EB0503C7
:1055000006434CEA010C49084FEA300092185B410F
:1055100050EA0107EDD152EA030012D082EA0400FA
:1055200083EA0501084305D0101BAB4106D20122D6
:10553000002306E000224FF0004302E06FF001027A
:1055400053101AEB06004CEB085110EB0A0041EB2C
:105550000B01BDE8F04D00F023B970B521F0004318
:1055600003430CD0C1F30A550024D5EB040564EBCA
:105570000403D617AD1AB34102DB0020014670BD0B
:10558000201841EB025170BDC10F80EAE070084461
:10559000CA079623002100F0D5B8962300221146B1
:1055A00000F0D0B80EB540F2334102910021CDE9B0
:1055B00000110A460B4600F002F903B000BD20F0CE
:1055C0000040C10DC0F3160040F400007F2901DA4D
:1055D00000207047962903DCC1F19601C84070474E
:1055E00096398840704770B5C1F30A5201F0004502
:1055F0000024C1F3130140F2FF3341F480119A42B9
:1056000001DA002070BD40F233439A42A2F23342E5
:1056100003DC5242FFF7F4FD00E090402C43F1D050
:10562000404270BDC1F30A5210B5C1F3130140F2FC
:10563000FF3341F480119A4201DA002010BD40F29C
:1056400033439A42A2F2334203DC5242FFF7D8FDC1
:1056500010BD904010BD00F0004230F000400AD074
:10566000C10D01F56071C0F3160042EA0151C20894
:10567000400711437047002001467047002801DBB6
:10568000C0F10040002901DBC1F1004181427047B7
:10569000002801DBC0F10040002901DBC1F100411D
:1056A0008842704730B50B46014600202022012475
:1056B00009E021FA02F59D4205D303FA02F5491BE0
:1056C00004FA02F52844151EA2F10102F1DC30BDF6
:1056D0002DE9F05F0546002092469B468846064627
:1056E000814640241BE02846414647462246FFF7B4
:1056F00087FD53465A46C01A914110D311461846A9
:10570000224600F005FA2D1A67EB01084F462246A3
:105710000120002100F0FCF917EB00094E41201E8A
:10572000A4F10104DFDC484631462A464346BDE881
:10573000F09F0029A8BF7047401C490008BF20F017
:105740000100704710B4B0FA80FC00FA0CF050EA87
:10575000010404BF10BC704749B1CCF1200421FA08
:1057600004F411FA0CF118BF012121430843A3EB03
:105770000C01CB1D4FEA00614FEA102042BF002010
:1057800010BC704700EBC35010440029A4BF10BCEC
:105790007047401C490008BF20F0010010BC704752
:1057A00010B5141E73F1000408DA401C41F1000129
:1057B00092185B411A4301D120F0010010BD2DE980
:1057C000F04D92469B4611B1B1FA81F202E0B0FA77
:1057D00080F22032904600F09BF904460F4640EAE2
:1057E0000A0041EA0B0153465A46084313D01146BA
:1057F00053EA010019D0C8F140025046FFF700FDFE
:1058000005460E4650465946424600F081F9084387
:1058100005D0012004E020463946BDE8F08D002087
:10582000054346EAE0762C4337430A986305E40AC9
:10583000A0EB08000022FD0A44EA47540A3002D5D2
:1058400000200146E9E7010510196941DDE9084535
:1058500000196941BDE8F04DA2E72DE9FE4F8046F1
:1058600081EA0300C00F0C46009021F0004123F0B4
:105870000045B8EB0200A94105D2404621469046BA
:105880001C460B46024623F00040104347D0270D2C
:10589000C7F30A00C3F30A510290401A019040284E
:1058A0006BDAC3F3130040F4801B0098924620B1DA
:1058B0000023D2EB030A63EB0B0B01985946C0F1AE
:1058C0004002504600F024F906460D46504659461F
:1058D000019A00F02CF910EB08006141002487EADE
:1058E000115284EAE7731A4340D0009A62B3019AD6
:1058F000012A4FEA075215DC001B61EB02014FF051
:10590000004202EA0752CDE90042001C41F5801135
:1059100032462B46FFF753FF03B0BDE8F08F4046F9
:105920002146F9E7001B61EB0201001C41F58013E1
:1059300000185B412018A2F5001747EB030140EA6D
:10594000D570B6196D4111E06D084FEA360645EA8B
:10595000C0754FEA0752001B61EB0201001C41F5C4
:10596000801149084FEA30000019514132462B4658
:1059700003B0BDE8F04FFFF713BF009801224000CD
:105980000023D0EB020263EBE073009821464FEA5C
:10599000E074B8EB000061EB0401E9E783F0004339
:1059A0005BE781F0004158E72DE9FE4F81EA0304EF
:1059B00004F0004421F0004100944FF0000B23F06C
:1059C000004350EA01045ED052EA03045BD0C3F303
:1059D0000A54C1F30A552C44A4F2F3340194A0FBF9
:1059E0000254C1F3130141F48011C3F3130343F4D0
:1059F000801301FB024400FB034E840A970A44EA29
:105A0000815447EA8357A4FB076802958D0A05FB7A
:105A100007854FEA932C04FB0C542705029D4FEA9F
:105A2000065847EA1637B5EB08056EEB070C870EEC
:105A3000920E47EA811742EA8312A7FB0201B6EBF6
:105A40000B0164EB00042B0D43EA0C335E1844EBAE
:105A50001C50DA465146E7FB0201C5F313044FEA36
:105A60000B3343EA14534FEA0432019C43EA060322
:105A7000A4F10C040294009CCDE900B4FFF79FFE52
:105A800003B0BDE8F08F00200146F9E7C1F30A52E8
:105A9000C1F3130140F2FF3341F480119A4202DA5C
:105AA00000200146704740F233439A42A2F233424B
:105AB00002DC5242FFF7A4BB00F02AB830B5041E46
:105AC00071F1000404DB4FF00044404264EB01013B
:105AD000141E73F1000405DB1C464FF000435242D4
:105AE00063EB0403994208BF904230BD064C074D5A
:105AF00006E0E06840F0010394E80700984710349E
:105B0000AC42F6D3FFF718FB88F80008A8F80008A5
:105B1000202A04DB203A00FA02F10020704791406D
:105B2000C2F1200320FA03F3194390407047202A62
:105B300006DBCB17203A41FA02F043EAE07306E0B5
:105B400041FA02F3D040C2F12002914008431946C5
:105B5000704770B58C1810F8015B15F0070301D180
:105B600010F8013B2A1106D110F8012B03E010F8C0
:105B7000016B01F8016B5B1EF9D12B0705D40023E3
:105B8000521E0DD401F8013BFAE710F8013BCB1A85
:105B9000921C03E013F8015B01F8015B521EF9D57A
:105BA000A142D8D3002070BD70B50446006881685A
:105BB000C943C90717D1816821F00101816001F053
:105BC00081FD05460AE000BF01F07CFD401B022874
:105BD00004D920688068C043C00706D02068806868
:105BE000C043C007F0D0002070BDA06A40F0100094
:105BF000A062E06A40F00100E062012070BD10B5D3
:105C00000146406A826A12F0500F05D0006A026BAA
:105C1000BDE8104008461047816A41F40071816276
:105C200001688968C1F3424107290CD1017B51B950
:105C3000816A21F480718162816AC90403D4816A16
:105C400041F00101816200F0A3FF10BD10B5406A70
:105C5000816A41F040018162C16A41F00401C16280
:105C600000F098FF10BD10B5406A00F092FF10BD23
:105C7000F8B500260446009600688168C943C90744
:105C80002DD0816841F001018160164816490068F5
:105C9000B0FBF1F000E0401E00900028FBD101F0C5
:105CA00011FD054616E000BF01F00CFD401B022867
:105CB00010D920688068C043C0070BD0A06A40F0AC
:105CC0001000A062E06A40F00100E06284F8246005
:105CD0000120F8BD20688068C043C007E4D10020DF
:105CE000F8BD0000D403002040420F002DE9F0472A
:105CF0000C4606004FF000054FF0010742D0002C83
:105D000040D06068FFF7C2FAC0B2814606F090FD4D
:105D10005FEA000833D0B9F1000F30D02068FFF7F8
:105D2000B5FA82B223892168F06902F02DFEB068CD
:105D30004A4641460389F06902F0AEFD68B16D1C28
:105D4000EDB212A1194807F037FC032D15D3002737
:105D500017A1164807F030FC11E040462168FFF714
:105D600083FA08B120A1F4E76D1CEDB2424626A1EA
:105D70000E48236807F020FCE7E7002FCED140460D
:105D800008F066F83846BDE8F08700004174206DE1
:105D90006F64756C6520646F6573206E6F7420721C
:105DA0006573706F6E64210D0A000000DC10002026
:105DB00052657472616E736D697373696F6E20657D
:105DC00078636565647320746865206D6178696DBA
:105DD000756D206E756D626572206F662074696DD9
:105DE0006573210D0A000000436F6D6D616E6420C4
:105DF00073656E74207375636365737366756C6C1D
:105E0000792E0D0A00000000526573706F6E736585
:105E100020696E737472756374696F6E3A257320AE
:105E2000616E64202573206D69736D617463682EE3
:105E30000D0A000070B5040004D0A568002D01D043
:105E4000E06938B970BDA26A29462046904700280B
:105E5000F8D00C352179A06801EB410100EB8100FD
:105E6000A842F0D870BD002905D00868002802D0EB
:105E7000898801F022BC7047FEE74069D0F8001124
:105E8000012902D100780D2801D00020704701209F
:105E90007047000088B00020A24CDFF88CA2009070
:105EA000CDF804004FF00008C4F80080C4F8048066
:105EB000DAF800002346082280694146D0F8905263
:105EC000A84738B107F090FF04F110062546B14607
:105ED00002AF44E095A19E4807F06EFB0EE1281B3F
:105EE000C0F3870B04220021284600F075FCB8F1AE
:105EF000000F17D12868B0F5000F03DA0BEB4B0049
:105F0000801C0EE0B0F1814F03DA0BEB4B00C01C9C
:105F100007E09049884203DD0BEB4B00001D00E0D9
:105F200000208046D6E9000B5946FFF725FA069077
:105F30004FF081412868FFF71FFA6FF00301FFF768
:105F400091FA0699FFF71EFA5946FFF7C3F9286040
:105F5000B0F5000F00DA002001C501C708364D4535
:105F6000BDD3C4F8748007F05FFF7B4D00230A2285
:105F700002A9286A08F0FCFADAF8000056466A46D8
:105F800080690021D0F87C329847F8B1306801AAC6
:105F900008218069D0F86C329847D8B1019801285F
:105FA0001FD0216E2068FFF769FB06D9616EE0689B
:105FB000FFF764FB01D9606FD0B15A490020143952
:105FC000086048608860C860086197E0002263A1AB
:105FD000009B02E0019B002265A15D4807F0ECFAFE
:105FE0008CE068A15A4807F0E7FA0020606794E067
:105FF000009880B34B4E0027143EF760216C206858
:10600000FFF746FB05D80120C6E90070B060287094
:1060100074E0616C2068FFF731FB03D82F70776064
:10602000F76003E0287818BB0120B060A16C6068BD
:10603000FFF72EFB10D8484801213C30817182883F
:10604000521C92B282800A2A02D387808771B16083
:10605000C6E9001752E00CE0E16E6068FFF70EFB46
:106060004CD83D483C3087800120B760C6E90070BD
:1060700044E0287808B100202870D4E90010FFF728
:106080007BF9E16CFFF704FB06D8216D2068FFF770
:10609000F5FA01D2012100E00021224814384160C4
:1060A000616D6068FFF7F4FA07D81E4801211438C3
:1060B000816001610021416009E0A16E6068FFF725
:1060C000DDFA04D817480021143881600161A16D00
:1060D0002068FFF7DDFA04D8124901201439C8609E
:1060E00008E0E16D2068FFF7C9FA03D80D480021E8
:1060F0001438C1600B49002014390860DAF8000038
:10610000084B05228069143B0021D0F87852A8473B
:1061100018B92BA10E4807F04FFA4FF47A7005F02A
:1061200019FEBFE620050020680300204661696C67
:10613000656420746F207265616420696E70757487
:10614000207265676973746572210D0A0000000092
:10615000DC1000200000A84138010020494E5F44B7
:106160005B25645D203D20307825640D0A00000029
:106170004D6F64655B25645D203D20307825640D9E
:106180000A0000004E6F74653A204D616E75616CB7
:10619000206D6F646520737461727475702C20615A
:1061A00075746F6D61746963206D616E6167656D93
:1061B000656E74206661696C757265210D0A000058
:1061C0007772697465206661696C6564210D0A00E7
:1061D00070B50D00044626D0302006F029FB206063
:1061E00008B907F035FE2A780FA11548236807F093
:1061F000E3F9216815F8040B0870F5E8021220682D
:10620000C0E901122ECD20680C3080E82E002168F4
:106210000C48C86221680C48086221680B48486233
:1062200021680B48886270BD41745B25645D5F68BE
:10623000616E646C6572203D20307825700D0A0017
:10624000DC100020256A0008675E0008355E000843
:10625000ED5C00082DE9F0410D00044655D04020CA
:1062600006F0E6FA206008B907F0F2FDA88C06F007
:10627000DFFA070001D107F0EBFDA88D06F0D8FA90
:10628000060001D107F0E4FDA98C3846FEF7E1FFD6
:10629000A98D3046FEF7DDFF2A781DA1234823682B
:1062A00007F08AF92168287808702168204848603A
:1062B00021682048886021681F48C86021681F48FD
:1062C000086121681E48486121681E48886121686C
:1062D0001D48C8612068076221680020C8842268C0
:1062E000A98C918421688E622268A98D918521688C
:1062F000C8852168686B48632168288F08872168F2
:10630000286B08632168E86BC863BDE8F081000072
:106310004477696E5B25645D5F68616E646C65726D
:10632000203D20307825700D0A000000DC10002090
:106330003567000879670008F96600084D660008AF
:106340009166000875640008CD630008014800F0FC
:106350004DBE0000740D0020014800F047BE000053
:1063600030100020014800F041BE0000EC0F00207A
:10637000014800F03BBE0000200F0020014800F063
:1063800035BE0000DC0E0020014800F02FBE0000EA
:10639000640F0020014800F029BE0000A80F002073
:1063A00030B590F840500124AC40C56B6C60046877
:1063B00063604368102B036803D099600068C26073
:1063C00030BD9A600068C16030BD704738B5054681
:1063D000406B144601291CD0042101EB04114058E4
:1063E0000090FFF738F90B4602460FA1174807F057
:1063F000E3F804220021684600F0EEF9686B0423FC
:1064000000EB0410AC6800886A4681B22846A047B9
:1064100038BD082101EB041140580090FFF71BF92B
:106420000B4602460AA1E1E74572726F723A2041BB
:10643000626F7665207570706572206C696D697425
:1064400020252E33662E0D0A00000000DC100020EF
:106450004572726F723A2042656C6F77206C6F776D
:106460006572206C696D697420252E33662E0D0AC5
:10647000000000002DE9F0430C46816A054685B016
:1064800088794FF00808022803D2B1F8070040BA13
:1064900006E0D1F80700897A00BA20F0FF0008432F
:1064A000FFF772F84649FEF79FFF0490454F2E6BA9
:1064B000FFF7D1F82278009202460B4642A14948E4
:1064C00007F07AF82278696B08EB021009580498F3
:1064D000FFF7DEF863D821780422686B02EB011124
:1064E00041580498FFF7CAF859D836B12078298F57
:1064F000884202D2049946F8201007F075FC07F193
:1065000010004FF6FF726821814600F0A7FAB867C5
:106510006C224946344800F047FA07F085FC042213
:10652000002104A800F058F92078474608EB400104
:106530002E4804AB022200688069D0F8A8C2E04768
:1065400058B90498FFF787F8CDE90001207828A111
:1065500007EB4002234807F02FF82178686BAF68FB
:1065600000EB01100423008804AA81B22846B84732
:1065700014480069FFF76FF8247805460F4656F86F
:106580002400FFF768F8009001A8224680E8A200E6
:1065900024A1144807F010F805B0BDE8F083227874
:1065A000696B08EB021009580498FFF767F801D2ED
:1065B000012100E00221EB69227828469847EBE7A9
:1065C000000020412005002064617461203D2025E9
:1065D0002E33662C202A7073697465203D20256453
:1065E0002E0D0A00DC10002000F8070868030020C8
:1065F000486F6C64696E6720726567697374657251
:1066000020616464725B307825785D2C2057726954
:1066100074653A20252E3366206661696C656421B5
:106620000D0A000070646174615B25645D203D208B
:10663000252E33662C5074616E6B5F6D6178203D42
:1066400020252E33662E0D0A000000001EB40DA377
:106650001CCB8DE81C000A0A8DF808208DF8091063
:106660000021C184016A009A0A60019A4A60BDF85B
:1066700008200A81C18C0A31C184416803B010BC72
:10668000084700005AA5098200845A010000000052
:10669000F8B50446806A002601785A2920D141784D
:1066A000A5291DD180888DF8006041BA228F13E0A2
:1066B000636B03EB00131B688B420AD1C2B20C2040
:1066C000616B00EB02100A5852B1694620469047B0
:1066D00006E0401C8DF800009DF800008242E7D8DB
:1066E000002504E0A06AFEF7B4FD6D1CADB2E18D9B
:1066F000A942F7D8E685F8BD3CB40CA4090AD4E950
:106700000034CDE900348DF804108DF80520002107
:10671000C184016A009A0A60BDF804208A80C18C95
:10672000891DC184416802B030BC08475AA5068360
:106730000000000038B50446C08C4FF6FF72C01E42
:1067400081B2206AC01C00F089F9ADF80000E18C2C
:10675000206A0844BDF800100180E08C801C82B2E1
:10676000E284216AE06B02F069F9E06B006801687D
:10677000C9434906FBD438BD7CB51D46134614A257
:106780000446D2E90002CDE90002681D8DF802003E
:10679000080A8DF804008DF805100020E084206AB6
:1067A00000992A460160BDF804108180E08C801DAC
:1067B00080B2E084216A08441946FEF731FDE08C7E
:1067C0002844E084616802B02046BDE87040084774
:1067D0005AA5008200000000F0B5540800230A44C6
:1067E000521ED5B209E0CE18EF1A825D10F807C02C
:1067F00000F806C05B1CC255DBB2A342F3D3F0BD68
:1068000072B6FEE7104810B50068C16841F010018B
:10681000C160272000F0D4FF0C48FD2200684169C8
:10682000094802F099F808B1002010BD084C206911
:1068300005F05EFB606805F075FB4FF49661A06A99
:1068400005F096FB012010BD980E00206803002083
:106850003801002010B500F013FE03493420C86051
:10686000BDE8104000F0C2BD0020024006490020F3
:10687000C8610648016941F004010161016941F004
:106880004001016170470000D0110020002002404B
:10689000064A0021D16106490A6942F002020A61F2
:1068A0004861086940F0400008617047D01100203D
:1068B00000200240044B0022DA61044A136943F0CD
:1068C0000103136101807047D011002000200240B5
:1068D00010B5A0F10063B3F5002F03D812B109B1D0
:1068E000002305E0002010BD30F8014BCC545B1CA8
:1068F0009342F9D3012010BD14480022C168CB0691
:10690000134904D5CA6942F00202CA611022C36861
:106910005B0705D5CB6943F00103CB6142F004026C
:10692000C369DB0707D0CB6943F00403CB61C169BE
:1069300021F00101C161A2F58071013901D0C2606D
:106940007047C16921F00101C16170470020024018
:10695000D011002070B5054600F0B4FE0646114C7B
:1069600009E0681C07D025B100F0ACFE801BA842EE
:1069700001D9032070BDE068C007F2D1E06880064D
:1069800001D52020E060E068C00605D4E069C007BA
:1069900002D1E068400703D5FFF7AEFF012070BDCC
:1069A000002070BD002002402DE9F04186B0054670
:1069B0000024A0F10060174688460094B0F5002F2F
:1069C00011D887B1B8F1000F0DD000F059FD0120AA
:1069D0000194CDE9035012493420C860694601A8EA
:1069E00000F0B0FC14E0002006B0BDE8F08100BF6C
:1069F00038F8142005EB440116460023012000F06E
:106A0000FFFC35F81400B04201D00120ECE7641C13
:106A1000B4EB570FECD300F0E9FC0098E4E700007A
:106A2000002002400068002801D007F011BA70472A
:106A30000021084A082801D90020704702EB800095
:106A4000054A02E050F8203B19449042FAD3C808A6
:106A500070470000440C0020440D002070B504462F
:106A6000104600234AF2010510E000BF14F8012B84
:106A700050400022C60702D085EA500000E04008DE
:106A8000521C92B2082AF5D35B1C9BB28B42EDD309
:106A900070BD0000F8B50024009490F8242025462D
:106AA000012A12D0012280F824204A681F23072AD5
:106AB0000DD20668776B521E02EB820293409F4311
:106AC0000B6893401F43776319E00220F8BD066806
:106AD0000D2A0AD2376BD21F02EB820293409F43EA
:106AE0000B6893401F43376309E0F76A0D3A02EBE6
:106AF000820293409F430B6893401F43F7620A68EA
:106B0000072306680A2A0AD3F7680A3A02EB420208
:106B100093409F438B6893401F43F76008E03769B9
:106B200002EB420293409F438B6893401F433761BF
:106B30000A68102A01D0112A20D1124B02689A4209
:106B400017D193681B0219D4936843F40003936030
:106B50000968102912D10C490C4A0968B1FBF2F1FD
:106B600001EB8101490000E0491E00910029FBD1A1
:106B700004E0816A41F020018162012480F8245000
:106B80002046F8BD00240140D403002040420F00FD
:106B900070477047704700002DE9F04104004FF046
:106BA00000057FD0A06A002628B9E66284F8246038
:106BB000204600F081F82046FEF7F6FFA16AC906DC
:106BC00000D420B1A06A40F01000A0626AE0A16A7F
:106BD00021F4885141F00201A162334923688B42BC
:106BE000E16904D1B1F5402F01D14FF40021277B99
:106BF0004FF4807C41EA470261680A43A16861451D
:106C000008D0012906D0002194F814E0BEF1010F4C
:106C100002D00AE06146F7E7C7B1A76A47F020074C
:106C2000A762E76A47F00107E7625F6827F46947F0
:106C30000F435F60236899681C4F39401143996086
:106C4000A16861450BD0012909D00CE0DFF860E0B4
:106C5000A7690EEB47370F4347F40061E5E7218A48
:106C60000D05A5F580152168CB6A23F470032B432D
:106C7000CB62216889680F4B1940914208D1E662C6
:106C8000A16A21F0020141F00101A162BDE8F08199
:106C9000A06A20F0020040F01000A062E06A40F01C
:106CA0000100E0620120F1E7003C0140FDF7E1FF57
:106CB00000E0FFFFFE0E1FFFF0B585B00026054681
:106CC00000960196029603960068214988423DD1BC
:106CD0002049886940F400708861886900F4007078
:106CE0000490886940F010008861886900F0100005
:106CF0000490886940F00400886188690F240327A4
:106D000000F00400CDE9004704906946124800F005
:106D1000CBFBCDE900476946104800F0C5FB114C9C
:106D20000F48C4E900068020C4E9026080002061A9
:106D3000800060612020A0613803E061204600F0FF
:106D400079FA08B1FFF75CFD2C62656205B0F0BD11
:106D500000240140001002400010014000080140E2
:106D600008000240740D00202DE9F04789460446D2
:106D70003B4900683B4F0E1D9046884201D0B84207
:106D800007D1306810F4702F03D001252846BDE8E4
:106D9000F08794F8240001280CD0012084F8240006
:106DA0002046FEF765FF05004FF0000004D084F890
:106DB0002400EBE70220EAE7A16A40F60162914372
:106DC00041F48071A1622168B94218D1326812F48D
:106DD000702F14D0A16A41F48011A1623168490575
:106DE00005D5A16A21F4005141F48051A162A16A44
:106DF000C9040AD5E16A21F00601E16206E0A26A4F
:106E000022F48012A2624968E9E7E06284F8240073
:106E1000216A15488862216A1448C862216A1448A8
:106E2000086321686FF0020008602068816841F4FF
:106E300080718160216843464A464C31206A00F0E7
:106E400037FA20688168C1F342410729816803D07D
:106E500041F48011816099E741F4A001FAE7000054
:106E60000024014000280140FF5B0008675C000827
:106E70004D5C000810B590F821100022022905D0C1
:106E80000421816380F82020012010BD01680B6877
:106E900023F00E030B6001680B6823F001030B6005
:106EA00090F84030C46B012101FA03F3636080F86D
:106EB000211080F82020104610BD00002DE9F05F61
:106EC00090F821100024022903D0042181630124B9
:106ED00085E001680A6822F00E020A6001680A680B
:106EE00022F001020A603F4E3E4FB215DFF8F4C0B7
:106EF000DFF8F090DFF8ECA0DFF8E8B0DFF8E4E0CE
:106F00000168783F13011502ACF1640CA9F1500936
:106F1000AAF13C0AABF1280BAEF1140E4FF4801825
:106F2000B14227D9B9420ED0614512D049451DD092
:106F3000514518D0594518D0714501D1424615E048
:106F4000294EB14201D1012210E0274E1436B14240
:106F500001D110220AE0244E2836B14206D0224A3E
:106F60003C32914201D11A4600E02A461E49091FCF
:106F70000A602BE0B94213D0614517D0494522D0B1
:106F800051451DD059451DD0714501D142461AE0E9
:106F9000B14202D14FF0807215E0134EB14201D1DF
:106FA000012210E0104E1436B14201D110220AE045
:106FB0000D4E2836B14206D00B4A3C32914201D1E7
:106FC0001A4600E02A46074980394A60012180F8C4
:106FD0002110002180F82010416B01B18847204624
:106FE000BDE8F09F80000240080402402DE9F05FF8
:106FF000C16B0A6801680B68046C4FF0040808FA5A
:1070000004F8844D844E854FDFF814C2DFF81492E3
:10701000DFF814A2DFF814B2DFF814E218EA020F66
:1070200065D05FEA437862D50A68920603D40A689D
:1070300022F004020A60DFF8F0814FF480620168F8
:1070400008F1140813011402414524D9A9420DD0B6
:10705000B1420FD0B9421AD0614515D0494515D07B
:10706000514501D1120312E0594501D104220EE02D
:10707000714501D140220AE06D4D1435A94206D078
:107080006B4A2832914201D11A4600E022466749F4
:10709000091F0A6029E0A94213D0B14215D0B942B4
:1070A00020D061451BD049451BD0514502D14FF43A
:1070B000800217E0414502D14FF0806212E059454D
:1070C00001D104220EE0714501D140220AE0584D61
:1070D0001435A94206D0564A2832914201D11A46A7
:1070E00000E022464B4908394A60C16A71E04FF01E
:1070F000020808FA04F818EA020F70D05FEA8378F1
:107100006DD50A68920606D40A6822F00A020A605F
:10711000012180F82110DFF810814FF4007201681E
:1071200008F1140813011402414524D9A9420DD0D5
:10713000B1420FD0B9421AD0614515D0494515D09A
:10714000514501D1120312E0594501D102220EE04E
:10715000714501D120220AE0354D1435A94206D0EF
:10716000334A2832914201D11A4600E022462F4983
:10717000091F0A6029E0A94213D0B14215D0B942D3
:1071800020D061451BD049451BD0514502D14FF459
:10719000001217E0414502D14FF0007212E059454C
:1071A00001D102220EE0714501D120220AE0204DDA
:1071B0001435A94206D01E4A2832914201D11A46FE
:1071C00000E02246134908394A60002180F8201067
:1071D000816A00291CD0BDE8F05F0847FFE7082559
:1071E000A540154214D01A0712D50A6822F00E02E3
:1071F0000A6090F84020C36B012101FA02F25A6044
:10720000816380F82110002180F82010016BE0E7F5
:10721000BDE8F09F080002401C0002403000024020
:1072200044000240580002406C0002400804024042
:107230001C04024030B560B11A4B026814219A4216
:1072400009D2194B1344B3FBF1F1890001641749CA
:107250000AE0012030BD134B5B421344B3FBF1F154
:10726000890001640F490839C163022180F82110A7
:10727000136843F6F0718B43F0E901142143D0E920
:1072800002452C4321430469214344692143846915
:1072900021431943116000214163012242770177A4
:1072A000084630BD08040240F8FFFDBF0000024060
:1072B00070B5044690F82000002501280CD001206C
:1072C00084F8200094F821600020012E06D084F874
:1072D00020000225284670BD022070BD022684F8D9
:1072E0002160A0632068066826F00106066020463B
:1072F000FFF756F8E06A00282068016802D041F0E4
:107300000E0106E021F0040101602068016841F0EF
:107310000A0101602068016841F001010160D9E7BC
:1073200070B5044600F0CEF90546601C02D0044852
:107330000078044400F0C6F9401BA042FAD370BDA7
:10734000C80300202DE9F047054626480F460126D0
:10735000017E01290FD00121814601762868DFF8DE
:1073600088804CF25034022808D0A2462046FFF70D
:10737000F1FAA8B131E00220BDE8F0872046FFF71E
:10738000E9FA08BB0120FFF771FA2046FFF7E2FA9D
:10739000D8F81010064621F00401C8F810101CE0BF
:1073A0004FF0FF303860AC6811E02046FFF770FA0C
:1073B0005046FFF7CFFAD8F81010060021F002016E
:1073C000C8F8101001D03C6007E004F50064D5E96E
:1073D000020100EBC120A042E7D8002189F8181073
:1073E0003046C9E7D011002000200240034801695F
:1073F00041F0800101610020704700000020024040
:107400002DE9F05F07461C4888460024017E15469A
:107410001E46012909D00121814601764CF2503ADD
:107420005046FFF797FA18B122E00220BDE8F09F1E
:10743000012F02D0022F00D00427D346DFF83CA052
:10744000220128463146FDF7DBFE81B208EB4400FD
:10745000FFF730FA5846FFF77DFADAF8102022F0ED
:107460000102CAF8102018B9641CE4B2BC42E7D388
:10747000002289F81820D9E7D0110020002002400E
:10748000064900200A69120607D5054A4A60054ADE
:107490004A600969090600D50120704700200240B2
:1074A00023016745AB89EFCD2DE9F84FDFF8C8918F
:1074B000002409F1040A0AF1040B23460F270BF1FB
:1074C000040ED1E00125A54006EA0502AA4276D1C4
:1074D000DFF8A8C14E68A6EB0C0866452BD00DDC82
:1074E000032E34D005DC36B3012E19D0022E2FD155
:1074F0001BE0112E16D0122E2AD119E0B8F5881FE4
:1075000019D006DCB8F5803F15D0B8F5801F1FD123
:1075100011E0B8F5001F0ED0B8F5041F18D10AE02D
:10752000CB6815E0CB681B1D12E0CB6808330FE079
:10753000CB680C330CE08B682BB1012B4FF00803A8
:1075400003D0456104E0042302E0056100E000236C
:10755000FF2A01D8064601E000F104064FEA84053F
:1075600001D9A5F12005D6F8008007FA05FC28EA24
:107570000C0803FA05F548EA0508C6F800804D68CE
:10758000ED0070D53E4DAE6946F00106AE61AD69C5
:1075900024F0030605F0010500953A4D06EB050CB5
:1075A000DCF80850A607360F07FA06F825EA0805A2
:1075B000DFF8D480404503D14FF0000825E052E0C9
:1075C000DFF8C880404502D14FF001081DE0DFF828
:1075D000C080404502D14FF0020816E0DFF8B480C9
:1075E000404502D14FF003080FE0DFF8AC80404582
:1075F00002D14FF0040808E0DFF8A080404502D136
:107600004FF0050801E04FF0060808FA06F848EACE
:107610000508CCF808804D68D9F80060ED034D46A8
:1076200001D5164300E096432E604D68DAF80060FD
:10763000AD03554601D5164300E096432E604D68D4
:10764000DBF80060ED025D4601D5164300E096438D
:107650002E604D68DEF80060AD02754601D5164318
:1076600000E096432E60641C0A681646E2407FF4F0
:1076700029AFBDE8F88F00000004014000001110A0
:10768000001002400000014000080140000C0140D1
:10769000001001400014014000180140001C01408E
:1076A0008068084000D001207047C26821EA0203C8
:1076B0000A4043EA0241016170470AB10161704723
:1076C0000904FBE70148806870470000C8030020F8
:1076D000024881680278114481607047C803002025
:1076E000074810B5016841F010010160032000F067
:1076F00095F8002000F006F800F03EF8002010BDDC
:107700000020024000B5014687B00022192000F099
:1077100065F8192000F054F81348816941F40061BC
:107720008161806905A900F400600690684600F058
:1077300093F900F0C1F90D490D4AB0FBF1F10D4884
:10774000491E0260416040F2E7320021C0E9032196
:10775000816000F0CEFC10B1012007B000BD0548EB
:1077600000F0F6FCF9E700000010024040420F0074
:10777000002C0140741000200F4808B5816941F0C9
:1077800001018161816901F001010091C16941F04C
:107790008051C161C069002200F0805000900F212B
:1077A000901E00F01BF80548416821F0E06141F0AF
:1077B0000071416008BD000000100240000001405F
:1077C000002809DB00F01F020121914040098000E0
:1077D00000F1E020C0F8001170470000F0B40E4B3B
:1077E0001B680C46C3F30223C3F10705042D00D91F
:1077F0000425191D072901D2002300E0DB1E012604
:1078000006FA05F1491E214099409E40761E164019
:107810003143F0BC02F0ACBD0CED00E0064900F0D5
:10782000070208684FF6FF03184040EA0220034AA7
:1078300010430860704700000CED00E00000FA05FE
:107840002DE9F84305460078354CC00754D0E0696F
:107850000026C00008D4E06940F08050E061E06993
:10786000012600F0805000902E480168C90512D40E
:107870000168804641F480710160FFF723FF0746ED
:1078800005E000BFFFF71EFFC01B642823D8D8F80F
:107890000000C005F6D5206A10F4407021D0A988F8
:1078A00001F4407181421CD0206A1F49012220F45A
:1078B00040700A6000220A602062C00711D0FFF702
:1078C00001FF074641F2883808E000BFFFF7FAFEE3
:1078D000C11B414502D90320BDE8F883206A800717
:1078E000F4D5206A696820F44070084320621EB114
:1078F000E06920F08050E0612878800705D5606855
:10790000A96820F44040084360602878C00605D587
:107910006068696920F48000084360600020DBE74C
:107920000010024000700040400442422DE9F04740
:107930000F46050061D0434E306800F00700B842A2
:1079400009D2306820F0070038433060306800F01A
:107950000700B84251D128683B4C810712D5400737
:1079600003D5606840F4E06060602878000703D5C4
:10797000606840F4605060606068A96820F0F000C2
:10798000084360602878C00728D06868012810D0B4
:107990002168022810D0890700292EDA616821F0B9
:1079A000030101436160FFF78DFE804641F2883993
:1079B0000DE021688903EFE78901EDE7FFF782FE1B
:1079C000A0EB0801494502D90320BDE8F0876068B3
:1079D000696800F00C00B0EB810FEFD1306800F067
:1079E0000700B8420BD9306820F0070038433060F8
:1079F000306800F00700B84201D00120E5E72878A0
:107A0000400705D56068E96820F4E06008436060DD
:107A10002878000706D56068296920F4605040EA9C
:107A2000C100606000F058F86168084AC1F30311B2
:107A3000515CC8400649086006480068FFF762FECE
:107A40000020C2E7002002400010024000F40008BD
:107A5000D4030020CC0300200F2202600C4A53689C
:107A600003F003034360536803F0F003836053683B
:107A700003F4E063C36052684FF4E06303EAD202A8
:107A800002610448006800F00700086070470000C9
:107A9000001002400020024004480549006849687F
:107AA000044AC1F30221515CC8407047D40300204E
:107AB0000010024010F400080448054900684968B5
:107AC000044AC1F3C221515CC8407047D40300206E
:107AD0000010024010F4000812A185B00FC98DE813
:107AE0000F0014A0144A006804905168134801F074
:107AF0000C03042B10D0082B0ED1C1F38343C90310
:107B00001DF803000AD5516804AAC1F34041515C35
:107B10000A4A5043B0FBF1F005B0704708494843AA
:107B2000FAE7000002030405060708090A0B0C0D1A
:107B30000E0F1010010200000010024000127A0027
:107B400000093D002DE9F84F040070D02078C04DA9
:107B5000C00749D06868C0F38100012807D0686871
:107B6000C0F38100022809D16868C00306D52868DF
:107B7000800339D560680028E7D035E06068B0F54B
:107B8000803F0BD010B1B0F5A02F11D0286820F4A1
:107B900080302860286820F4802002E0286840F4C3
:107BA00080302860606890B1FFF78CFD06460AE0DF
:107BB000286840F480202860F0E700BFFFF782FDCE
:107BC000801B642873D828688003F7D50CE0FFF782
:107BD00079FD064605E000BFFFF774FD801B6428B1
:107BE000F0D828688003F7D420789A4E80074FF0A9
:107BF00001094FF0000839D5686810F00C0F07D064
:107C00006868C0F38100022809D16868C00306D4FF
:107C10002868800714D52069012808D110E0206960
:107C2000B0B1C6F80090FFF74DFD074605E00AE148
:107C3000FFF748FDC01B0228C4D828688007F7D585
:107C40002868616920F0F80040EAC10028600DE072
:107C5000C6F80080FFF736FD074604E0FFF732FD67
:107C6000C01B022823D828688007F7D42078000793
:107C70002CD57948A169D9B1C0F80090FFF722FD51
:107C8000074604E0FFF71EFDC01B02280FD8686AF4
:107C90008007F7D571484FF4FA510068B0FBF1F056
:107CA000009000BF0098411E0091FAD20EE080E0E3
:107CB000C0F80080FFF706FD074604E0FFF702FD6D
:107CC000C01B022875D8686A8007F7D4207840075F
:107CD00060D5E8690027C00008D4E86940F080500A
:107CE000E861E869012700F0805000905C48016875
:107CF000C90513D40168834641F480710160FFF720
:107D0000E1FC824606E000BFFFF7DCFCA0EB0A00C6
:107D100064284ED8DBF80000C005F5D5E0680128DE
:107D20000AD008B1052813D0286A20F00100286283
:107D3000286A20F0040002E0286A40F0010028626E
:107D4000E06841F2883B98B1FFF7BCFC82460BE04B
:107D5000286A40F004002862EEE700BFFFF7B2FC9B
:107D6000A0EB0A0159455AD8286A8007F6D50CE0DD
:107D7000FFF7A8FC824605E0FFF7A4FCA0EB0A0190
:107D800059454CD8286A8007F6D41FB1E86920F01D
:107D90008050E861E06988B36968C1F38101022914
:107DA00044D00228C6F8608004D0FFF78BFC04465C
:107DB00038E034E0FFF786FC074604E0FFF782FC7A
:107DC000C01B02282BD828688001F7D4206AB0F5A0
:107DD000803F05D16868A16820F4003008436860DE
:107DE000D4E908010843696821F474110843686004
:107DF000C6F86090FFF766FC044606E025E000BF89
:107E0000FFF760FC001B022809D828688001F7D51D
:107E10001BE000BFFFF756FC001B022802D903201D
:107E2000BDE8F88F28688001F4D40EE00128F7D06F
:107E30006868226A00F48031914204D1616A00F4DA
:107E40007010884201D00120EAE70020E8E7000036
:107E5000001002400000424280044242D40300204D
:107E60000070004070B5040009D0606A002540B180
:107E700025616561A56294F8510040B10CE00120D4
:107E800070BD6068B0F5827FF4D0E561F2E784F8F8
:107E90005050204600F040F8022084F8510020683D
:107EA000016821F040010160A088218900F48270FE
:107EB00001F404410843A18901F400610843217CD5
:107EC00001F002010843217D01F001010843218BEB
:107ED00001F400710843217F01F03801084394F850
:107EE000201001F080010843218D01F40051084366
:107EF00021680860A069042101EA104021684860F7
:107F00002068C16921F40061C1616565012084F8C0
:107F10005100002070BD000000B585B00021009127
:107F200001910291039100681349884221D11348BD
:107F3000816941F480518161816901F4805104912A
:107F4000816941F0080181618069694600F008009B
:107F500004902820009002200190032003900848FC
:107F6000FFF7A2FA0748416841F0E06141F00101E2
:107F7000416005B000BD000000300140001002402B
:107F8000000C0140000001402DE9F84F044690F834
:107F9000500000271D461646894601280DD04FF097
:107FA000010B84F850B0FFF78DFB804694F8510028
:107FB000BA46012804D0022793E00220BDE8F88FDA
:107FC000B9F1000F73D0002E71D0032084F8510056
:107FD000C4F854A0C4F83090A686E686C4F838A049
:107FE000A4F83CA0A4F83EA0C4F844A0C4F840A063
:107FF000A068B0F5004F09D12068016821F0400168
:1080000001602068016841F48041016020680168D6
:10801000490603D4016841F040010160E068B0F511
:10802000006F606803D030B3012E24D041E008B166
:10803000012E1CD1206B21680088C86006E02068F2
:108040008168890709D5216B0988C160206B801C74
:108050002063E08E401EE08609E0FFF733FBA0EBD3
:108060000800A84202D3681C01D031E07DB3E08E45
:108070000028E4D120E0206B21680078087306E036
:1080800020688168890709D5216B09780173206B05
:10809000401C2063E08E401EE0860AE0FFF712FBE2
:1080A000A0EB0800A84203D3681C02D010E017E040
:1080B0006DB1E08E0028E3D142462946204601F00A
:1080C00091FC08B120206065A06818B106E0FFE7C8
:1080D000032706E02068C16880680090606D00B1E9
:1080E000012784F851B084F850A0384666E77047FD
:1080F000704710B5040003D094F83D0010B107E0BC
:10810000012010BD002084F83C00204600F01EF83D
:10811000022084F83D00211D206801F053FD01205C
:1081200084F8460084F83E0084F83F0084F840005C
:1081300084F8410084F8420084F8430084F8440045
:1081400084F8450084F83D00002010BD7047000011
:1081500090F83D10012901D001207047022180F8DC
:108160003D100168CA6842F00102CA6000680E4909
:1081700088420ED00D4988420BD0B0F1804F08D014
:108180000B49884205D00B49884202D00A498842EF
:1081900004D1816801F00701062903D0016841F08C
:1081A0000101016000207047002C014000340140B3
:1081B0000004004000080040000C0040704770B50B
:1081C0000446006801694FF00005C943890715D4CA
:1081D000C168C943890711D4E91E016101202077D4
:1081E000206880698007204602D0FFF7E7FF04E09F
:1081F00000F098F8204600F096F82577206801698D
:10820000C943490717D4C168C943490713D46FF05C
:1082100004010161022020772068806910F4407F0A
:10822000204602D0FFF7CAFF04E000F07BF82046AA
:1082300000F079F8257720680169C943090716D449
:10824000C168C943090712D46FF008010161042015
:1082500020772068C0698007204602D0FFF7AEFF74
:1082600004E000F05FF8204600F05DF82577206814
:108270000169C943C90617D4C168C943C90613D4E3
:108280006FF010010161082020772068C06910F4A8
:10829000407F204602D0FFF791FF04E000F042F853
:1082A000204600F040F8257720680169C943C907D6
:1082B00008D1C168C943C90704D1891E016120469C
:1082C00000F032F820680169C943090609D4C16881
:1082D000C943090605D46FF0800101612046FFF70C
:1082E00006FF20680169C943490609D4C168C9432A
:1082F000490605D46FF040010161204600F01EF8E8
:1083000020680169C94389060BD4C168C94389063D
:1083100007D46FF0200101612046BDE87040FFF7EF
:10832000E7BE70BD7047704700680349884201D1BD
:10833000FFF7CEB970470000002C0140704770472E
:1083400010B504460068416994F83D20C1F3C0119E
:10835000212A0BD151B1416921F080014161606B4B
:1083600008B1FEF787FD204601F00DFD2068416948
:1083700094F83E20C1F38011222A0BD151B14169FA
:1083800021F040014161A06B08B1FEF773FD20466A
:1083900001F0E1FC002010BD70470000F8B5026854
:1083A00004461068D168536910F00F0F4FF00005B4
:1083B00053D003F0010601F4907737435FD0C20732
:1083C00005D0CA0503D5226C42F00102226442079F
:1083D00005D5DA0703D0226C42F00202226482073C
:1083E00005D5DA0703D0226C42F0040222640207AA
:1083F00007D501F02002324303D0226C42F008027C
:108400002264226C002A34D0800604D5880602D566
:10841000204601F0C1FC20684069216CC0F3801047
:10842000090700D430B3204601F095FC206841696B
:1084300049061BD5416921F040014161A06BA8B1FB
:1084400058494163A06BFEF739FD002811D0A06B9D
:10845000416B01B0BDE8F040084783060FD58B069D
:108460000DD52046BDE8F84001F096BC2046FFF748
:1084700093FFF8BD2046FFF78FFF2564F8BD266BFC
:108480002023012E52D1C60650D5CE064ED51068F7
:1084900050680090506940062AD5A16B0868406872
:1084A0000004000CEAD0A68D8642E7D9E0858869F1
:1084B000202818D0D06820F48070D06020684169EE
:1084C00021F0010141612068416921F040014161D1
:1084D00084F83E3025632068C16821F01001C16036
:1084E000A06BFEF7C7FCA08DE18D401A81B219E0A8
:1084F000A08DE18D401A81B2E08D0028BED0002908
:10850000BCD0D06820F49070D0602068426922F01E
:108510000102426184F83E3025632068C26822F07F
:108520001002C2602046FFF70AFFF8BD05062BD5F2
:108530000D0629D594F83D002128F6D1A068B0F5A4
:10854000805F01D12069B0B1206A411C216221689D
:1085500000784860E08C401E0004000CE084E4D108
:108560002068C16821F08001C1602068C16841F0C5
:108570004001C160F8BD206A0088C0F30800506067
:10858000206A801C2062E5E74006F3D54806F1D555
:10859000D168204621F04001D16084F83D3000F0E0
:1085A0008DFAF8BD519C000870B5040004D094F811
:1085B0003D00002510B106E0012070BD84F83C505C
:1085C000204600F023F8242084F83D002068C1688C
:1085D00021F40051C160204601F03AFC2068016995
:1085E00021F4904101612068416921F02A01416133
:1085F0002068C16841F40051C1602564202084F8DE
:108600003D0084F83E00002070BD00002DE9F047D9
:1086100086B0002500950195029503950446DFF884
:108620004CC20368924802210322102680274FF48F
:108630008068634555D1836943F4804383618369CE
:1086400003F480430493836943F0040383618069E6
:10865000DFF8209200F0040004900802CDE9000148
:10866000039269464846FEF71FFFCDE9008569463B
:1086700048460295FEF718FFDFF800827E49404623
:108680004FF4005AC0E90015C0E90257C8F810506D
:10869000C8F81450C8E9065AB946FEF7CBFD08B130
:1086A000FEF7AEF8754F7448C4F838804437143874
:1086B000C8F824403860C7E90165C7E903957D61C2
:1086C000C7E9065A3846FEF7B5FD08B1FEF798F837
:1086D00067630022052125207C62FFF77FF82520B3
:1086E00063E0DFF89CC1634564D1C36943F40033A0
:1086F000C361C36903F400330493836943F0200327
:1087000083618069DFF87C8100F0200004902020E4
:10871000CDE90001039269464046FEF7C5FE4020C0
:10872000CDE90005694640460295FEF7BDFE564874
:10873000416841F0E06141F008014160DFF83C81AF
:108740004D4908F1880840461431C0E90015C0E9D8
:108750000257C8F81050C8F81450C8F81850B94655
:10876000C8F81C50FEF766FD08B1FEF749F8434F04
:108770004148C4F83880CC372830C8F824403860E5
:10878000C7E90165C7E903957D61BD613846FD61B3
:10879000FEF750FD08B1FEF733F8676300220521AC
:1087A00026207C62FFF71AF82620FFF709F806B0AA
:1087B000BDE8F087DFF8D4C06345F8D1C36943F45E
:1087C0008023C361C36903F480230493836943F066
:1087D000080383618069CDE9008100F00800CDE9DC
:1087E0000320DFF8AC8069464046FEF75DFE4FF49B
:1087F0000060CDE90005694640460295FEF754FE4B
:10880000DFF890801C4940462839C0E90015C0E9CE
:108810000257C8F81050C8F814504FF4805AC8E9ED
:10882000065AB946FEF706FD08B1FDF7E9FF194FF4
:108830001148C4F8388044373C38C8F824403860C0
:10884000C7E90165C7E903957D61C7E9065A38465E
:10885000FEF7F0FC08B1FDF7D3FF676300220521A6
:1088600027207C62FEF7BAFF27209EE700380140F0
:10887000001002400008014058000240DC0E0020B9
:108880000044004000140140000001400048004046
:10889000000C0140EC0F00202DE9F84F044690F841
:1088A0003E009A4616460D46202853D1FDB1F6B13A
:1088B00094F83C0001284DD0012084F83C000027AA
:1088C0002764222084F83E002763FEF7FBFEA6857E
:1088D0008146E685A0684FF48058404501D1206963
:1088E00040B12E465FF0000584F83C7027E001207F
:1088F000BDE8F88F0026F7E74B46002220212046EE
:10890000CDF800A001F038FB08B10320F0E726B154
:10891000A06840451BD038B108E020684068C0F32B
:10892000080025F8020B07E0206980B12068406844
:1089300000F07F0006F8010BE08D401EE085E08D21
:108940000028D9D1202084F83E000020D0E72068FC
:108950004068EFE70220CBE790F83E30202B0ED1A5
:1089600059B152B190F83C30012B08D0012380F866
:108970003C300023036301F0C7BA01207047022096
:1089800070477047704700002DE9F843044690F89F
:108990003D001F4616460D4620284CD1C5B1BEB13C
:1089A00094F83C00012846D0012084F83C004FF0A8
:1089B0000008C4F84080212084F83D00FEF782FEC4
:1089C000A6848146E684A068B0F5805F03D004E009
:1089D0000120BDE8F883206928B12E465FF000052C
:1089E00084F83C800EE00026FAE78021204601F062
:1089F000C3FAA0B9AEB116F8010B21684860E08C4B
:108A0000401EE084E08C4B464FF0000200970028A7
:108A1000EBD14FF04001204601F0AEFA30B1032017
:108A2000D7E735F8020BC0F30800E6E7202084F80A
:108A30003D000020CDE70220CBE7000070B50446E2
:108A400090F83D00202830D169B362B394F83C001F
:108A500001282AD0012084F83C002162A284E2840B
:108A600000252564212084F83D00636B104898623E
:108A7000636B1048D862636B0F481863606B1346D2
:108A800045632668606B321DFEF712FC21686FF0AB
:108A90004000086084F83C502068416941F0800142
:108AA0004161002070BD012070BD022070BD00003A
:108AB0001F9D00084D9D0008619C0008704770478D
:108AC000FEE700F0B5FD00F02BFD642003F042F955
:108AD000F7E70000FEB500243648009401943449BD
:108AE00002940160891581600125057304750826CB
:108AF00006614FF460214460C161FEF74DF808B192
:108B0000FDF77EFECDE9004503246946294802941D
:108B1000FDF7C0FF08B1FDF773FE00950225694619
:108B200024480195FDF7B6FF08B1FDF769FECDE9D0
:108B3000005469461F48FDF7ADFF08B1FDF760FE20
:108B40000420CDE9004069461A48FDF7A3FF08B1AB
:108B5000FDF756FE0A200090052001906946154851
:108B6000FDF798FF08B1FDF74BFE0B2000900620A3
:108B7000019069460F48FDF78DFF08B1FDF740FEF3
:108B80000C2000900720019069460A48FDF782FFFB
:108B900008B1FDF735FE0D20CDE900066946054810
:108BA000FDF778FF002801D0FDF72AFEFEBD00008A
:108BB00000240140440D00202DE9F0430B488DB006
:108BC00000F11801D0E9048290E8F00091463022CB
:108BD0006846FCF725FB01AA694682E8F0030448D1
:108BE000FDF7F6FA0DB0BDE8F0830000B0F1000823
:108BF000C8000020214808B5416941F001014161E8
:108C00004069002200F00100009005210B20FEF7D2
:108C1000E5FD0B20FEF7D4FD002205210C20FEF718
:108C2000DDFD0C20FEF7CCFD002205210D20FEF716
:108C3000D5FD0D20FEF7C4FD002205210E20FEF714
:108C4000CDFD0E20FEF7BCFD002205210F20FEF712
:108C5000C5FD0F20FEF7B4FD002205211020FEF710
:108C6000BDFD1020FEF7ACFD002205211120FEF70E
:108C7000B5FDBDE808401120FEF7A2BD001002407E
:108C800000B591B000208DF800008020ADF82400E0
:108C9000ADF82C0007480D901D20ADF838000648AF
:108CA0000C9006480F9003486946001FFDF7D2FA62
:108CB00011B000BD8801002030050020100E0020FA
:108CC00070B5C2B00025359535A8369503F061F82A
:108CD000484C0121E062379537A8389503F065F8D4
:108CE00020633995012139A83A9503F05EF8606355
:108CF0003B9501213BA83C9503F057F83E4DA063FE
:108D00000022D5E90001CDE93D0101213DA803F094
:108D10000FF96062D5E90201384ECDE93F0101212A
:108D20003FA8326803F004F91035A06295E80F00FF
:108D300031AD85E80F00002131A803F017F82E4966
:108D400020621C2220316846FCF76AFA2C496846EA
:108D500003F0A4F8284960601C223C3107A8FCF706
:108D60005FFA002107A803F099F82349A0601C22AC
:108D700058310EA8FCF754FA00210EA803F08EF823
:108D80001D49E0601C22743115A8FCF749FA15A8AA
:108D9000316803F083F8184920611C2290311CA827
:108DA000FCF73EFA00211CA803F078F81249606134
:108DB0001C22AC3123A8FCF733FA002123A803F0CE
:108DC0006DF80D49A0611C22C8312AA8FCF728FAC9
:108DD00000212AA803F062F8E0614FF49661606A0E
:108DE00003F0C6F84FF47A71A06A03F0C1F842B0FC
:108DF00070BD0000380100200CF20008680300205C
:108E0000DC1000202DE9F04F85B000255348009577
:108E1000019502950395816941F010018161816995
:108E200001F010010491816941F0040181618169BF
:108E300001F004010491816941F04001816181697F
:108E400001F040010491816941F00801816181696B
:108E500001F008010491816941F02001816180697C
:108E6000DFF8FCA000F020004FF4A04404900122A1
:108E700021465046FEF721FCDFF8E8B04FF470477A
:108E8000002239465846FEF718FC002240F20471D1
:108E90003548FEF712FC4FF40048012241463348A2
:108EA000FEF70BFC4FF44069012249463048FEF7BB
:108EB00004FC009401240226CDE90246694650468E
:108EC0000194FEF7F1FA4FF42040CDE90005694620
:108ED00002945046FEF7E8FACDE900740294694620
:108EE00058460394FEF7E0FA4FF4E060CDE9000441
:108EF000029469461C480394FEF7D6FA4FF4784072
:108F0000CDE90005694602941748FEF7CDFA4FF403
:108F1000E070CDE90005694602941548FEF7C4FAF1
:108F2000CDE90084032569461048CDE90245FEF7E6
:108F3000BBFACDE9009469460D48CDE90245FEF73C
:108F4000B3FA0420CDE90004CDE90246694606489B
:108F5000FEF7AAFA05B0BDE8F08F0000001002404D
:108F600000180140000C01400014014000080140BD
:108F70000010014070B5022060F307040A4B4FF463
:108F8000E1321D462146094801F076FF21460320C3
:108F90002B4660F30701BDE8704004484FF41652B9
:108FA000001D01F069BF000025C000086803002013
:108FB000104810B50E4901604FF4827141600021E4
:108FC0004FF40062C0E9021292100161C0E905127B
:108FD0001022C0E90721416281620A21C162FEF7C5
:108FE00041FF002803D0BDE81040FDF709BC10BDCB
:108FF00000300140B80D00200549816605494166F1
:109000000549C166054901678022054904F098B801
:1090100005A20008E9A10008B5DC0008CDDC0008C5
:109020005011002010B50E4C0C480C2120604FF45C
:10903000E13060600020A060E060C4E90401A0614C
:10904000E0612046FFF7B0FA08B1FDF7D9FB2068D0
:10905000C16841F01001C16010BD0000003801403E
:10906000100E002010B50E4C0C480C2120604FF45F
:10907000165060600020A060E060C4E90401A061B7
:10908000E0612046FFF790FA08B1FDF7B9FB2068D0
:10909000C16841F01001C16010BD000000440040F3
:1090A000540E002010B50E4C0C480C2120604FF4DB
:1090B000E13060600020A060E060C4E90401A061CC
:1090C000E0612046FFF770FA08B1FDF799FB2068D0
:1090D000C16841F01001C16010BD000000480040AF
:1090E000980E00202DE9F34141781C4E1C4D0229B9
:1090F00001D22C1501E04FF40064BDF80410C1F357
:109100000B01ADF80410007810B14FF4304001E0CD
:109110004FF440500843DFF84C80ADF804004FF4A2
:109120000047002239464046FEF7C7FA0022214692
:109130002846FEF7C2FA4FF6FF73022201A9304615
:10914000FEF722FF012221462846FEF7B6FA012249
:1091500039464046FEF7B1FABDE8FC81B80D002063
:10916000001001400008014030B4042130BC014827
:10917000FEF79BBA00140140FEE7FEE701F098F805
:1091800001F050F8642002F0E5FDF7E72DE9F04129
:1091900046780F4F05460C4657F83600FCF7F2F8B4
:1091A00007EBC6014968FCF795F8FCF708FA81B2AD
:1091B00014F0FF4F05D00748844203DD40F6FF71ED
:1091C00000E000212846BDE8F041FFF78BBF00001A
:1091D0000C0000200000A041F8B505466427384681
:1091E00003F026FB060043D0002D41D03946FCF7A2
:1091F00030F83A4605F110013046FCF711F800242A
:1092000006EB840004220021FDF7E6FA641CE4B2B8
:10921000B4EB970FF4D3194C33463A462068082133
:109220008069D0F8A8C2E0472068022205F17003E7
:1092300080693821D0F8A872B847114800680090BA
:109240001048006810A1030CADF80230BDF80020F2
:10925000134804F0B1F9206802226B4680693A2174
:10926000D0F8A842A04718B90EA10D4804F0A4F9FF
:109270003046BDE8F84004F0EBBD00006803002074
:10928000F8F1000800F0070876657273696F6E3AAE
:1092900025642C20666C61673A25642E0D0A000057
:1092A000DC100020506172616D6574657220777208
:1092B00069746520746F20686F6C642072656769DB
:1092C00073746572206661696C6564210D0A000023
:1092D0002DE9FC5F0446806A8A46DFF83C8181798B
:1092E000022903D2B0F8070041BA06E0D0F807100F
:1092F000807A09BA21F0FF0101438DB2616B9AF8BF
:109300000020019201EB02108B46008887B243488F
:1093100030F8706FB0F802902846FCF73EF9019AD9
:10932000082303EB021200905BF80210FCF7B0F97F
:1093300057D89AF800100423626B03EB01110098D0
:109340005158FCF79BF94CD84FF48051881C8F4240
:1093500002D1A8F800503CE041F20102931C974270
:1093600002D1A8F8025034E0002287422DD1F12D1D
:109370002FD1B8F800104046B1420AD147884F4576
:1093800007D1A8F80420226908212046904724A18B
:1093900017E0B14208D043884B4505D04FF44071E7
:1093A000A8F8041027A10CE0B14205D04FF4807159
:1093B000A8F804102DA104E04FF40071A8F80410DF
:1093C00031A1394804F0F8F803E09F4201D1F02DB3
:1093D00013D0114A0223A668121D41F2280120462B
:1093E000B047B8F802100091B8F800302A462FA113
:1093F0002D4804F0E1F8BDE8FC9FA8F80420A8F887
:109400000220A8F800200092A66804236A4620469D
:10941000B04731A1D5E700007C01002020050020E5
:10942000737563636573733A205468652070617364
:1094300073776F726420697320636F7272656374EF
:10944000210D0A006572726F723A2057726F6E6753
:109450002075736572206E616D6520616E64207089
:10946000617373776F7264210D0A00006572726F09
:10947000723A2055736572206E616D652065727257
:109480006F72210D0A0000006572726F723A2055EA
:109490007365722070617373776F72642065727286
:1094A0006F72210D0A000000DC10002064617461FD
:1094B000203D2025642C757365725F6E616D65209B
:1094C0003D2025642C20757365725F636F64652091
:1094D0003D2025640D0A0000737563636573733A5C
:1094E00020436C656172204572726F722049636F10
:1094F0006E210D0A00000000074D084C4FF0FF36AA
:109500003146686B02F098FC0028F9D1206864218C
:10951000026B9047F4E70000380100206C03002044
:109520002DE9F04186B0182236496846FBF778FEEF
:109530003548364E017879B9012101705FF0000499
:1095400004EB440006EBC00018226946FBF768FEF6
:10955000641CA4B2082CF3D3202003F069F90500A1
:1095600001D104F075FC20212846FBF772FE00248F
:10957000DFF89C80274F01E0042C02D2C4F10700E1
:1095800000E0201F80B2FDF753FAFCF706F84146D1
:10959000FBF7F8FE3946FBF79DFE45F82400B8427C
:1095A00000D3002004EB440106EBC10245F824007F
:1095B0000146104601F066FB45F8240005EB8400E7
:1095C00004220021FDF708F9641CA4B2082CD3D3AF
:1095D000114810222B46006800218069D0F898427B
:1095E000A04740B92868FCF736F802460B460BA1A5
:1095F0000E4803F0E1FF284604F02AFC06B0BDE85F
:10960000F081000098F10008000000204C040020C8
:10961000E76E163C6360AABD68030020525F4144B8
:10962000203D203078252E33660D0A00DC10002006
:109630002DE9F0410024174F174D01E0052C01D210
:10964000384600E01548052C03D24FF40061A140D4
:1096500002E0621F4021914089B2FEF721F870B10B
:1096600000262868214632468069D0F8843298471F
:1096700038B1641CA4B2082CE0D3BDE8F081012607
:10968000EFE733462246BDE8F04105A1094803F063
:1096900093BF000000140140680300200010014047
:1096A000494E5F445B25645D203D20307825640D84
:1096B0000A000000DC10002070B50D4B00215C1486
:1096C0000846A50003E0012801D9224600E02A4609
:1096D0009E68164201D1012200E000228240D2B2EF
:1096E000401C1143C0B20328EDD3C8B270BD0000C6
:1096F000001801402DE9F04F8FB04FF0000B8DF8AE
:1097000004B0ADF828B0ADF830B0ADF82CB0DFF84B
:109710009491202003F08CF85FEA00087DD020218E
:10972000FBF797FD604D002401AA28682146806957
:10973000D0F87C3298479DF8041004F10806BDF873
:109740002800B1400143ADF82810286801AA21463D
:109750008069D0F86C3298479DF80400BDF830104D
:10976000B0400843641CA4B2ADF83000082CDBD331
:10977000FFF7A2FFBDF82810DFF830A10843ADF8CD
:109780002800DAF800005446022386680AAA41F24B
:109790000401B047052002F0DDFA206802230CAA7C
:1097A000846841F20501A047052002F0D3FA404E3B
:1097B0004FF0FF3203A9306A05F036F803AC07AF6B
:1097C00005E0042200212046FDF706F8241DBC42D6
:1097D000F7D3DAF8000054461023876803AA41F251
:1097E0000601B847052002F0B5FA28681022434662
:1097F00080690021D0F89072B84720682023424643
:10980000876841F20E01B847052002F0A3FA2868E4
:10981000082243468069002100E03CE0D0F8A052D5
:10982000A84720681023424685684FF48151A84715
:10983000052002F08FFAD9F8740020B380B2010A33
:1098400041EA0020ADF82C00206802230BAA8568AD
:1098500041F26201A8474FF48070ADF82C0005205A
:1098600002F078FA20680E2102699047052002F084
:1098700071FA206802230BAA846841F26301A047B1
:1098800086F801B007E0707828B901207070206870
:10989000032102699047404604F0DAFA0FB0BDE8B0
:1098A000F08F0000200500206803002084010020C4
:1098B000380100202DE9FC41064688466B2002F065
:1098C000B7FF050021D06B224146FBF7A9FC2C46CF
:1098D00005F1680710E02068FBF7BDFECDE9000147
:1098E000234642460BA1124803F066FE04220021E3
:1098F0002046FCF771FF241DBC42ECD3B468602302
:109900002A4641F230013046A0472846BDE8FC41D6
:1099100004F09EBA7370203D2025702C70203D20ED
:1099200025702C202A70203D20252E33660D0A003C
:10993000DC10002070B5806A8179022903D2B0F86A
:10994000070041BA06E0D0F80710807A09BA21F082
:10995000FF01014388B2114CF1281DD104F1100020
:109960006C220F490546FBF75BFC04F03DFA6C22C4
:109970000B490C48FDF718F804F056FA2046FFF79B
:109980002BFC094829468068FFF794FFBDE870402A
:1099900006A1134803F010BE70BD00002005002092
:1099A000CC00002000F807087C0100207375636379
:1099B0006573733A20466163746F727920736574BE
:1099C00074696E677320726573746F726564207357
:1099D00075636365737366756C6C79210D0A00009D
:1099E000DC10002038B50B4600920446002280218E
:1099F00000F008F8002804D0606D40F02000606599
:109A0000032038BD2DE9F8431E469146884604469A
:109A1000089DFDF757FE401B351AFDF753FE07461C
:109A200025480068C0F3CB30684338E0701C37D05D
:109A3000FDF748FEC01BA84203D215B1009860B3E1
:109A40002CE02068416821F0E00141606068B0F5D9
:109A5000827F0BD1A068B0F5004F02D0B0F5806FC7
:109A600004D12068016821F040010160A06AB0F5CE
:109A7000005F09D12068016821F40051016020686D
:109A8000016841F400510160012084F85100002078
:109A900084F850000320BDE8F8830025401E0090A4
:109AA0002068816838EA010004D000214945BDD111
:109AB0000020F0E70121F9E7D40300200B4C0C4D06
:109AC0004FF0FF364FF496673146206B02F0B4F941
:109AD0000028F9D1606A02F079FA2868416988475C
:109AE0003946606A02F044FAEEE7000038010020CF
:109AF000840100200446204603F0CAFFFBE7000073
:109B000010B5502080F31188BFF34F8FBFF36F8FD4
:109B100005F0D6F818B104494FF0805008600020D5
:109B200080F3118810BD000004ED00E030B595B061
:109B300028216846FBF78DFB14210AA8FBF789FB57
:109B400018210FA8FBF785FB01210804CDE90010BF
:109B50000025029502240491CDE907404FF4E0105E
:109B600009906846FDF7EEFF08B172B6FEE70AA954
:109B70000F2081E831004FF48060CDE90D0502210E
:109B80000AA8FDF7D3FE08B172B6FEE74FF4004015
:109B900011900F940FA8FDF753FE002801D072B664
:109BA000FEE715B030BD000002490148086070476B
:109BB0000050000808ED00E00148FEF700BB00007F
:109BC00074100020F0B502681C4B1D4D1D4E1E4F39
:109BD0001E4C4FF0804C984209D0A04207D06045FF
:109BE00005D0A84203D0B04201D0B84204D122F03F
:109BF000700E4A6842EA0E02984209D0A04207D08D
:109C0000604505D0A84203D0B04201D0B84203D18C
:109C100022F44075CA682A434D6922F080022A4323
:109C200002608A68C2620A688262984201D0A042D9
:109C300001D10969016301214161F0BD002C01409E
:109C40000004004000080040000C004000340140C7
:109C500010B5406A0021C185C184FEF79DFB10BD8F
:109C600070B5446A2068406994F83D10C0F3C01094
:109C70000025212904D118B1E584204600F083F89D
:109C80002068406994F83E10C0F38010222904D166
:109C900018B1E585204600F05EF8206C40F0100019
:109CA00020642046FEF778FB70BD10B50146406A7F
:109CB0000968096889061BD40021C1850168CA6842
:109CC00022F48072CA6001684A6922F001024A6186
:109CD00001684A6922F040024A61202180F83E1062
:109CE000016B012904D10168CA6822F01002CA6020
:109CF000016B012902D0FEF744FE10BD818DFEF7F5
:109D00001EFB10BD10B5406A016B012902D0FEF7A1
:109D100039FE10BD818D4908FEF711FB10BD10B54D
:109D20000146406A0968096889060CD40021C1848B
:109D300001684A6922F080024A610068C16841F006
:109D40004001C16010BDFEF7B9FE10BD10B5406AFC
:109D5000FEF7B5FE10BD0168CA6822F49072CA60B1
:109D600001684A6922F001024A61016B012904D1AC
:109D70000168CA6822F01002CA60202180F83E10F3
:109D80000021016370470168CA6822F0C002CA60FE
:109D9000202180F83D10704708B590F83E10222928
:109DA00001D0022008BD82684FF480539A4201D14D
:109DB000016921B1816A9A421BD04AB10AE0026866
:109DC000816A5268C2F308020A80816A891C08E02D
:109DD000026972B10268526802F07F020A70816AF9
:109DE000491C8162C18D491E0904090CC18503D03B
:109DF00019E002685268F1E70168CA6822F020029F
:109E0000CA600168CA6822F48072CA6001684A693F
:109E100022F001024A61202180F83E10016B0129E5
:109E200003D0FEF7AEFD002008BD002101630168EC
:109E3000CA6822F01002CA6001680A68D20602D518
:109E40000A6849680091818DFEF779FAEBE7000016
:109E500070B5044600680169E26821F4405111437D
:109E600001612169A0680843616908432168CA68E3
:109E700041F20C639A430243CA6020684169A269B7
:109E800021F44071114341611E492068884202D18A
:109E9000FDF712FE01E0FDF7FFFD00EBC00101EB55
:109EA0000012606864218000B2FBF0F3B3FBF1F3B1
:109EB0006FF018067343B2FBF0F5B2FBF0F605EB5A
:109EC0008305322303EB0515B5FBF1F5B6FBF1F67F
:109ED00005F0F00505EB0615B2FBF0F6B2FBF0F06D
:109EE000B0FBF1F06FF01802504306EB800003EB7B
:109EF0000010B0FBF1F0216800F00F0028448860EA
:109F000070BD00000038014038B5816282850025AF
:109F1000134604460564222084F83E00A26B1348D1
:109F20009062A26B1248D062A26B12481063A06BC1
:109F30000A4645632168A06B091DFDF7B9F9206841
:109F400001684168009184F83C50C16841F4807117
:109F5000C1602068416941F00101416120684169A7
:109F600041F040014161002038BD0000AB9C000879
:109F7000059D0008619C00082DE9F04198461746B0
:109F80000E460446069D1DE0681C1BD02DB1FDF752
:109F900099FBA0EB0800A84214D92068C16821F4FD
:109FA000D071C1602068416921F001014161202028
:109FB00084F83D0084F83E00002084F83C00032033
:109FC000BDE8F0812068006836EA000004D0002077
:109FD000B842D9D00020F3E70120F9E738B512489C
:109FE00000680168C943C90618D4016840680F4C6D
:109FF0000090206868B10C48FEF7A2F90C4920686F
:10A000000968828D4968511AC185816A0648FEF740
:10A01000A3FC0848006808B101F0E6FEBDE838403E
:10A020000148FEF7BBB90000100E0020840100209B
:10A03000DC0E00206801002038B513480068016874
:10A04000C943C9061BD401684068104C00902068C1
:10A0500080B10D48FEF774F90D4800684068C0F102
:10A06000FD0120684269C2F800114169FD220648DD
:10A07000FEF772FC0748006808B101F0B5FEBDE8C4
:10A0800038400148FEF78AB9540E00206C030020C6
:10A09000640F00206C01002038B513480068016887
:10A0A000C943C9061BD401684068104C0090206861
:10A0B00080B10D48FEF744F90D4800684068C0F1D2
:10A0C000FD0120684269C2F800114169FD2206487D
:10A0D000FEF742FC0748006808B101F085FEBDE8C4
:10A0E00038400148FEF75AB9980E00206803002056
:10A0F000EC0F00207001002008B507460020254D18
:10A10000254C461E00903146A86B01F095FE0028B4
:10A11000F9D13846FBF7B1FE002836D01FA12948F7
:10A1200003F04AFA284D002405EB44000021FFF714
:10A130002DF8641CE4B2042CF6D32448006810B156
:10A1400002690F219047224C206845F6A521009016
:10A15000B1EB104F01D11F4800E01F48009003F001
:10A1600043FE042269462046FCF71EFC03F05CFE19
:10A17000BFF34F8F19480168194A01F4E061114398
:10A180000160BFF34F8F00BFFDE720686421026BC1
:10A190009047B8E7380100206803002041626F75DE
:10A1A0007420746F20656E746572207570677261BB
:10A1B0006465206D6F6465202E2E2E2E2E2E2E0DA2
:10A1C0000A000000DC1000200100002084010020B3
:10A1D00000F0070834125AA53412A55A0CED00E01D
:10A1E0000400FA05FEE7000010B50C460A460146D9
:10A1F00001230348FEF750FB00B10024204610BDA8
:10A20000540E002010B50C460A4601464FF6FF7367
:10A210000348FEF7B9FB00B10024204610BD000042
:10A22000540E002070B5102002F002FB040001D192
:10A2300003F00EFE002020606060A060E060154822
:10A2400008222346006800218069D0F8A052A84760
:10A2500040B92068FBF7FFF902460B460EA11248F1
:10A2600003F0AAF9114E002504EB85000422002119
:10A27000FCF7B2FA54F8251006EB4500FEF786FF0E
:10A280006D1CADB2042DEFD32046BDE8704003F045
:10A29000DFBD000068030020575F4144203D2025BA
:10A2A0002E33660D0A000000DC10002001000020A3
:10A2B0002DE9F84300208DF8000006460446DFF83B
:10A2C0006090184D01E0042C01D2484600E0164889
:10A2D000042C804603D24FF48050A04003E0211F9D
:10A2E0004FF48070884087B2286831196A468069C7
:10A2F000D0F86C32984758B19DF800203946404656
:10A30000FDF7DBF9641CA4B2072CDCD3BDE8F883AD
:10A310009DF80030224605A1094803F04DF9F5E704
:10A32000000C014068030020001401404F55545FA9
:10A33000445B25645D203D20307825640D0A0000D3
:10A34000DC1000207CB5044600201D46164600297E
:10A350000BD0491ECDE90041044B6A4629463046E0
:10A3600000F0E8F8009A002111707CBD63AC000891
:10A370000907090E002804DB00F1E02080F8001432
:10A38000704700F00F0000F1E02080F8141D7047C6
:10A3900002E008C8121F08C1002AFAD170477047AE
:10A3A000002001E001C1121F002AFBD1704700000C
:10A3B0002DE9FF5F82B00021DDE90430020DDDF8F8
:10A3C00040B0034318D044F61050A2F2FF3242438B
:10A3D0001514119801281FD0A5EB0B00401C5FEA53
:10A3E000000A4FF000064E4FDFF83891B046504655
:10A3F00015D5CAF1000413E0119801244AA30128DD
:10A4000001D16FEA0B010298119AC0E90031C0E94D
:10A41000024206B0BDE8F09FCBF10000DFE7044642
:10A420000021404A491842EB0450CDE9001012E0E7
:10A43000E00707D032463B4640464946FBF7B4FAB0
:10A440008046894632463B4610461946FBF7ACFA31
:10A4500006460F466410002CEAD1DDE90401DDE96F
:10A460000023BAF1000F06DAFBF79EFA42464B468C
:10A47000FBF79AFA05E0FBF701F842464B46FAF77C
:10A48000FDFF04460E460022284BFBF717FB03D8BE
:10A490004FF0FF30014607E00022254B20463146B1
:10A4A000FBF7DBF9FBF7F2FA102409E0002C0ADBDA
:10A4B0000A220023FBF70CF9039B30321A55641E65
:10A4C00050EA0102F2D1641C039AC4F1110314444E
:10A4D000119A012A03D0012208430DD10AE0084352
:10A4E00004D000204FF0110B119072E7A3EB0B0585
:10A4F0006D1E0DE05B4504DD4FF0000205F1010526
:10A5000004E003DA4FF00002A5F10105002AECD0C7
:10A5100002981199C0E90231C0E9004579E70000CD
:10A52000000014400000F03F300000000000F04345
:10A530000000E03F2DE9FF4F95B09B468946064657
:10A5400000250FE2252877D100242746F84A01216B
:10A55000059400E0044316F8013F203B01FA03F0A4
:10A560001042F7D130782A2811D06FF02F033078BD
:10A57000A0F13002092A16D8059A44F0020402EB31
:10A58000820203EB42021044761C0590EFE759F873
:10A59000042B0592002A03DA504244F4005405903B
:10A5A00044F00204761C30782E2816D116F8010FDC
:10A5B00044F004042A280DD06FF02F023078A0F167
:10A5C0003003092B09D807EB870302EB4303C718B5
:10A5D000761CF3E759F8047B761C30786C280FD092
:10A5E00006DC4C2817D068280DD06A2814D104E066
:10A5F000742810D07A280FD10DE044F400140AE03A
:10A6000044F4801401E044F440147278824202D190
:10A6100004F58014761C761C307866280BD013DC89
:10A62000582877D009DC002875D04528F6D0462870
:10A63000F4D047281AD19DE118E0632835D064286A
:10A6400079D0652812D195E1702873D008DC67288D
:10A65000F1D069286FD06E280DD06F2806D1B5E0F3
:10A6600073282CD0752875D0782874D05A4617993D
:10A6700090476D1C75E1C4F30250022809D00328ED
:10A680000DD0D9F8001004280DD00D6009F104098F
:10A6900067E1D9F80010EA17C1E90052F6E7D9F8E6
:10A6A00000100D80F2E70D70F0E719F8041B8DF82B
:10A6B000001000208DF80100EA46012003E059F85F
:10A6C00004AB4FF0FF3061074FF0000102D40DE002
:10A6D00008F101018846B9420FDA8045F8DB1AF823
:10A6E00008100029F4D108E008F1010188468142F0
:10A6F000FADB1AF808100029F6D105985B46A0EBA2
:10A70000080721463846179A00F094FA284400EBCF
:10A71000080507E04DE029E10DE01AF8010B5A4663
:10A7200017999047B8F10108F7D25B4621463846A1
:10A73000179A13E142E00A220092C4F302524FF04A
:10A74000000A022A08D059F804CB032A4FEAEC7118
:10A750000AD00DE029E02AE009F1070121F0070203
:10A76000F2E802C1914609E00FFA8CFC4FEAEC7165
:10A77000042A03D14FFA8CFC4FEAEC71002907DA66
:10A780000A460021DCF1000C61EB02012D2202E0FF
:10A79000220504D52B228DF80420012203E0E207D4
:10A7A00001D02022F7E7904659E00A2102E010226A
:10A7B0000DE010214FF0000A00910BE010224FF045
:10A7C000000A44F004040827009203E008224FF036
:10A7D000000A0092C4F30252022A05D059F804CBB1
:10A7E0000021032A08D009E009F1070121F007023E
:10A7F000F2E802C1914605E01FFA8CFC042A01D15F
:10A800000CF0FF0C4FF00008220728D5702806D066
:10A81000009B83F0100353EA0A0305D00EE04022A8
:10A820008DF80420012208E05CEA010206D0302203
:10A830008DF804208DF8050002229046009B83F0DD
:10A84000080353EA0A030AD15CEA010201D1620754
:10A8500005D530228DF804204FF001087F1E5828BE
:10A8600004D034A003900EA802900DE036A0F9E7C2
:10A8700053466046009AFAF72BFF84460398825CA1
:10A880000298401E029002705CEA0100F0D102982A
:10A8900006A9081A00F1200A600702D524F48034C2
:10A8A00000E00127574502DDA7EB0A0000E0002089
:10A8B00000EB0A01009005984144401A0590E0031E
:10A8C00006D45B462146179A059800F0B3F9054473
:10A8D000002706E001A85A46C05D179990476D1CF5
:10A8E0007F1C4745F6DBE0030CD55B462146179AF3
:10A8F000059800F09FF9054404E030205A46179966
:10A9000090476D1C0099481E00900029F5DC08E076
:10A91000029802995A460078491C0291179990476B
:10A920006D1CBAF10001AAF1010AF1DC65E1000039
:10A930000928010030313233343536373839616215
:10A9400063646566000000003031323334353637D9
:10A9500038394142434445460000000000F058F9B0
:10A960000544761C307800287FF4ECAD19B02846F9
:10A97000BDE8F08F620700D4062709F1070222F034
:10A98000070CFCE80223E14603F000485FEA080CEC
:10A9900002D00FF2702C0DE05FEA045C02D50FF2DA
:10A9A000682C07E05FEAC47C02D00FF2602C01E063
:10A9B000AFF2700C4FF0FF3823F00043CDF850C0D9
:10A9C00065280CD006DC452809D046281DD047282C
:10A9D0003DD13DE0662818D067287ED138E00021BF
:10A9E000112F01DB112000E0781CCDE9000106A940
:10A9F0000EA8FFF7DDFCDDE90F010E9A039100219F
:10AA0000009207F1010A04914DE04FF000400097D9
:10AA1000CDE9011006A90EA8FFF7CAFCDDE90F0277
:10AA200003920E9B11990022DDF80CA00093049272
:10AA300011B9791C00EB010AB7EB0A0004D4C0F18C
:10AA4000FF3007F1010A0490AAEB0700019044E0EF
:10AA5000012F00DA01270021112F01DD112000E074
:10AA60003846CDE9000106A90EA8FFF7A1FCDDE9F3
:10AA70000F010E9A0391002104910092BA4621071A
:10AA80000CD40399514500DA8A46BAF1010F05DD6D
:10AA9000009AAAF10101515C302908D0B84202DACB
:10AAA00010F1040F06DA0121CDE9011015E0AAF139
:10AAB0000101E9E7002805DC049901440491AAEBAF
:10AAC000000102E0411C514500DD8A460499401A0C
:10AAD000401C01904FF000400290200704D40198E0
