:020000040800F2
:1050000018BF0020DD510008FF9700082590000818
:10501000FD9700089F620008D1A50008000000006D
:1050200000000000000000000000000045510008E2
:10503000DD6900080000000089510008719F000828
:10504000F7510008F7510008F7510008F751000820
:10505000F7510008F7510008F7510008F751000810
:10506000F7510008F7510008F751000811670008D0
:105070001D670008296700083567000841670008B8
:105080004D67000859670008F7510008F7510008FC
:10509000F7510008F7510008F7510008F7510008D0
:1050A000F751000829A00008F7510008F75100083F
:1050B000F7510008F7510008F7510008F7510008B0
:1050C000F7510008F7510008F7510008F7510008A0
:1050D000F75100084DA40008A9A40008B5A40008D1
:1050E000F7510008F7510008F7510008F751000880
:1050F000F7510008F7510008F7510008F751000870
:10510000F7510008F7510008F7510008F75100085F
:10511000F7510008F7510008F7510008F75100084F
:10512000F7510008F7510008F7510008F75100083F
:10513000DFF80CD000F002FD00480047E1B00008A5
:1051400018BF0020224B19680868B0E8F00F80F300
:105150000988BFF36F8F4FF0000080F311884EF085
:105160000D0E70470000000006480068006880F3DC
:10517000088862B661B6BFF34F8FBFF36F8F00DF51
:1051800000BF00BF08ED00E0EFF30980BFF36F8FB1
:105190000F4B1A6820E9F00F106008B54FF050006F
:1051A00080F31188BFF34F8FBFF36F8F09F00EFCB0
:1051B0004FF0000080F31188BDE8084019680868C6
:1051C000B0E8F00F80F30988BFF36F8F704700BF1E
:1051D00070040020EFF30580704700000648804708
:1051E00006480047FEE7FEE7FEE7FEE7FEE7FEE7CC
:1051F000FEE7FEE7FEE7FEE719A0000831510008D0
:10520000202A04DB203A21FA02F00021704721FA1B
:1052100002F3D040C2F12002914008431946704782
:1052200040EA01039B0703D009E008C9121F08C028
:10523000042AFAD203E011F8013B00F8013B521EA8
:10524000F9D27047D2B201E000F8012B491EFBD21F
:1052500070470022F6E710B513460A460446194681
:10526000FFF7F0FF204610BD30B505462A460B4635
:1052700012F8010B13F8014B08B1A042F8D01CB191
:10528000002802D06D1CF1E7284630BD421C10F802
:10529000011B0029FBD1801A704710B5002200E0E5
:1052A000521C835C8C5CA34201D1002BF8D1D8B294
:1052B000E1B2401A10BD30B505460020034600E0BB
:1052C0005B1C934205D2EC5CC85C201A01D1002C17
:1052D000F6D130BDF0B480EA0102D40F4200B2EB47
:1052E000410F02D20246084611464A0042D0C30D81
:1052F000DDB2C1F3C752AD1A202D35DAC1F3160164
:1053000041F4000204B15242C5F1200602FA06F14E
:105310002A411044B3EBD05F23D0C4B1012DA0EBE0
:10532000C35009DCF0BC4FF0004202EAC352DBB2CA
:1053300000F5000000F006BA400000F1807000EBBC
:10534000C350A0F1807040EAD170490009E04908DB
:1053500041EAC071A0EBC35000F50000400800EB2B
:10536000C350F0BC00F0E5B96142012202EB4101FB
:10537000001BF6E7F0BC704781F00041AAE780F01F
:105380000040A7E780EA010210B502F000434000A8
:1053900022D04A001FD0010E01EB1261C0F356006B
:1053A000C2F3560240F4000042F40002A0FB0220C7
:1053B00000047F39140400D0401C50EA124001D48C
:1053C0004000491EC2B20C0604EBD010401C40083D
:1053D000802A02D003E0002010BD20F00100002947
:1053E00000DA0020184310BD30B480EA010202F058
:1053F000004530F0004221F0004013D090B1C30DC1
:10540000D40DC2F31601C0F31600E41A41F40001F2
:1054100040F400027D34914201D3641C00E0490055
:10542000002C02DA30BC002070474FF4000000234B
:10543000914201D3891A034340084FEA4101F7D151
:1054400051B1914202D14FF0004105E002D24FF03C
:10545000010101E06FF0010103EBC450284430BCAE
:1054600000F067B9420005D0C0F3C75252429142E2
:1054700001DC0020704700EBC15070472DE9F04D72
:1054800081EA030404F0004B21F0004514464FF07C
:10549000000A23F0004150EA050220D054EA01023C
:1054A0001DD0C5F30A570246C5F31303C1F3130019
:1054B000C1F30A5640F4801543F48013A7EB0608A5
:1054C000101BD64608F2FD3873EB050002D308F135
:1054D000010801E092185B41B8F1000F03DA0020E7
:1054E0000146BDE8F08D00204FF480110646844649
:1054F0000EE0171B73EB050705D3121B63EB0503C7
:1055000006434CEA010C49084FEA300092185B410F
:1055100050EA0107EDD152EA030012D082EA0400FA
:1055200083EA0501084305D0101BAB4106D20122D6
:10553000002306E000224FF0004302E06FF001027A
:1055400053101AEB06004CEB085110EB0A0041EB2C
:105550000B01BDE8F04D00F023B970B521F0004318
:1055600003430CD0C1F30A550024D5EB040564EBCA
:105570000403D617AD1AB34102DB0020014670BD0B
:10558000201841EB025170BDC10F80EAE070084461
:10559000CA079623002100F0D5B8962300221146B1
:1055A00000F0D0B80EB540F2334102910021CDE9B0
:1055B00000110A460B4600F002F903B000BD20F0CE
:1055C0000040C10DC0F3160040F400007F2901DA4D
:1055D00000207047962903DCC1F19601C84070474E
:1055E00096398840704770B5C1F30A5201F0004502
:1055F0000024C1F3130140F2FF3341F480119A42B9
:1056000001DA002070BD40F233439A42A2F23342E5
:1056100003DC5242FFF7F4FD00E090402C43F1D050
:10562000404270BDC1F30A5210B5C1F3130140F2FC
:10563000FF3341F480119A4201DA002010BD40F29C
:1056400033439A42A2F2334203DC5242FFF7D8FDC1
:1056500010BD904010BD00F0004230F000400AD074
:10566000C10D01F56071C0F3160042EA0151C20894
:10567000400711437047002001467047002801DBB6
:10568000C0F10040002901DBC1F1004181427047B7
:10569000002801DBC0F10040002901DBC1F100411D
:1056A0008842704730B50B46014600202022012475
:1056B00009E021FA02F59D4205D303FA02F5491BE0
:1056C00004FA02F52844151EA2F10102F1DC30BDF6
:1056D0002DE9F05F0546002092469B468846064627
:1056E000814640241BE02846414647462246FFF7B4
:1056F00087FD53465A46C01A914110D311461846A9
:10570000224600F02DFA2D1A67EB01084F4622467B
:105710000120002100F024FA17EB00094E41201E61
:10572000A4F10104DFDC484631462A464346BDE881
:10573000F09F0029A8BF7047401C490008BF20F017
:105740000100704710B4B0FA80FC00FA0CF050EA87
:10575000010404BF10BC704749B1CCF1200421FA08
:1057600004F411FA0CF118BF012121430843A3EB03
:105770000C01CB1D4FEA00614FEA102042BF002010
:1057800010BC704700EBC35010440029A4BF10BCEC
:105790007047401C490008BF20F0010010BC704752
:1057A00010B5141E73F1000408DA401C41F1000129
:1057B00092185B411A4301D120F0010010BD2DE980
:1057C000F04D92469B4611B1B1FA81F202E0B0FA77
:1057D00080F22032904600F0C3F904460F4640EABA
:1057E0000A0041EA0B0153465A46084313D01146BA
:1057F00053EA010019D0C8F140025046FFF700FDFE
:1058000005460E4650465946424600F0A9F908435F
:1058100005D0012004E020463946BDE8F08D002087
:10582000054346EAE0762C4337430A986305E40AC9
:10583000A0EB08000022FD0A44EA47540A3002D5D2
:1058400000200146E9E7010510196941DDE9084535
:1058500000196941BDE8F04DA2E72DE9FE4F8046F1
:1058600081EA0300C00F0C46009021F0004123F0B4
:105870000045B8EB0200A94105D2404621469046BA
:105880001C460B46024623F00040104347D0270D2C
:10589000C7F30A00C3F30A510290401A019040284E
:1058A0006BDAC3F3130040F4801B0098924620B1DA
:1058B0000023D2EB030A63EB0B0B01985946C0F1AE
:1058C0004002504600F04CF906460D4650465946F7
:1058D000019A00F054F910EB08006141002487EAB6
:1058E000115284EAE7731A4340D0009A62B3019AD6
:1058F000012A4FEA075215DC001B61EB02014FF051
:10590000004202EA0752CDE90042001C41F5801135
:1059100032462B46FFF753FF03B0BDE8F08F4046F9
:105920002146F9E7001B61EB0201001C41F58013E1
:1059300000185B412018A2F5001747EB030140EA6D
:10594000D570B6196D4111E06D084FEA360645EA8B
:10595000C0754FEA0752001B61EB0201001C41F5C4
:10596000801149084FEA30000019514132462B4658
:1059700003B0BDE8F04FFFF713BF009801224000CD
:105980000023D0EB020263EBE073009821464FEA5C
:10599000E074B8EB000061EB0401E9E783F0004339
:1059A0005BE781F0004158E72DE9FE4F81EA0304EF
:1059B00004F0004421F0004100944FF0000B23F06C
:1059C000004350EA01045ED052EA03045BD0C3F303
:1059D0000A54C1F30A552C44A4F2F3340194A0FBF9
:1059E0000254C1F3130141F48011C3F3130343F4D0
:1059F000801301FB024400FB034E840A970A44EA29
:105A0000815447EA8357A4FB076802958D0A05FB7A
:105A100007854FEA932C04FB0C542705029D4FEA9F
:105A2000065847EA1637B5EB08056EEB070C870EEC
:105A3000920E47EA811742EA8312A7FB0201B6EBF6
:105A40000B0164EB00042B0D43EA0C335E1844EBAE
:105A50001C50DA465146E7FB0201C5F313044FEA36
:105A60000B3343EA14534FEA0432019C43EA060322
:105A7000A4F10C040294009CCDE900B4FFF79FFE52
:105A800003B0BDE8F08F00200146F9E7C1F30A52E8
:105A9000C1F3130140F2FF3341F480119A4202DA5C
:105AA00000200146704740F233439A42A2F233424B
:105AB00002DC5242FFF7A4BB00F052B810B500F070
:105AC000004420F00040C20DC0F3160040F4000076
:105AD0007F2A07DA7D2A00DA7D22763A00FA02F17F
:105AE000002008E0962A09DCA2F1760100FA01F113
:105AF000C2F19602D040FFF71CFE01E0963A9040BA
:105B0000002C00D0404210BD30B5041E71F10004DD
:105B100004DB4FF00044404264EB0101141E73F1BA
:105B2000000405DB1C464FF00043524263EB0403C4
:105B3000994208BF904230BD00207047064C074D87
:105B400006E0E06840F0010394E80700984710344D
:105B5000AC42F6D3FFF7F0FA5401010874010108D2
:105B6000202A04DB203A00FA02F10020704791401D
:105B7000C2F1200320FA03F3194390407047202A12
:105B800006DBCB17203A41FA02F043EAE07306E065
:105B900041FA02F3D040C2F1200291400843194675
:105BA000704770B58C1810F8015B15F0070301D130
:105BB00010F8013B2A1106D110F8012B03E010F870
:105BC000016B01F8016B5B1EF9D12B0705D4002393
:105BD000521E0DD401F8013BFAE710F8013BCB1A35
:105BE000921C03E013F8015B01F8015B521EF9D52A
:105BF000A142D8D3002070BD70B50446006881680A
:105C0000C943C90717D1816821F00101816002F001
:105C10000BF805460AE000BF02F006F8401B022818
:105C200004D920688068C043C00706D02068806817
:105C3000C043C007F0D0002070BDA06A40F0100043
:105C4000A062E06A40F00100E062012070BD10B582
:105C50000146406A826A12F0500F05D0006A026B5A
:105C6000BDE8104008461047816A41F40071816226
:105C700001688968C1F3424107290CD1017B51B900
:105C8000816A21F480718162816AC90403D4816AC6
:105C900041F00101816201F08FF910BD10B5406A39
:105CA000816A41F040018162C16A41F00401C16230
:105CB00001F084F910BD10B5406A01F07EF910BD05
:105CC000F8B500260446009600688168C943C907F4
:105CD0002DD0816841F001018160164816490068A5
:105CE000B0FBF1F000E0401E00900028FBD101F075
:105CF0009BFF054616E000BF01F096FF401B0228FF
:105D000010D920688068C043C0070BD0A06A40F05B
:105D10001000A062E06A40F00100E06284F82460B4
:105D20000120F8BD20688068C043C007E4D100208E
:105D3000F8BD00006C04002040420F002DE9F04F38
:105D400089B000200790054606908DF80C006C483D
:105D5000DFF8A481694E006806F03AFA06F0E5F92A
:105D6000DFF8A0A10024AB468DF80CB04FF47A7593
:105D7000D8F86420012103A89047284601F082FD4D
:105D8000072001F069F8034622465FA1404608F06B
:105D900025F89DF80C000D28EAD100273D46072084
:105DA00001F05AF86D1CEDB20744082DF7D3FB083B
:105DB0000AEB84055746224662494046AB6108F02B
:105DC0000DF8DFF84091BA4609F1600929464046CE
:105DD00003F02AF90746404659F8271008F06CFBF3
:105DE000032FF3D0042FF1D0022F79D0DCB3D5E903
:105DF00005010090081AFFF7D0FB55F8047C814696
:105E00005AF824003946FFF7B7FA4946FFF7ECFA8B
:105E10008146E86249460798FFF75CFA07900098C8
:105E2000FFF7BBFB4946FFF7ADFA3946FFF7A7FA84
:105E30000746686439460698FFF74CFA06903846DC
:105E4000FFF709FC05460F464846FFF704FC0346EA
:105E5000601E0093CDE90110CDE90457621E3AA1FE
:105E6000404607F0BBFF641CE4B2062CFFF47CAF95
:105E7000002E35D03A4C07982146FFF7B5FA074671
:105E8000C6F8800021460698FFF7AEFAC6F88400EF
:105E9000FFF7E1FB04460D463846FFF7DCFB024600
:105EA0000B4630A14046CDE9004507F097FF08F0CA
:105EB000B1FB06F110004FF6FF729821044600F086
:105EC000E1FFC6F8A8009C2221462A4800F080FF86
:105ED00008F0C0FB00E003E027A1404607F07EFF8A
:105EE00007484FF47A71006806F044F906F014F997
:105EF00009B00120BDE8F08FE8130020E80700207A
:105F0000F0010020B80000200D0A40506C6561735C
:105F10006520636F6E6669726D20746865207461B8
:105F2000726765742076616C75652C4144435B250E
:105F3000645D2076616C75652069733A25642E0D69
:105F40000A00000000FE0008505B25645D3A2566EB
:105F50002C20515B25645D3A25660D0A0000000087
:105F60000000A04053503A25662C53513A25660D47
:105F70000A00000000F807084041444320706172A5
:105F8000616D65746572732073746F7265642073DC
:105F900075636365737366756C6C79210D0A000017
:105FA00070B5124D286806F013F906F0BEF803F03C
:105FB00033F90F4C206858B10EA1194807F00EFFB5
:105FC0002068816A88472068016B2046884703E083
:105FD00014A1134807F002FF4FF47A71286806F005
:105FE000C9F8BDE8704006F097B80000F001002045
:105FF000B400002040537563636573733A417420A5
:106000006F626A65637420616C6C6F636174696F41
:106010006E207375636365656465642E0D0A000008
:10602000E8130020404572726F723A4174206F622B
:106030006A65637420616C6C6F636174696F6E2054
:106040006661696C6564210D0A0000002DE9F84F56
:1060500006000C46356A4FF000084FF0010A5FD089
:10606000002C5DD0002D5BD0284605F0DDF82068BF
:10607000FFF70CF982B223892168F06902F036FF3C
:1060800001F0D2FD07466FEA07090EE001F0CCFDF2
:10609000B84203D201F0C8FD484402E001F0C4FD5B
:1060A000C01BB1680989884204D8D5F800010028CE
:1060B000ECD002E0D5F80001E0B1D5F800110020E5
:1060C000685428466168FFF7CFF830B12B4616A117
:1060D0001F48226807F082FE22E008F1010000F06C
:1060E000FF08606800902B461AA11948226807F043
:1060F00075FE08E008F1010000F0FF082A4622A121
:10610000134807F06BFEB8F1030F06D34FF0000AF7
:1061100027A10F4807F062FE02E0BAF1000FA3D1F9
:106120005046BDE8F88F0000436F6D6D616E643AB4
:10613000257373656E742073756363657373667519
:106140006C6C792C5265636976653A2573000000A2
:10615000E813002053656E643A2573526573706FBF
:106160006E736520696E737472756374696F6E3ACD
:10617000257320616E64202573206D69736D6174D1
:1061800063682E0D0A0000004174206D6F64756C09
:106190006520646F6573206E6F7420726573706F15
:1061A0006E6421646174613A25732E0D0A0000004B
:1061B000404572726F723A52657472616E736D69A6
:1061C0007373696F6E2065786365656473207468A6
:1061D00065206D6178696D756D206E756D62657293
:1061E000206F662074696D6573210D0A0000000040
:1061F00070B5040004D0A568002D01D0E06930B965
:1062000070BDE26A29462046904748B10C35217995
:10621000A06801EB410100EB8100A842F1D870BDFC
:1062200021796FF00B0201EB4101A06802EB8101C3
:10623000451805A1144807F0D1FD29462046E26A19
:10624000BDE8704010470000404572726F723A4DD1
:106250006F64756C6520636F6E66696775726174D3
:10626000696F6E206661696C65642E4D6F64756C34
:10627000652069732072657374617274696E672E2C
:106280002E2E0D0A00000000E8130020002905D082
:106290000868002802D0898801F0C1BC7047FEE779
:1062A00070474069D0F80011012902D100780D280B
:1062B00001D00020704701207047000092B00020FC
:1062C000BC4CDFF8F4A28DF83C008DF8400083460A
:1062D0004FF47A700E90C4F800B0C4F804B0DAF845
:1062E000000000272346806908223946D0F89052E2
:1062F000A84700287ED008F08DF904F11006254645
:10630000B1460DF128086EE0281BC0F38700C7B91D
:10631000022816D02968B1F17C5F03DC00EB40074E
:10632000BF1C0EE0A54A914203DA00EB4007FF1CB8
:1063300007E0A34A914203DD00EB40073F1D00E068
:106340000027800730D0606B04900146FFF71AF8F1
:106350000499FFF717F89B49FFF746F80890706813
:10636000049030680499FFF707F809904FF08141D5
:106370002868FFF701F86FF00301FFF773F8099938
:10638000FFF700F80499FEF7A5FF0790206B014680
:10639000FEF7F8FF0799FEF7F5FF0899FEF79AFF59
:1063A0008949FEF7EFFF15E07068049030680499A2
:1063B000FEF7E2FF08904FF081412868FEF7DCFF0E
:1063C0006FF00301FFF74EF80899FEF7DBFF049921
:1063D000FEF780FF2860B0F5000F00DA002001C54D
:1063E00048F8040B08364D458ED3082F01D0092FED
:1063F00002D100E03AE00027676708F02BF9734EFE
:1064000000230A220AA9706A08F02CFCDAF80000BE
:1064100055460FAA80690021D0F87C3298470028A1
:1064200024D0286810AA08218069D0F86C329847D7
:1064300000281BD09DF84000012818D0216E20684C
:10644000FFF71CF906D9616EE068FFF717F901D96B
:10645000606F78B15D493C3181F800B081F801B0DE
:1064600081F802B081F803B081F804B094E0C4F878
:1064700074B09BE09DF83C0088B3544D5F463C35BA
:1064800085F803B0216C2068FFF702F905D82F705A
:1064900001206870A87030707EE0616C2068FFF7A2
:1064A000EDF803D837706F70EF7003E0307830BBD1
:1064B0000120A870A16C6068FFF7EAF810D8434883
:1064C0000121423081718288521C92B282800A2A54
:1064D00002D387808771A97029706F705CE00FE02C
:1064E000E16E6068FFF7CAF856D8384842308780B6
:1064F000AF702F700120687041F288300E904BE031
:10650000307808B186F800B0D4E90010FEF734FF07
:10651000E16CFFF7BDF80CD8216D2068FFF7AEF8ED
:1065200007D22A4901203C31487041F288300E9050
:1065300003E026483C3080F801B0616D6068FFF7E9
:10654000A7F807D8214901203C318870087181F8EB
:1065500001B00AE0A16E6068FFF790F805D81B490A
:106560003C3181F802B081F804B0A16D2068FFF7DA
:106570008FF804D8154901203C31C87008E0E16D5E
:106580002068FFF77BF803D810483C3080F803B050
:106590000E493C3181F800B0DAF800000B4B0522BF
:1065A00080693C330021D0F87852A8470E9805F056
:1065B000E5FC8DE6E80700200004002000006040B4
:1065C0000000A8410000C04241764F40C8010020B1
:1065D000C1F30B0103F0C4B870B50D00044627D019
:1065E000342006F01DFD206008B908F047F8216846
:1065F00015F81C0B0870216801CDC861216855F899
:106600001C090862F5E802122068C0E901122ECDCB
:1066100020680C3080E82E00216806480863216855
:106620000548486221680548886221680448C862B4
:1066300070BD00004D6E00088D620008F161000819
:106640004D6000082DE9F0410D0004464FD0402078
:1066500006F0E6FC206008B908F010F8A88C06F0F7
:10666000DFFC070001D108F009F8A88D06F0D8FC7E
:10667000060001D108F002F8A98C3846FEF7E9FDC2
:10668000A98D3046FEF7E5FD21682878087021685D
:106690001848486021681848886021681748C86011
:1066A0002168174808612168164848612168164822
:1066B000886121681548C861206807622168002048
:1066C000C8842268A98C918421688E622268A98D71
:1066D00091852168C8852168686B48632168288F87
:1066E00008872168286B08632168E86BC863BDE8E8
:1066F000F0810000AD6B0008F16B0008716B0008C1
:10670000D16A0008156B0008E1690008DF6900081C
:10671000014800F01DBF00006C100020014800F08F
:1067200017BF00003C130020014800F011BF00001B
:10673000F8120020014800F00BBF00002C120020CE
:10674000014800F005BF0000E8110020014800F0FA
:10675000FFBE000070120020014800F0F9BE0000EA
:10676000B412002030B590F840500124AC40C56B05
:106770006C60046863604368102B036803D0996001
:106780000068C26030BD9A600068C16030BD000022
:106790002DE9F04F8FB06C4806906D48DFF8ACB132
:1067A000006805F015FD05F0C0FC002600200B90E8
:1067B00004460A90674806EBC60100EB46096748A5
:1067C000DFF894A100EB810808E03CB14FF0FF3006
:1067D00000EB442108EB8400C0F8901008EB84051E
:1067E0002346D5F89000009032465DA1069807F048
:1067F000F5FA4846D5F89010FFF7EAFE29460698C4
:1068000002F012FC074606985AF8271007F054FECB
:10681000032FF3D0042FF1D0022F7DD0002C41D0D4
:1068200055F8040C019058F8240014350199FEF72E
:10683000A3FD0390D5E91E70C01BFEF7AEFE0399C1
:10684000FEF7D2FDC5F80801014600900A98FEF750
:1068500041FD0A90DDE90001FEF794FD0390384602
:10686000FEF79BFE0399FEF787FD0746C5F89801E2
:1068700039460B98FEF72EFD0B903846FEF7EBFEDF
:1068800005460F460098FEF7E6FE0DF10C0C621E61
:106890008CE8A4008DE84300631E324635A10698BB
:1068A00007F09CFA641CE4B2092C8ED36FF0020549
:1068B00029460A98FEF7D6FD0BEBC604074644F8B6
:1068C000880F29460B98FEF7CDFD6060FEF7C3FEEA
:1068D00004460D463846FEF7BEFE8DE843003246BC
:1068E0002CA1CDE90445069807F078FA4846002126
:1068F000FFF76EFE761CF6B2042EFFF457AF07F0DA
:1069000089FE0BF110004FF6FF729821044600F04B
:10691000B9FA9C22214600E00AE0CBF8A8002448FE
:1069200000F056FA07F096FE22A1069807F056FAF4
:1069300007484FF47A71006805F01CFC05F0ECFB89
:106940000FB00120BDE8F08FE8130020E807002019
:10695000F00100200100002018010020A8050020FF
:106960004461632E785B25645D5B25645D25640D61
:106970000A0000006B5B25645D5B25645D3A25665B
:106980002C20475B25645D5B25645D3A25660D0A16
:1069900000000000534B5B25645D5B305D3A25666B
:1069A0002C53475B25645D5B315D3A25660D0A001B
:1069B00000F807084044414320706172616D6574BE
:1069C0006572732073746F72656420737563636599
:1069D000737366756C6C79210D0A000070477047FF
:1069E0002DE9F8430D46816A04464FF0080888797E
:1069F000022803D2B1F8070040BA06E0D1F8070038
:106A0000897A00BA20F0FF000843FEF7BDFD2D494A
:106A1000FEF7EAFC00902B78D4E90C6208EB031136
:106A2000294F5158FEF734FE25D829780422606B8F
:106A300002EB011141580098FEF720FE1BD836B139
:106A40002878218F884202D2009946F8201007F05A
:106A5000E1FD07F110004FF6FF729821064600F0A5
:106A600011FAC7F8A8009C223146184800F0B0F986
:106A700007F0F0FD13E02A78616B08EB021009586B
:106A80000098FEF7FBFD01D2012100E00221E3693D
:106A90002A7820469847287856F82000009004224B
:106AA0000021684600F0D4F82978606BA56800EBF7
:106AB0000110042300886A4681B22046A847BDE839
:106AC000F883000000002041E807002000F80708D4
:106AD0001EB40DA31CCB8DE81C000A0A8DF80820FB
:106AE0008DF809100021C184016A009A0A60019A98
:106AF0004A60BDF808200A81C18C0A31C18441680E
:106B000003B010BC084700005AA5098200845A014E
:106B10000000000038B50446806A002501785A2933
:106B200020D14178A5291DD180888DF8005041BA27
:106B3000228F13E0636B03EB00131B688B420AD1B7
:106B4000C2B20C20616B00EB02100A5852B16946C8
:106B50002046904706E0401C8DF800009DF800009C
:106B60008242E7D8E18DA06AFEF773FBE58538BD68
:106B70003CB40CA4090AD4E90034CDE900348DF802
:106B800004108DF805200021C184016A009A0A6072
:106B9000BDF804208A80C18C891DC184416802B07F
:106BA00030BC08475AA506830000000038B50446EB
:106BB000C08C4FF6FF72C01E81B2206AC01C00F06C
:106BC00061F9ADF80000E18C206A0844BDF80010BE
:106BD0000180E08C801C82B2E284216AE06B02F0CA
:106BE000DFF9E06B00680168C9434906FBD438BD92
:106BF0007CB51D46134614A20446D2E90002CDE935
:106C00000002681D8DF80200080A8DF804008DF856
:106C100005100020E084206A00992A460160BDF832
:106C200004108180E08C801D80B2E084216A0844D9
:106C30001946FEF7F5FAE08C2844E084616802B05A
:106C40002046BDE8704008475AA5008200000000B9
:106C5000F0B5540800230A44521ED5B209E0CE18FC
:106C6000EF1A825D10F807C000F806C05B1CC25521
:106C7000DBB2A342F3D3F0BD72B6FEE710B500F06D
:106C8000B1FE03493420C860BDE8104000F060BE8A
:106C90000020024006490020C8610648016941F011
:106CA00004010161016941F0400101617047000088
:106CB000E014002000200240064A0021D16106496C
:106CC0000A6942F002020A614861086940F0400026
:106CD00008617047E014002000200240044B0022AD
:106CE000DA61044A136943F00103136101807047BC
:106CF000E01400200020024010B5A0F10063B3F5BD
:106D0000002F03D812B109B1002305E0002010BD07
:106D100030F8014BCC545B1C9342F9D3012010BDD9
:106D200014480022C168CB06134904D5CA6942F051
:106D30000202CA611022C3685B0705D5CB6943F024
:106D40000103CB6142F00402C369DB0707D0CB69C2
:106D500043F00403CB61C16921F00101C161A2F5D7
:106D60008071013901D0C2607047C16921F0010111
:106D7000C161704700200240E014002070B5054654
:106D800000F052FF0646114C09E0681C07D025B1FF
:106D900000F04AFF801BA84201D9032070BDE068C3
:106DA000C007F2D1E068800601D52020E060E068ED
:106DB000C00605D4E069C00702D1E068400703D5EA
:106DC000FFF7AEFF012070BD002070BD0020024023
:106DD0002DE9F04186B005460024A0F10060174679
:106DE00088460094B0F5002F11D887B1B8F1000F94
:106DF0000DD000F0F7FD01200194CDE903501249B8
:106E00003420C860694601A800F04EFD14E000205F
:106E100006B0BDE8F08100BF38F8142005EB44014E
:106E200016460023012000F09DFD35F81400B04205
:106E300001D00120ECE7641CB4EB570FECD300F059
:106E400087FD0098E4E70000002002400068002869
:106E500001D007F013BC70470021084A082801D967
:106E60000020704702EB8000054A02E050F8203B0A
:106E700019449042FAD3C808704700003C0F002024
:106E80003C10002070B50446104600234AF201056C
:106E900010E000BF14F8012B50400022C60702D0BA
:106EA00085EA500000E04008521C92B2082AF5D34F
:106EB0005B1C9BB28B42EDD370BD0000F8B5002483
:106EC000009490F824202546012A12D0012280F84F
:106ED00024204A681F23072A0DD20668776B521EAA
:106EE00002EB820293409F430B6893401F437763FA
:106EF00019E00220F8BD06680D2A0AD2376BD21FAE
:106F000002EB820293409F430B6893401F43376319
:106F100009E0F76A0D3A02EB820293409F430B6847
:106F200093401F43F7620A68072306680A2A0AD3B8
:106F3000F7680A3A02EB420293409F438B68934002
:106F40001F43F76008E0376902EB420293409F431A
:106F50008B6893401F4337610A68102A01D0112AB9
:106F600020D1124B02689A4217D193681B0219D4A0
:106F7000936843F4000393600968102912D10C4907
:106F80000C4A0968B1FBF2F101EB8101490000E014
:106F9000491E00910029FBD104E0816A41F02001E3
:106FA0008162012480F824502046F8BD002401406D
:106FB0006C04002040420F0070477047704700008B
:106FC0002DE9F04104004FF000057FD0A06A0026B3
:106FD00028B9E66284F82460204600F081F8204653
:106FE000FEF70AFEA16AC90600D420B1A06A40F0EB
:106FF0001000A0626AE0A16A21F4885141F0020108
:10700000A162334923688B42E16904D1B1F5402F75
:1070100001D14FF40021277B4FF4807C41EA4702E5
:1070200061680A43A168614508D0012906D00021A2
:1070300094F814E0BEF1010F02D00AE06146F7E7D0
:10704000C7B1A76A47F02007A762E76A47F00107C0
:10705000E7625F6827F469470F435F6023689968B8
:107060001C4F394011439960A16861450BD001293B
:1070700009D00CE0DFF860E0A7690EEB47370F435B
:1070800047F40061E5E7218A0D05A5F58015216823
:10709000CB6A23F470032B43CB62216889680F4BC2
:1070A0001940914208D1E662A16A21F0020141F043
:1070B0000101A162BDE8F081A06A20F0020040F069
:1070C0001000A062E06A40F00100E0620120F1E7F8
:1070D000003C0140FDF7E1FF00E0FFFFFE0E1FFF57
:1070E000F0B585B0002605460096019602960396F7
:1070F0000068214988423DD12049886940F40070E8
:107100008861886900F400700490886940F010007C
:107110008861886900F010000490886940F00400DC
:10712000886188690F24032700F00400CDE9004737
:1071300004906946124800F069FCCDE900476946B1
:10714000104800F063FC114C0F48C4E90006802091
:10715000C4E9026080002061800060612020A0619D
:107160003803E061204600F017FB08B1FFF784FD0B
:107170002C62656205B0F0BD0024014000100240A1
:107180000010014000080140080002406C1000207F
:107190002DE9F047894604463B4900683B4F0E1DE8
:1071A0009046884201D0B84207D1306810F4702F61
:1071B00003D001252846BDE8F08794F82400012873
:1071C0000CD0012084F824002046FEF779FD05004C
:1071D0004FF0000004D084F82400EBE70220EAE737
:1071E000A16A40F60162914341F48071A162216875
:1071F000B94218D1326812F4702F14D0A16A41F448
:107200008011A1623168490505D5A16A21F40051B8
:1072100041F48051A162A16AC9040AD5E16A21F052
:107220000601E16206E0A26A22F48012A2624968C5
:10723000E9E7E06284F82400216A15488862216A3F
:107240001448C862216A1448086321686FF002007C
:1072500008602068816841F480718160216843463C
:107260004A464C31206A00F0D5FA20688168C1F3A3
:1072700042410729816803D041F48011816099E778
:1072800041F4A001FAE70000002401400028014079
:107290004F5C0008B75C00089D5C000870B543793E
:1072A000012B1CD0012646710223037105682B684F
:1072B00002F0100440F6FE72A2409343D1E900218F
:1072C0000A43A2401A432A6001680A68C023A34007
:1072D0009A430A60067100214171084670BD022080
:1072E00070BD70B5040003D02079002510B105E011
:1072F000012070BD6571204600F008F80220207161
:10730000256101202071002070BD000000B585B00E
:107310000021009101910291039100680E49884279
:1073200018D10E48C16941F00051C161C16901F035
:1073300000510491816941F00401816180696946CD
:1073400000F00400049030200090032001900448D5
:1073500000F05CFB05B000BD00740040001002406E
:107360000008014018B5046800940068104421B179
:10737000143000900360002018BD0830F9E770B5A4
:107380004279012A1ED0012242710223037104684E
:10739000266801F0100302FA03F52E432660002947
:1073A000016811D00C6804F470153C249C40A5427F
:1073B00003D14B6843F002034B600271002141711D
:1073C000084670BD022070BD0B68C3F383030F2B0A
:1073D000F3D14B6843F00103EEE710B590F82110AC
:1073E0000022022905D00421816380F82020012099
:1073F00010BD01680B6823F00E030B6001680B6879
:1074000023F001030B6090F84030C46B012101FAB6
:1074100003F3636080F8211080F82020104610BD2F
:107420002DE9F05F90F821100024022903D00421F7
:107430008163012485E001680A6822F00E020A6077
:1074400001680A6822F001020A603F4E3E4FB21501
:10745000DFF8F4C0DFF8F090DFF8ECA0DFF8E8B078
:10746000DFF8E4E00168783F13011502ACF1640C29
:10747000A9F15009AAF13C0AABF1280BAEF1140EA8
:107480004FF48018B14227D9B9420ED0614512D0CD
:1074900049451DD0514518D0594518D0714501D1E5
:1074A000424615E0294EB14201D1012210E0274E9B
:1074B0001436B14201D110220AE0244E2836B142DE
:1074C00006D0224A3C32914201D11A4600E02A46B7
:1074D0001E49091F0A602BE0B94213D0614517D03D
:1074E000494522D051451DD059451DD0714501D186
:1074F00042461AE0B14202D14FF0807215E0134EBD
:10750000B14201D1012210E0104E1436B14201D136
:1075100010220AE00D4E2836B14206D00B4A3C320A
:10752000914201D11A4600E02A46074980394A6053
:10753000012180F82110002180F82010416B01B159
:1075400088472046BDE8F09F8000024008040240C2
:107550002DE9F05FC16B0A6801680B68046C4FF09D
:10756000040808FA04F8844D844E854FDFF814C2ED
:10757000DFF81492DFF814A2DFF814B2DFF814E297
:1075800018EA020F65D05FEA437862D50A6892066E
:1075900003D40A6822F004020A60DFF8F0814FF495
:1075A0008062016808F1140813011402414524D9CE
:1075B000A9420DD0B1420FD0B9421AD0614515D0C1
:1075C000494515D0514501D1120312E0594501D169
:1075D00004220EE0714501D140220AE06D4D1435C0
:1075E000A94206D06B4A2832914201D11A4600E0E6
:1075F00022466749091F0A6029E0A94213D0B14217
:1076000015D0B94220D061451BD049451BD051450A
:1076100002D14FF4800217E0414502D14FF0806261
:1076200012E0594501D104220EE0714501D14022FA
:107630000AE0584D1435A94206D0564A28329142E4
:1076400001D11A4600E022464B4908394A60C16A16
:1076500071E04FF0020808FA04F818EA020F70D03F
:107660005FEA83786DD50A68920606D40A6822F02C
:107670000A020A60012180F82110DFF810814FF41E
:107680000072016808F1140813011402414524D95D
:10769000A9420DD0B1420FD0B9421AD0614515D0E0
:1076A000494515D0514501D1120312E0594501D188
:1076B00002220EE0714501D120220AE0354D143539
:1076C000A94206D0334A2832914201D11A4600E03D
:1076D00022462F49091F0A6029E0A94213D0B1426E
:1076E00015D0B94220D061451BD049451BD051452A
:1076F00002D14FF4001217E0414502D14FF0007261
:1077000012E0594501D102220EE0714501D120223B
:107710000AE0204D1435A94206D01E4A2832914273
:1077200001D11A4600E02246134908394A60002177
:1077300080F82010816A00291CD0BDE8F05F08475E
:10774000FFE70825A540154214D01A0712D50A688C
:1077500022F00E020A6090F84020C36B012101FA6A
:1077600002F25A60816380F82110002180F8201015
:10777000016BE0E7BDE8F09F080002401C000240FA
:107780003000024044000240580002406C000240B9
:10779000080402401C04024030B560B11A4B026874
:1077A00014219A4209D2194B1344B3FBF1F1890019
:1077B000016417490AE0012030BD134B5B421344BA
:1077C000B3FBF1F1890001640F490839C16302215B
:1077D00080F82110136843F6F0718B43F0E901142F
:1077E0002143D0E902452C432143046921434469E4
:1077F000214384692143194311600021416301221F
:1078000042770177084630BD08040240F8FFFDBF0B
:107810000000024070B5044690F8200000250128C1
:107820000CD0012084F8200094F821600020012E63
:1078300006D084F820000225284670BD022070BDC5
:10784000022684F82160A0632068066826F00106FD
:1078500006602046FEF786FFE06A0028206801687F
:1078600002D041F00E0106E021F004010160206821
:10787000016841F00A0101602068016841F00101DE
:107880000160D9E770B5044600F0CEF90546601CEA
:1078900002D004480078044400F0C6F9401BA0421E
:1078A000FAD370BD600400202DE9F0470546264854
:1078B0000F460126017E01290FD001218146017664
:1078C0002868DFF888804CF25034022808D0A2469D
:1078D0002046FFF753FAA8B131E00220BDE8F08757
:1078E0002046FFF74BFA08BB0120FFF7D3F92046EB
:1078F000FFF744FAD8F81010064621F00401C8F842
:1079000010101CE04FF0FF303860AC6811E02046EA
:10791000FFF7D2F95046FFF731FAD8F810100600F9
:1079200021F00201C8F8101001D03C6007E004F516
:107930000064D5E9020100EBC120A042E7D8002194
:1079400089F818103046C9E7E014002000200240F2
:107950000348016941F08001016100207047000087
:10796000002002402DE9F05F07461C4888460024AD
:10797000017E15461E46012909D001218146017666
:107980004CF2503A5046FFF7F9F918B122E00220C4
:10799000BDE8F09F012F02D0022F00D00427D3466C
:1079A000DFF83CA0220128463146FDF729FC81B2D0
:1079B00008EB4400FFF792F95846FFF7DFF9DAF8D1
:1079C000102022F00102CAF8102018B9641CE4B299
:1079D000BC42E7D3002289F81820D9E7E014002040
:1079E00000200240064900200A69120607D5054A10
:1079F0004A60054A4A600969090600D501207047B6
:107A00000020024023016745AB89EFCD2DE9F84FF7
:107A1000DFF8C891002409F1040A0AF1040B234697
:107A20000F270BF1040ED1E00125A54006EA05025F
:107A3000AA4276D1DFF8A8C14E68A6EB0C086645CD
:107A40002BD00DDC032E34D005DC36B3012E19D03B
:107A5000022E2FD11BE0112E16D0122E2AD119E0A2
:107A6000B8F5881F19D006DCB8F5803F15D0B8F5F9
:107A7000801F1FD111E0B8F5001F0ED0B8F5041F0C
:107A800018D10AE0CB6815E0CB681B1D12E0CB686B
:107A900008330FE0CB680C330CE08B682BB1012B63
:107AA0004FF0080303D0456104E0042302E00561C0
:107AB00000E00023FF2A01D8064601E000F1040699
:107AC0004FEA840501D9A5F12005D6F8008007FA10
:107AD00005FC28EA0C0803FA05F548EA0508C6F88B
:107AE00000804D68ED0070D53E4DAE6946F0010650
:107AF000AE61AD6924F0030605F0010500953A4D2D
:107B000006EB050CDCF80850A607360F07FA06F856
:107B100025EA0805DFF8D480404503D14FF000087E
:107B200025E052E0DFF8C880404502D14FF001085F
:107B30001DE0DFF8C080404502D14FF0020816E09A
:107B4000DFF8B480404502D14FF003080FE0DFF8C2
:107B5000AC80404502D14FF0040808E0DFF8A08077
:107B6000404502D14FF0050801E04FF0060808FA41
:107B700006F848EA0508CCF808804D68D9F8006096
:107B8000ED034D4601D5164300E096432E604D6847
:107B9000DAF80060AD03554601D5164300E0964380
:107BA0002E604D68DBF80060ED025D4601D516439E
:107BB00000E096432E604D68DEF80060AD02754629
:107BC00001D5164300E096432E60641C0A681646F1
:107BD000E2407FF429AFBDE8F88F000000040140C7
:107BE0000000111000100240000001400008014098
:107BF000000C014000100140001401400018014039
:107C0000001C01408068084000D001207047C26815
:107C100021EA02030A4043EA0241016170470AB1C6
:107C2000016170470904FBE7014880687047000064
:107C30006004002002488168027811448160704726
:107C400060040020074810B5016841F01001016090
:107C5000032000F095F8002000F006F800F03EF850
:107C6000002010BD0020024000B5014687B0002270
:107C7000192000F065F8192000F054F813488169C4
:107C800041F400618161806905A900F400600690FB
:107C9000684600F093F900F0C1F90D490D4AB0FBB8
:107CA000F1F10D48491E0260416040F2E7320021C7
:107CB000C0E90321816000F0CEFC10B1012007B0C3
:107CC00000BD054800F0F6FCF9E700000010024096
:107CD00040420F00002C0140801300200F4808B5DF
:107CE000816941F001018161816901F00101009127
:107CF000C16941F08051C161C069002200F080502B
:107D000000900F21901E00F01BF80548416821F0FB
:107D1000E06141F00071416008BD000000100240C8
:107D200000000140002809DB00F01F020121914002
:107D30004009800000F1E020C0F800117047000009
:107D4000F0B40E4B1B680C46C3F30223C3F10705C6
:107D5000042D00D90425191D072901D2002300E0B4
:107D6000DB1E012606FA05F1491E214099409E407E
:107D7000761E16403143F0BC02F0D7BC0CED00E09B
:107D8000064900F0070208684FF6FF03184040EA72
:107D90000220034A10430860704700000CED00E029
:107DA0000000FA052DE9F84305460078354CC00778
:107DB00054D0E0690026C00008D4E06940F080504B
:107DC000E061E069012600F0805000902E480168D3
:107DD000C90512D40168804641F480710160FFF743
:107DE00023FF074605E000BFFFF71EFFC01B642806
:107DF00023D8D8F80000C005F6D5206A10F44070EA
:107E000021D0A98801F4407181421CD0206A1F4909
:107E1000012220F440700A6000220A602062C0073C
:107E200011D0FFF701FF074641F2883808E000BF94
:107E3000FFF7FAFEC11B414502D90320BDE8F883D4
:107E4000206A8007F4D5206A696820F440700843EE
:107E500020621EB1E06920F08050E0612878800740
:107E600005D56068A96820F4404008436060287820
:107E7000C00605D56068696920F480000843606029
:107E80000020DBE700100240007000404004424246
:107E90002DE9F0470F46050061D0434E306800F0F1
:107EA0000700B84209D2306820F00700384330603C
:107EB000306800F00700B84251D128683B4C810778
:107EC00012D5400703D5606840F4E0606060287810
:107ED000000703D5606840F4605060606068A9687E
:107EE00020F0F000084360602878C00728D0686858
:107EF000012810D02168022810D0890700292EDA25
:107F0000616821F0030101436160FFF78DFE804647
:107F100041F288390DE021688903EFE78901EDE737
:107F2000FFF782FEA0EB0801494502D90320BDE816
:107F3000F0876068696800F00C00B0EB810FEFD14A
:107F4000306800F00700B8420BD9306820F0070015
:107F500038433060306800F00700B84201D001209B
:107F6000E5E72878400705D56068E96820F4E06017
:107F7000084360602878000706D56068296920F406
:107F8000605040EAC100606000F058F86168084A3B
:107F9000C1F30311515CC8400649086006480068F7
:107FA000FFF762FE0020C2E70020024000100240FE
:107FB000E4FA00086C040020640400200F22026030
:107FC0000C4A536803F003034360536803F0F00363
:107FD0008360536803F4E063C36052684FF4E06366
:107FE00003EAD20202610448006800F0070008605A
:107FF000704700000010024000200240044805497C
:1080000000684968044AC1F30221515CC8407047C6
:108010006C04002000100240F4FA000804480549EE
:1080200000684968044AC1F3C221515CC8407047E6
:108030006C04002000100240F4FA000812A185B080
:108040000FC98DE80F0014A0144A0068049051680D
:10805000134801F00C03042B10D0082B0ED1C1F3F0
:108060008343C9031DF803000AD5516804AAC1F36C
:108070004041515C0A4A5043B0FBF1F005B07047F3
:1080800008494843FAE70000020304050607080907
:108090000A0B0C0D0E0F1010010200000010024020
:1080A00000127A0000093D002DE9F84F040070D05D
:1080B0002078C04DC00749D06868C0F3810001280E
:1080C00007D06868C0F38100022809D16868C0033E
:1080D00006D52868800339D560680028E7D035E0E8
:1080E0006068B0F5803F0BD010B1B0F5A02F11D073
:1080F000286820F480302860286820F4802002E07E
:10810000286840F480302860606890B1FFF78CFDEB
:1081100006460AE0286840F480202860F0E700BFA7
:10812000FFF782FD801B642873D828688003F7D589
:108130000CE0FFF779FD064605E000BFFFF774FD90
:10814000801B6428F0D828688003F7D420789A4EE2
:1081500080074FF001094FF0000839D5686810F02A
:108160000C0F07D06868C0F38100022809D1686845
:10817000C00306D42868800714D52069012808D1D7
:1081800010E02069B0B1C6F80090FFF74DFD07463A
:1081900005E00AE1FFF748FDC01B0228C4D82868A3
:1081A0008007F7D52868616920F0F80040EAC1002F
:1081B00028600DE0C6F80080FFF736FD074604E0B2
:1081C000FFF732FDC01B022823D828688007F7D4A8
:1081D000207800072CD57948A169D9B1C0F8009062
:1081E000FFF722FD074604E0FFF71EFDC01B022833
:1081F0000FD8686A8007F7D571484FF4FA510068C4
:10820000B0FBF1F0009000BF0098411E0091FAD23F
:108210000EE080E0C0F80080FFF706FD074604E0AE
:10822000FFF702FDC01B022875D8686A8007F7D4E3
:108230002078400760D5E8690027C00008D4E869C5
:1082400040F08050E861E869012700F0805000901C
:108250005C480168C90513D40168834641F4807104
:108260000160FFF7E1FC824606E000BFFFF7DCFC9F
:10827000A0EB0A0064284ED8DBF80000C005F5D555
:10828000E06801280AD008B1052813D0286A20F038
:1082900001002862286A20F0040002E0286A40F009
:1082A00001002862E06841F2883B98B1FFF7BCFC0E
:1082B00082460BE0286A40F004002862EEE700BF27
:1082C000FFF7B2FCA0EB0A0159455AD8286A80078B
:1082D000F6D50CE0FFF7A8FC824605E0FFF7A4FC0A
:1082E000A0EB0A0159454CD8286A8007F6D41FB183
:1082F000E86920F08050E861E06988B36968C1F3FB
:108300008101022944D00228C6F8608004D0FFF71A
:108310008BFC044638E034E0FFF786FC074604E0B7
:10832000FFF782FCC01B02282BD828688001F7D4F5
:10833000206AB0F5803F05D16868A16820F400305C
:1083400008436860D4E908010843696821F474119E
:1083500008436860C6F86090FFF766FC044606E0D4
:1083600025E000BFFFF760FC001B022809D8286841
:108370008001F7D51BE000BFFFF756FC001B022869
:1083800002D90320BDE8F88F28688001F4D40EE0FC
:108390000128F7D06868226A00F48031914204D144
:1083A000616A00F47010884201D00120EAE70020E1
:1083B000E8E7000000100240000042428004424210
:1083C0006C0400200070004070B5040009D0606AA1
:1083D000002540B125616561A56294F8510040B166
:1083E0000CE0012070BD6068B0F5827FF4D0E561DB
:1083F000F2E784F85050204600F040F8022084F85C
:1084000051002068016821F040010160A0882189A5
:1084100000F4827001F404410843A18901F4006171
:108420000843217C01F002010843217D01F0010194
:108430000843218B01F400710843217F01F03801CA
:10844000084394F8201001F080010843218D01F4C5
:108450000051084321680860A069042101EA104026
:10846000216848602068C16921F40061C1616565C7
:10847000012084F85100002070BD000000B585B0D7
:1084800000210091019102910391006813498842F3
:1084900021D11348816941F480518161816901F4DE
:1084A00080510491816941F00801816180696946C8
:1084B00000F0080004902820009002200190032082
:1084C00003900848FFF7A2FA0748416841F0E061CD
:1084D00041F00101416005B000BD000000300140E5
:1084E00000100240000C0140000001402DE9F84F4F
:1084F000044690F8500000271D461646894601287C
:108500000DD04FF0010B84F850B0FFF78DFB804683
:1085100094F85100BA46012804D0022793E00220C3
:10852000BDE8F88FB9F1000F73D0002E71D0032091
:1085300084F85100C4F854A0C4F83090A686E686AA
:10854000C4F838A0A4F83CA0A4F83EA0C4F844A005
:10855000C4F840A0A068B0F5004F09D120680168B8
:1085600021F0400101602068016841F48041016010
:1085700020680168490603D4016841F040010160A8
:10858000E068B0F5006F606803D030B3012E24D0EE
:1085900041E008B1012E1CD1206B21680088C86021
:1085A00006E020688168890709D5216B0988C160C8
:1085B000206B801C2063E08E401EE08609E0FFF700
:1085C00033FBA0EB0800A84202D3681C01D031E0C5
:1085D0007DB3E08E0028E4D120E0206B2168007894
:1085E000087306E020688168890709D5216B09783E
:1085F0000173206B401C2063E08E401EE0860AE081
:10860000FFF712FBA0EB0800A84203D3681C02D0BE
:1086100010E017E06DB1E08E0028E3D14246294614
:10862000204601F0C9FB08B120206065A06818B1A0
:1086300006E0FFE7032706E02068C1688068009035
:10864000606D00B1012784F851B084F850A038461D
:1086500066E77047704710B5040003D094F83D00FA
:1086600010B107E0012010BD002084F83C00204636
:1086700000F01EF8022084F83D00211D206801F062
:10868000D9FC012084F8460084F83E0084F83F00BD
:1086900084F8400084F8410084F8420084F84300E4
:1086A00084F8440084F8450084F83D00002010BDA3
:1086B0007047000090F83D10012901D0012070475B
:1086C000022180F83D100168CA6842F00102CA60C8
:1086D00000680E4988420ED00D4988420BD0B0F197
:1086E000804F08D00B49884205D00B49884202D000
:1086F0000A49884204D1816801F00701062903D0A4
:10870000016841F00101016000207047002C014028
:10871000003401400004004000080040000C00400C
:10872000704770B50446006801694FF00005C94301
:10873000890715D4C168C943890711D4E91E0161AD
:1087400001202077206880698007204602D0FFF74B
:10875000E7FF04E000F098F8204600F096F825774F
:1087600020680169C943490717D4C168C94349074B
:1087700013D46FF004010161022020772068806922
:1087800010F4407F204602D0FFF7CAFF04E000F05B
:108790007BF8204600F079F8257720680169C94305
:1087A000090716D4C168C943090712D46FF008013C
:1087B0000161042020772068C0698007204602D02C
:1087C000FFF7AEFF04E000F05FF8204600F05DF830
:1087D000257720680169C943C90617D4C168C94310
:1087E000C90613D46FF010010161082020772068BA
:1087F000C06910F4407F204602D0FFF791FF04E0EB
:1088000000F042F8204600F040F825772068016922
:10881000C943C90708D1C168C943C90704D1891E22
:108820000161204600F032F820680169C943090659
:1088300009D4C168C943090605D46FF080010161FC
:108840002046FFF706FF20680169C943490609D49D
:10885000C168C943490605D46FF040010161204653
:1088600000F01EF820680169C94389060BD4C1686D
:10887000C943890607D46FF0200101612046BDE895
:108880007040FFF7E7BE70BD70477047006803494E
:10889000884201D1FFF7CEB970470000002C01409B
:1088A0007047704710B504460068416994F83D2050
:1088B000C1F3C011212A0BD151B1416921F08001CE
:1088C0004161606B08B1FEF788FD204601F093FC22
:1088D0002068416994F83E20C1F38011222A0BD10F
:1088E00051B1416921F040014161A06B08B1FEF72F
:1088F00074FD204601F067FC002010BD70470000A9
:10890000F8B5026804461068D168536910F00F0F7B
:108910004FF0000553D003F0010601F49077374380
:108920005FD0C20705D0CA0503D5226C42F0010210
:108930002264420705D5DA0703D0226C42F0020216
:108940002264820705D5DA0703D0226C42F00402C4
:108950002264020707D501F02002324303D0226CC3
:1089600042F008022264226C002A34D0800604D52A
:10897000880602D5204601F047FC20684069216C3A
:10898000C0F38010090700D430B3204601F01BFC6F
:108990002068416949061BD5416921F040014161C8
:1089A000A06BA8B158494163A06BFEF739FD0028C0
:1089B00011D0A06B416B01B0BDE8F04008478306C1
:1089C0000FD58B060DD52046BDE8F84001F01CBC44
:1089D0002046FFF793FFF8BD2046FFF78FFF256481
:1089E000F8BD266B2023012E52D1C60650D5CE06E7
:1089F0004ED5106850680090506940062AD5A16B8A
:108A0000086840680004000CEAD0A68D8642E7D9C9
:108A1000E0858869202818D0D06820F48070D06064
:108A20002068416921F0010141612068416921F01C
:108A30004001416184F83E3025632068C16821F01F
:108A40001001C160A06BFEF7C8FCA08DE18D401A3B
:108A500081B219E0A08DE18D401A81B2E08D00282D
:108A6000BED00029BCD0D06820F49070D0602068BF
:108A7000426922F00102426184F83E302563206899
:108A8000C26822F01002C2602046FFF70AFFF8BD5C
:108A900005062BD50D0629D594F83D002128F6D1E1
:108AA000A068B0F5805F01D12069B0B1206A411C97
:108AB0002162216800784860E08C401E0004000CB0
:108AC000E084E4D12068C16821F08001C1602068A1
:108AD000C16841F04001C160F8BD206A0088C0F360
:108AE00008005060206A801C2062E5E74006F3D54C
:108AF0004806F1D5D168204621F04001D16084F8C4
:108B00003D3000F08DFAF8BDC1A0000870B504003A
:108B100004D094F83D00002510B106E0012070BD9E
:108B200084F83C50204600F023F8242084F83D00CF
:108B30002068C16821F40051C160204601F0C0FBEB
:108B40002068016921F4904101612068416921F0A8
:108B50002A0141612068C16841F40051C160256467
:108B6000202084F83D0084F83E00002070BD000005
:108B70002DE9F04786B000250095019502950395F3
:108B80000446DFF84CC203689248022103221026F3
:108B900080274FF48068634555D1836943F480434F
:108BA0008361836903F480430493836943F004037E
:108BB00083618069DFF8209200F0040004900802CD
:108BC000CDE90001039269464846FEF71FFFCDE953
:108BD0000085694648460295FEF718FFDFF80082D7
:108BE0007E4940464FF4005AC0E90015C0E90257DB
:108BF000C8F81050C8F81450C8E9065AB946FEF72C
:108C0000CBFD08B1FEF738F8754F7448C4F83880CA
:108C100044371438C8F824403860C7E90165C7E90B
:108C200003957D61C7E9065A3846FEF7B5FD08B1E0
:108C3000FEF722F867630022052125207C62FFF7FA
:108C40007FF8252063E0DFF89CC1634564D1C369E8
:108C500043F40033C361C36903F4003304938369AD
:108C600043F0200383618069DFF87C8100F02000FD
:108C700004902020CDE90001039269464046FEF7AA
:108C8000C5FE4020CDE90005694640460295FEF745
:108C9000BDFE5648416841F0E06141F00801416085
:108CA000DFF83C814D4908F1880840461431C0E99D
:108CB0000015C0E90257C8F81050C8F81450C8F899
:108CC0001850B946C8F81C50FEF766FD08B1FDF70C
:108CD000D3FF434F4148C4F83880CC372830C8F818
:108CE00024403860C7E90165C7E903957D61BD612E
:108CF0003846FD61FEF750FD08B1FDF7BDFF676323
:108D00000022052126207C62FFF71AF82620FFF7B3
:108D100009F806B0BDE8F087DFF8D4C06345F8D1A4
:108D2000C36943F48023C361C36903F480230493BC
:108D3000836943F0080383618069CDE9008100F015
:108D40000800CDE90320DFF8AC8069464046FEF715
:108D50005DFE4FF40060CDE900056946404602958E
:108D6000FEF754FEDFF890801C4940462839C0E9E0
:108D70000015C0E90257C8F81050C8F814504FF455
:108D8000805AC8E9065AB946FEF706FD08B1FDF754
:108D900073FF194F1148C4F8388044373C38C8F87D
:108DA00024403860C7E90165C7E903957D61C7E9DB
:108DB000065A3846FEF7F0FC08B1FDF75DFF676321
:108DC0000022052127207C62FEF7BAFF27209EE7BC
:108DD00000380140001002400008014058000240E5
:108DE000E811002000440040001401400000014050
:108DF00000480040000C0140F81200202DE9F84F17
:108E0000044690F83E009A4616460D46202853D157
:108E1000FDB1F6B194F83C0001284DD0012084F852
:108E20003C0000272764222084F83E002763FEF7D9
:108E3000FBFEA6858146E685A0684FF48058404534
:108E400001D1206940B12E465FF0000584F83C70E6
:108E500027E00120BDE8F88F0026F7E74B46002207
:108E600020212046CDF800A001F0BEFA08B1032071
:108E7000F0E726B1A06840451BD038B108E0206873
:108E80004068C0F3080025F8020B07E0206980B1B4
:108E90002068406800F07F0006F8010BE08D401E5E
:108EA000E085E08D0028D9D1202084F83E00002004
:108EB000D0E720684068EFE70220CBE790F83E302B
:108EC000202B0ED159B152B190F83C30012B08D073
:108ED000012380F83C300023036301F04DBA0120E8
:108EE0007047022070477047704700002DE9F84333
:108EF000044690F83D001F4616460D4620284CD1EA
:108F0000C5B1BEB194F83C00012846D0012084F8D8
:108F10003C004FF00008C4F84080212084F83D0058
:108F2000FEF782FEA6848146E684A068B0F5805FE5
:108F300003D004E00120BDE8F883206928B12E4663
:108F40005FF0000584F83C800EE00026FAE78021FF
:108F5000204601F049FAA0B9AEB116F8010B21681C
:108F60004860E08C401EE084E08C4B464FF00002ED
:108F700000970028EBD14FF04001204601F034FA71
:108F800030B10320D7E735F8020BC0F30800E6E75D
:108F9000202084F83D000020CDE70220CBE7000030
:108FA00070B5044690F83D00202830D169B362B313
:108FB00094F83C0001282AD0012084F83C0021626A
:108FC000A284E28400252564212084F83D00636B9F
:108FD00010489862636B1048D862636B0F4818633F
:108FE000606B134645632668606B321DFEF712FC0A
:108FF00021686FF04000086084F83C5020684169A7
:1090000041F080014161002070BD012070BD02204F
:1090100070BD00008FA10008BDA10008D1A000080C
:1090200070477047FEE700002DE9FE4F00250E4611
:1090300080468DF8005001952C462F460DF104090D
:1090400002953560D8F864200121684690470028D1
:10905000F7D09DF80000082813D00D281DD01B283C
:109060000DD02E284BD0303809284FD809F80400ED
:10907000641CA4B2052C43D90320BDE8FE8F022056
:10908000FBE70CB1641EA4B20121404604F010F9C4
:109090009DF800000828D4D032E07FB30025DFF827
:1090A00070B01EE0BD4205D2781B401EFCF775FA79
:1090B000014605E0E81B401CFCF76FFA80F0004118
:1090C000584603F0D3F8824619F80500FCF765FA14
:1090D0005146FCF757F93168FCF7FCF86D1CADB24E
:1090E0003060A542DED33068FCF7B5FA02460B4685
:1090F00008A1404604F072FE0120BEE706E02746C4
:10910000D8F868200121684690479AE70420B4E720
:10911000000020410D0A70466C6F61743A25660D9F
:109120000A00000000F0C2FC00F050FC642002F0D5
:1091300025FFF7E7FEB50024364800940194344932
:109140000294016089158160012505730475082664
:1091500006614FF460214460C161FDF731FF08B141
:10916000FDF78AFDCDE900450324694629480294AC
:10917000FDF7A4FE08B1FDF77FFD009502256946C5
:1091800024480195FDF79AFE08B1FDF775FDCDE97C
:10919000005469461F48FDF791FE08B1FDF76CFDCC
:1091A0000420CDE9004069461A48FDF787FE08B162
:1091B000FDF762FD0A2000900520019069461548E0
:1091C000FDF77CFE08B1FDF757FD0B20009006204F
:1091D000019069460F48FDF771FE08B1FDF74CFD9F
:1091E0000C2000900720019069460A48FDF766FEB2
:1091F00008B1FDF741FD0D20CDE90006694605489F
:10920000FDF75CFE002801D0FDF736FDFEBD000035
:10921000002401403C1000202DE9F0430D488DB0A2
:1092200000F11801D0E9048290E8F0009146342260
:109230006846FBF7F5FF01A9074881E8F0030068DD
:109240006946406908900548FDF7C6F90DB0BDE8CC
:10925000F083000030F8000800040020B400002073
:109260001CB50024104900940E480194086008467B
:10927000FEF737F808B1FDF7FFFC009400226946BD
:1092800009480194FEF70AF808B1FDF7F5FC102231
:1092900069460548FEF702F8002801D0FDF7ECFC0E
:1092A0001CBD000000740040B0100020214808B52B
:1092B000416941F0010141614069002200F0010073
:1092C000009005210B20FEF73BFD0B20FEF72AFD49
:1092D000002205210C20FEF733FD0C20FEF722FDB5
:1092E000002205210D20FEF72BFD0D20FEF71AFDB3
:1092F000002205210E20FEF723FD0E20FEF712FDB1
:10930000002205210F20FEF71BFD0F20FEF70AFDAE
:10931000002205211020FEF713FD1020FEF702FDAC
:10932000002205211120FEF70BFDBDE808401120A9
:10933000FEF7F8BC0010024000B591B000208DF897
:1093400000008020ADF82400ADF82C0007480D90F7
:109350001D20ADF8380006480C9006480F900348D1
:109360006946001FFDF76EF911B000BD2002002014
:10937000F80700201C11002070B5C6B000253C95F0
:109380003CA83D9502F019FE464C0121E0623E9555
:109390003EA83F9502F01DFE20634095012140A8A4
:1093A000419502F016FE60634295012142A8439563
:1093B00002F00FFE3C4DA0633C4ED5E90001CDE923
:1093C0004401012144A8326802F0B4FE0835A062CD
:1093D00095E80F0038AD85E80F00002138A802F0AD
:1093E000D9FD314960621C2218316846FBF718FF2D
:1093F0002F49684602F066FE2B4960601C2234311A
:1094000007A8FBF70DFF002107A802F05BFE264925
:10941000A0601C2250310EA8FBF702FF00210EA80D
:1094200002F050FE2049E0601C226C3115A8FBF7C9
:10943000F7FE15A8316802F045FE1B4920611C2289
:1094400088311CA8FBF7ECFE00211CA802F03AFEB4
:10945000154960611C22A43123A8FBF7E1FE00211D
:1094600023A802F02FFE1049A0611C22C0312AA8B7
:10947000FBF7D6FE00212AA802F024FE0A49E0618B
:109480001C22DC3131A8FBF7CBFE002131A802F011
:1094900019FE20624FF47A71A06A02F06BFE46B0AA
:1094A00070BD0000C8010020D8F8000800040020AA
:1094B000E81300202DE9F04F85B000254C480095B9
:1094C000019502950395816941F0100181618169DF
:1094D00001F010010491816941F004018161816909
:1094E00001F004010491816941F0400181618169C9
:1094F00001F040010491816941F0080181618169B5
:1095000001F008010491816941F0200181618069C5
:10951000DFF8E09000F020004FF4A0440490012216
:1095200021464846FEF77BFBDFF8CCA04FF470479E
:10953000002239465046FEF772FB002240F20471C9
:109540002E48FEF76CFBDFF8B8B04FF4004801225C
:1095500041465846FEF763FB009401240226CDE9FC
:109560000246694648460194FEF750FA4FF42040FF
:10957000CDE90005694602944846FEF747FACDE971
:1095800000740294694650460394FEF73FFA4FF484
:10959000E060CDE900040294694618480394FEF7A0
:1095A00035FA4FF47840CDE9000569460294134836
:1095B000FEF72CFA4FF4E070CDE9000569460294FD
:1095C0001048FEF723FA0320CDE90240CDE90084DC
:1095D00069465846FEF71AFA0420CDE90004CDE9A1
:1095E000024669460548FEF711FA05B0BDE8F08F5E
:1095F0000010024000180140000C0140001401401E
:10960000000801400010014070B5022060F307041B
:109610000A4B4FF4E1321D462146094801F00AFE8B
:10962000214603202B4660F30701BDE87040044843
:109630004FF41652001D01F0FDBD000029C20008C4
:1096400000040020104810B50E4901604FF48271EB
:10965000416000214FF40062C0E9021292100161E2
:10966000C0E905121022C0E90721416281620A2186
:10967000C162FEF7A9FE002803D0BDE81040FDF747
:10968000FBBA10BD00300140C410002005498166BE
:10969000054941660549C1660549016780220549BA
:1096A00004F060B9F1A50008D5A50008E1E40008C0
:1096B000F9E400085C1400200C4810B50A49016068
:1096C0004FF4E1314160002181600C22C160C0E9AA
:1096D00004128161C161FFF719FA002803D0BDE8C7
:1096E0001040FDF7C9BA10BD003801401C11002020
:1096F0000C4810B50A4901604FF416514160002131
:1097000081600C22C160C0E904128161C161FFF770
:10971000FDF9002803D0BDE81040FDF7ADBA10BD3B
:1097200000440040601100200C4810B50A49016057
:109730004FF4E1314160002181600C22C160C0E939
:1097400004128161C161FFF7E1F9002803D0BDE88F
:109750001040FDF791BA10BD00480040A411002050
:1097600073B54178022901D21D4C00E01D4C002C3C
:109770002ED0BDF80420C2F30B0349B1012907D054
:10978000022901D0032923D1022922D9002121E075
:10979000ADF80430007810B14FF4304001E04FF4E0
:1097A00040501843104EADF804004FF4004500221D
:1097B00029463046FEF733FA4FF6FF73022201A91D
:1097C0002046FEF793FE012229463046FEF727FA8F
:1097D0007CBD102100222046FDF7C4FD7CBD0000A9
:1097E000C4100020B01000200008014030B4042153
:1097F00030BC0148FEF70BBA00140140FEE7FEE75B
:1098000000F032FF00F004FF642002F0B7FBF7E73E
:1098100070B505460C460F48697800EBC106214635
:1098200056F8880FFBF7AEFD7168FBF753FDFBF7A9
:10983000C6FE81B214F0FF4F05D00748844203DD15
:1098400040F6FF7100E000212846BDE87040FFF7B8
:1098500087BF0000E80700200000A041094930B49C
:109860000968C16708498167084900F11003382277
:1098700009688C6908212046D4F8A852AC4630BC4F
:109880006047000000F007088F006500000400201A
:109890002DE9F84F0446806A89468179022903D26E
:1098A000B0F8070041BA06E0D0F80710807A09BA8C
:1098B00021F0FF0101438DB2616B99F800208B46C6
:1098C00001EB02109246008886B2344830F8707F6F
:1098D000B0F802802846FBF760FE082303EB0A126B
:1098E00000905BF80210FBF7D3FE55D899F80010F2
:1098F0000423626B03EB011100985158FBF7BEFE85
:109900004AD84FF48051264841F2020C8E4201D1D0
:10991000058035E041F20102931C964201D1458059
:109920002EE0002266451ED1F12D29D10188B942D1
:1099300008D14588454505D1828022690821204605
:1099400090471DE0B94205D04388434502D04FF40B
:10995000407106E0B94202D04FF4807101E04FF44B
:10996000007181800CE09E420AD1F02D08D18280E6
:10997000428002800092A56804236A462046A847D8
:10998000A56801B02046AC46BDE8F04F044A02236A
:10999000121D41F228016047BDE8F88FE80700205A
:1099A00014020020074D084C4FF0FF363146686B1B
:1099B00002F056FB0028F9D120686421026B904721
:1099C000F4E70000C801002004040020F0B587B0CF
:1099D000314E182231496846FBF722FC3048314F9E
:1099E000017879B9012101705FF0000404EB4400B3
:1099F00007EBC00018226946FBF712FC641CA4B2F6
:109A0000082CF3D3202003F00BFB050001D104F058
:109A100035FE20212846FBF71CFC002401E0042C25
:109A200002D2C4F1070000E0201F80B26EB1FDF742
:109A300013FAFBF7B2FDD6F88010FBF7A3FCD6F8BB
:109A40008410FBF747FC45F8240055F82400D6F8AD
:109A50008410FBF713FE01D8002101E055F8241013
:109A600004EB440045F8241007EBC00001F002FBB2
:109A700045F82400641CA4B2082CD0D30A48102254
:109A80002B46006800218069D0F89842A0472846FC
:109A900004F0F4FD07B0F0BDE807002004F800086A
:109AA00000000020E80400200004002070B500241D
:109AB000124E134D01E0052C01D2304600E0114852
:109AC000052C03D24FF40061A14002E0621F402147
:109AD000914089B2FEF796F868B1002228682146C5
:109AE0008069D0F884329847002803D0641CA4B25F
:109AF000082CE0D370BD0122F0E700000014014003
:109B0000000400200010014070B50D4B00215C14D2
:109B10000846A50003E0012801D9224600E02A46B4
:109B20009E68164201D1012200E000228240D2B29A
:109B3000401C1143C0B20328EDD3C8B270BD000071
:109B4000001801402DE9F041804660260C46304661
:109B500003F066FA050018D032462146FBF760FB99
:109B600026F003002C46071905E0042200212046B8
:109B7000FDF76EF8241DA742F7D8D8F80840334601
:109B800040462A4641F23001A0472846BDE8F04150
:109B900004F074BD00209AB0DFF88CA1019034214C
:109BA000624EDFF88C81DFF88CB18DF80C000CADC3
:109BB0008146069128460699FBF74BFB0024CDF819
:109BC0000490306803AA21468069D0F87C32984717
:109BD0009DF80C10BDF8040004F10807B9400843D3
:109BE000ADF80400306803AA21468069D0F86C32D1
:109BF00098479DF80C10BDF80600B9400843641C56
:109C0000A4B2ADF80600082CDBD3FFF77DFFBDF84A
:109C100004100A220843ADF804000198286008A93E
:109C2000D8F8240005F07AF901280AD108AC0CAF65
:109C300005E0042200212046FDF70AF8241DBC425D
:109C4000F7D3102208A9281DFBF7EAFA3068102282
:109C500005F1140380690021D0F89042A047002448
:109C600005EB8400042200211430FCF7F1FF641C92
:109C7000E4B2082CF4D3DBF800005C462A4687687F
:109C800041F20401069BB847052002F077F93068DD
:109C900008222B4680690021D0F8A072B84700271F
:109CA00005EB870004220021FCF7D2FF7F1CFFB2E6
:109CB000042FF5D3206810232A4687684FF481517A
:109CC000B847052002F05AF9DAF87400D0B180B232
:109CD000010A41EA0020ADF804004FF48070ADF8AD
:109CE00006002068042301AA876841F26201B84790
:109CF000052002F043F920680E210269904788F898
:109D0000019009E098F8011031B9012188F801109B
:109D100020680321026990475046FFF79FFD40F2FB
:109D20004C4002F02BF945E7E80700200004002032
:109D3000C80100201C02002070B5806A81790229C8
:109D400003D2B0F8070041BA06E0D0F80710807AD5
:109D500009BA21F0FF01014388B2134CF12821D147
:109D600004F110009C2211490546FBF759FA04F052
:109D700051FC4FF6FF7298212846FDF783F8C4F88E
:109D8000A8009C2229460A48FDF722F804F062FC4C
:109D90002046FFF763FD074829468068BDE870400C
:109DA000FFF7D0BE70BD0000E80700202C010020A6
:109DB00000F807081402002038B50B46009204464C
:109DC0000022802100F008F8002804D0606D40F0E7
:109DD00020006065032038BD2DE9F8431E469146FA
:109DE00088460446089DFDF71FFF401B351AFDF706
:109DF0001BFF074625480068C0F3CB30684338E0B6
:109E0000701C37D0FDF710FFC01BA84203D215B15C
:109E1000009860B32CE02068416821F0E0014160C7
:109E20006068B0F5827F0BD1A068B0F5004F02D01A
:109E3000B0F5806F04D12068016821F04001016015
:109E4000A06AB0F5005F09D12068016821F40051D3
:109E500001602068016841F400510160012084F82C
:109E60005100002084F850000320BDE8F88300254D
:109E7000401E00902068816838EA010004D000216B
:109E80004945BDD10020F0E70121F9E76C0400202D
:109E9000064D074C4FF0FF363146286B02F0E0F8D4
:109EA0000028F9D1206842699047F5E7C8010020F1
:109EB0001C0200207CB50A4CD4F884008034FBF7E7
:109EC000CAFB05460E462068FBF7C5FBCDE90056E8
:109ED00002460B4603A1074803F080FF7CBD00004B
:109EE000E807002053503A2566090953513A256680
:109EF0000D0A0000E81300202DE9FF41DFF8408043
:109F000010A1134803F06AFF5FF0000408EBC406D9
:109F1000D6F88C008836FBF79EFB07460D46306866
:109F2000FBF799FB03958DE88300224609A10848B9
:109F300003F054FF641CA4B2042CE7D3BDE8FF81F6
:109F4000E807002009534B090953470D0A00000098
:109F5000E813002043485B25645D3A25660909251E
:109F6000660D0A000446204604F0A8F9FBE700004D
:109F700010B5502080F31188BFF34F8FBFF36F8F60
:109F800005F018FA18B104494FF08050086000201D
:109F900080F3118810BD000004ED00E030B595B0ED
:109FA00028216846FBF755F914210AA8FBF751F957
:109FB00018210FA8FBF74DF901210804CDE9001085
:109FC0000025029502240491CDE907404FF4E010EA
:109FD00009906846FEF768F808B172B6FEE70AA96C
:109FE0000F2081E831004FF48060CDE90D0502219A
:109FF0000AA8FDF74DFF08B172B6FEE74FF4004026
:10A0000011900F940FA8FDF7CDFE002801D072B675
:10A01000FEE715B030BD00000249014808607047F6
:10A020000050000808ED00E00148FEF77ABB000090
:10A0300080130020F0B502681C4B1D4D1D4E1E4FB5
:10A040001E4C4FF0804C984209D0A04207D060458A
:10A0500005D0A84203D0B04201D0B84204D122F0CA
:10A06000700E4A6842EA0E02984209D0A04207D018
:10A07000604505D0A84203D0B04201D0B84203D118
:10A0800022F44075CA682A434D6922F080022A43AF
:10A0900002608A68C2620A688262984201D0A04265
:10A0A00001D10969016301214161F0BD002C01402A
:10A0B0000004004000080040000C00400034014053
:10A0C00010B5406A0021C185C184FEF717FC10BDA0
:10A0D00070B5446A2068406994F83D10C0F3C01020
:10A0E0000025212904D118B1E584204600F083F829
:10A0F0002068406994F83E10C0F38010222904D1F2
:10A1000018B1E585204600F05EF8206C40F01000A4
:10A1100020642046FEF7F2FB70BD10B50146406A90
:10A120000968096889061BD40021C1850168CA68CD
:10A1300022F48072CA6001684A6922F001024A6111
:10A1400001684A6922F040024A61202180F83E10ED
:10A15000016B012904D10168CA6822F01002CA60AB
:10A16000016B012902D0FEF7BEFE10BD818DFEF706
:10A1700098FB10BD10B5406A016B012902D0FEF7B3
:10A18000B3FE10BD818D4908FEF78BFB10BD10B5E5
:10A190000146406A0968096889060CD40021C18417
:10A1A00001684A6922F080024A610068C16841F092
:10A1B0004001C16010BDFEF733FF10BD10B5406A0D
:10A1C000FEF72FFF10BD0168CA6822F49072CA60C2
:10A1D00001684A6922F001024A61016B012904D138
:10A1E0000168CA6822F01002CA60202180F83E107F
:10A1F0000021016370470168CA6822F0C002CA608A
:10A20000202180F83D10704708B590F83E102229B3
:10A2100001D0022008BD82684FF480539A4201D1D8
:10A22000016921B1816A9A421BD04AB10AE00268F1
:10A23000816A5268C2F308020A80816A891C08E0B8
:10A24000026972B10268526802F07F020A70816A84
:10A25000491C8162C18D491E0904090CC18503D0C6
:10A2600019E002685268F1E70168CA6822F020022A
:10A27000CA600168CA6822F48072CA6001684A69CB
:10A2800022F001024A61202180F83E10016B012971
:10A2900003D0FEF728FE002008BD002101630168FD
:10A2A000CA6822F01002CA6001680A68D20602D5A4
:10A2B0000A6849680091818DFEF7F3FAEBE7000028
:10A2C00070B5044600680169E26821F44051114309
:10A2D00001612169A0680843616908432168CA686F
:10A2E00041F20C639A430243CA6020684169A26943
:10A2F00021F44071114341611E492068884202D116
:10A30000FDF78CFE01E0FDF779FE00EBC00101EBEB
:10A310000012606864218000B2FBF0F3B3FBF1F33C
:10A320006FF018067343B2FBF0F5B2FBF0F605EBE5
:10A330008305322303EB0515B5FBF1F5B6FBF1F60A
:10A3400005F0F00505EB0615B2FBF0F6B2FBF0F0F8
:10A35000B0FBF1F06FF01802504306EB800003EB06
:10A360000010B0FBF1F0216800F00F002844886075
:10A3700070BD00000038014038B58162828500253B
:10A38000134604460564222084F83E00A26B13485D
:10A390009062A26B1248D062A26B12481063A06B4D
:10A3A0000A4645632168A06B091DFDF733FA206852
:10A3B00001684168009184F83C50C16841F48071A3
:10A3C000C1602068416941F0010141612068416933
:10A3D00041F040014161002038BD00001BA1000890
:10A3E00075A10008D1A000082DE9F0419846174654
:10A3F0000E460446069D1DE0681C1BD02DB1FDF7DE
:10A4000013FCA0EB0800A84214D92068C16821F40D
:10A41000D071C1602068416921F0010141612020B3
:10A4200084F83D0084F83E00002084F83C000320BE
:10A43000BDE8F0812068006836EA000004D0002002
:10A44000B842D9D00020F3E70120F9E738B5124827
:10A4500000680168C943C90618D4016840680F4CF8
:10A460000090206868B10C48FEF71CFA0C4920687F
:10A470000968828D4968511AC185816A0648FEF7CC
:10A480001DFD0848006808B101F0C2FDBDE8384074
:10A490000148FEF735BA00001C1100201C02002004
:10A4A000E8110020F80100200148FEF729BA000059
:10A4B0006011002038B5134800680168C943C90617
:10A4C0001BD401684068104C0090206880B10D4892
:10A4D000FEF7E8F90D4800684068C0F1FD0120680A
:10A4E0004269C2F800114169FD220648FEF7E6FC08
:10A4F0000748006808B101F08BFDBDE8384001480D
:10A50000FEF7FEB9A411002000040020F81200207C
:10A510000002002008B507460020244D244C461EAA
:10A5200000903146A86B01F09BFD0028F9D1384618
:10A53000FBF7B7FE98B31F4D002400BF05EB4400A6
:10A540000021FFF765F9641CE4B2042CF6D31A4825
:10A55000006810B102690F219047184C206845F639
:10A56000A5210090B1EB104F01D1154800E015482E
:10A57000009004F04FF8042269462046FCF728FCBE
:10A5800004F068F8BFF34F8F0F4801680F4A01F4D9
:10A59000E06111430160BFF34F8F00BFFDE7FFE7AC
:10A5A00020686421026B9047BBE70000C8010020CF
:10A5B00000040020010000201C02002000F0070819
:10A5C00034125AA53412A55A0CED00E00400FA0525
:10A5D000FEE7000010B50C460A4601460123034879
:10A5E000FEF70CFC00B10024204610BD60110020D5
:10A5F00010B50C460A4601464FF6FF730348FEF7B6
:10A6000075FC00B10024204610BD00006011002040
:10A6100070B5102002F004FD050001D104F02EF801
:10A62000002028606860A860E8600D4808222B467A
:10A63000006800218069D0F8A042A047094E00249C
:10A6400006EB440055F82410FFF7E2F8641CA4B2AE
:10A65000042CF5D32846BDE8704004F00FB8000084
:10A6600000040020010000202DE9F84300208DF8AF
:10A67000000006460446DFF85490154D01E0042C16
:10A6800001D2484600E01348042C804603D24FF420
:10A690008050A04003E0211F4FF48070884087B2B3
:10A6A000286831196A468069D0F86C3298470028CA
:10A6B00009D09DF8002039464046FDF7B0FA641CE9
:10A6C000A4B2072CDBD3BDE8F8830000000C0140E6
:10A6D00000040020001401407CB5044600201D4603
:10A6E000164600290BD0491ECDE90041044B6A46AD
:10A6F0002946304600F016F9009A002111707CBD01
:10A7000053B000084100080218BF04200A0E18BF09
:10A7100040F001004FF07F4232EA010108BF40F0F3
:10A720000200012808BF052070470907090E00280C
:10A7300004DB00F1E02080F80014704700F00F0007
:10A7400000F1E02080F8141D704700214FF07E508A
:10A75000FAF74ABEFAF7BEBD00210846FAF744BE32
:10A7600061214FF0E040FAF77DBE6FF05E0108070F
:10A77000FAF778BE02E008C8121F08C1002AFAD111
:10A7800070477047002001E001C1121F002AFBD171
:10A79000704700000149086070470000E404002091
:10A7A0002DE9FF5F82B00021DDE90430020DDDF804
:10A7B00040B0034318D044F61050A2F2FF32424397
:10A7C0001514119801281FD0A5EB0B00401C5FEA5F
:10A7D000000A4FF000064E4FDFF83891B046504661
:10A7E00015D5CAF1000413E0119801244AA30128E9
:10A7F00001D16FEA0B010298119AC0E90031C0E95A
:10A80000024206B0BDE8F09FCBF10000DFE704464E
:10A810000021404A491842EB0450CDE9001012E0F3
:10A82000E00707D032463B4640464946FBF7BCF8B6
:10A830008046894632463B4610461946FBF7B4F837
:10A8400006460F466410002CEAD1DDE90401DDE97B
:10A850000023BAF1000F06DAFBF7A6F842464B4692
:10A86000FBF7A2F805E0FAF709FE42464B46FAF775
:10A8700005FE04460E460022284BFBF745F903D897
:10A880004FF0FF30014607E00022254B20463146BD
:10A89000FAF7E3FFFBF7FAF8102409E0002C0ADBD3
:10A8A0000A220023FAF714FF039B30321A55641E64
:10A8B00050EA0102F2D1641C039AC4F1110314445A
:10A8C000119A012A03D0012208430DD10AE008435E
:10A8D00004D000204FF0110B119072E7A3EB0B0591
:10A8E0006D1E0DE05B4504DD4FF0000205F1010532
:10A8F00004E003DA4FF00002A5F10105002AECD0D4
:10A9000002981199C0E90231C0E9004579E70000D9
:10A91000000014400000F03F300000000000F04351
:10A920000000E03F2DE9FF4F95B09B468946064663
:10A9300000250FE2252877D100242746F84A012177
:10A94000059400E0044316F8013F203B01FA03F0B0
:10A950001042F7D130782A2811D06FF02F033078C9
:10A96000A0F13002092A16D8059A44F0020402EB3D
:10A97000820203EB42021044761C0590EFE759F87F
:10A98000042B0592002A03DA504244F40054059047
:10A9900044F00204761C30782E2816D116F8010FE8
:10A9A00044F004042A280DD06FF02F023078A0F173
:10A9B0003003092B09D807EB870302EB4303C718C1
:10A9C000761CF3E759F8047B761C30786C280FD09E
:10A9D00006DC4C2817D068280DD06A2814D104E072
:10A9E000742810D07A280FD10DE044F400140AE046
:10A9F00044F4801401E044F440147278824202D19D
:10AA000004F58014761C761C307866280BD013DC95
:10AA1000582877D009DC002875D04528F6D046287C
:10AA2000F4D047281AD19DE118E0632835D0642876
:10AA300079D0652812D195E1702873D008DC672899
:10AA4000F1D069286FD06E280DD06F2806D1B5E0FF
:10AA500073282CD0752875D0782874D05A46179949
:10AA600090476D1C75E1C4F30250022809D00328F9
:10AA70000DD0D9F8001004280DD00D6009F104099B
:10AA800067E1D9F80010EA17C1E90052F6E7D9F8F2
:10AA900000100D80F2E70D70F0E719F8041B8DF837
:10AAA000001000208DF80100EA46012003E059F86B
:10AAB00004AB4FF0FF3061074FF0000102D40DE00E
:10AAC00008F101018846B9420FDA8045F8DB1AF82F
:10AAD00008100029F4D108E008F1010188468142FC
